:020000040800F2
:10000000F01A0020E901000845110008BD0B0008A6
:1000100041110008990A0008E71B000800000000D1
:100020000000000000000000000000004513000870
:100030009D0A000800000000CD11000831140008DE
:10004000030200080302000803020008030200087C
:10005000030200080302000803020008030200086C
:10006000030200080302000803020008030200085C
:10007000030200080302000803020008030200084C
:10008000030200080302000803020008030200083C
:10009000030200080302000803020008030200082C
:1000A000030200080302000803020008030200081C
:1000B0009514000803020008030200080302000868
:1000C00003020008030200080302000803020008FC
:1000D0000302000811180008851800080302000830
:1000E00003020008030200080302000803020008DC
:1000F00003020008030200080302000803020008CC
:1001000003020008030200080302000803020008BB
:10011000C9170008030200080302000803020008D0
:10012000030200080302000803020008030200089B
:1001300000F002F800F048F80AA090E8000C8244B1
:100140008344AAF10107DA4501D100F03DF8AFF28E
:10015000090EBAE80F0013F0010F18BFFB1A43F0A5
:1001600001031847742A0000942A0000103A24BFA3
:1001700078C878C1FAD8520724BF30C830C144BF0C
:1001800004680C607047000000230024002500264E
:10019000103A28BF78C1FBD8520728BF30C148BFEA
:1001A0000B607047642900F05580002070471FB530
:1001B00000F04AFB04000020002102F073FC401C08
:1001C00060601FBD10B510BD00F018FB1146FFF7B1
:1001D000EEFF02F04FF800F049FB03B4FFF7F2FF27
:1001E00003BC00F04DFB0000094880470948004768
:1001F000FEE7FEE7FEE7FEE7FEE7FEE7FEE7FEE7D7
:10020000FEE7FEE704480549054A064B7047000033
:100210003514000831010008F0140020F01A002005
:10022000F0160020F01600200FB41CB5084B06AAEB
:100230007B4469460090059800F033FA044600209C
:10024000694600F041FA20461CBC5DF814FB000032
:10025000950400002DE9F041064600241068752938
:10026000314616A510D0AFF30080002802DA4042D4
:1002700013A507E031688A0701D512A502E04907F6
:1002800004D511A5012401E0AFF3008000210A226A
:1002900006F1240709E0B0FBF2FCB0FBF2F302FB2D
:1002A0001C00303078541846491C0028F3D12346EE
:1002B0002A463046BDE8F04100F094B90000000045
:1002C0002D0000002B000000200000002DE9F04769
:1002D0004FF0000A89460446C0F820A02046E16895
:1002E0008847002876D0252806D0D4E901219047F8
:1002F000206A401C2062F1E7E1682046002588471B
:10030000C4F81CA006460027C4F818A02A2E09D05D
:10031000304601F06AFC38B304EB8708303EC8F879
:10032000186019E059F8041B204604EB870291611C
:10033000E1688847012F064618D1E069002820DAD5
:1003400025F020051DE0D8F8180000EB800006EB32
:1003500040003038C8F818002046E1688847064653
:1003600001F043FC0028EED1012F0AD02E2E08D137
:100370002046E16888477F1C0646022F45F020058D
:10038000C4DBA069002803DA404245F00105A06102
:10039000E80701D025F01005B6B1A6F141001928F3
:1003A00002D8203645F400654A463146204625608D
:1003B0004D46FFF7F7FE58B1012806D0ED1D25F098
:1003C000070000F1080989E704E005F1040985E761
:1003D00030468AE7206ABDE8F08770B5064600F02F
:1003E000FDF80468054630460A22002100F071F944
:1003F0002C6070BD30B505460B462A4613F8014BFC
:1004000012F8010B08B1A042F8D01CB1002802D0AC
:100410006D1CF1E7284630BD10B5431C02E010F812
:10042000011B71B18107FAD14FF0013202C88C1A59
:100430008C4314EAC211F9D0C01A0A0603D0C01EB8
:1004400010BDC01A10BD0A0401D0801E10BD0902E3
:10045000FCD0401E10BD032A40F2308010F0030C87
:1004600000F0158011F8013BBCF1020F624498BF07
:1004700011F801CB00F8013B38BF11F8013BA2F1A4
:10048000040298BF00F801CB38BF00F8013B11F01F
:10049000030300F02580083AC0F0088051F8043BBF
:1004A000083A51F804CBA0E80810F5E7121D5CBF2C
:1004B00051F8043B40F8043BAFF30080D20724BF5F
:1004C00011F8013B11F801CB48BF11F8012B24BFF3
:1004D00000F8013B00F801CB48BF00F8012B704742
:1004E00010B5203AC0F00B80B1E81850203AA0E8CF
:1004F0001850B1E81850A0E81850BFF4F5AF5FEA03
:10050000027C24BFB1E81850A0E8185044BF18C9B5
:1005100018C0BDE810405FEA827C24BF51F8043B5C
:1005200040F8043B08BF7047D20728BF31F8023BB0
:1005300048BF11F8012B28BF20F8023B48BF00F844
:10054000012B70474FF000020429C0F0128010F018
:10055000030C00F01B80CCF1040CBCF1020F18BF9F
:1005600000F8012BA8BF20F8022BA1EB0C0100F032
:100570000DB85FEAC17C24BF00F8012B00F8012B05
:1005800048BF00F8012B70474FF0000200B513463A
:1005900094469646203922BFA0E80C50A0E80C50A3
:1005A000B1F12001BFF4F7AF090728BFA0E80C5054
:1005B00048BF0CC05DF804EB890028BF40F8042B4D
:1005C00008BF704748BF20F8022B11F0804F18BFBA
:1005D00000F8012B7047704770477047004870471C
:1005E000901400202DE9F0470D46994692460446A6
:1005F00000F124080168880604D5E06921F01001A3
:10060000216000E00120A84201DD471B00E0002737
:10061000A1697A1902EB0900081AA0612078C006C6
:1006200002D42046AFF30080002608E0D4E901217F
:100630001AF806009047206A401C761C20624E453E
:10064000F4DB2078C0060AD52046AFF3008006E030
:10065000D4E9012130209047206A401C2062381ED6
:10066000A7F10107F4DC07E0D4E9012118F805003F
:100670009047206A401C2062281EA5F10105F3DC8A
:100680002046AFF300802078000602D50220BDE8A6
:10069000F0870120FBE7000001694A1C026108782D
:1006A000704700B58FB0CDE90131002105910549B2
:1006B0007944CDE9031011466846FFF707FE0FB0F5
:1006C00000BD0000E5FFFFFF0A6802F8010B0A60A9
:1006D00070472DE9F04791460F46804604460026B4
:1006E00014F8015B2DB100F031F80068405DC007DF
:1006F000F6D12B2D02D02D2D18D0641E4A46394636
:10070000204600F02BF827B13968A14201D1C7F883
:1007100000804FF0020471050BD54042002803DD34
:10072000FFF75CFF0460A007BDE8F08746F4806631
:10073000E4E70028F8DAFFF751FF04606FF00040AB
:10074000F2E70000004870479014002010B500F058
:100750007BF8001D10BD00BF4D2300002DE9F05FA8
:10076000824615468B4600270AF10104B9460078F7
:10077000302801D09DB113E014F8010B012778282F
:1007800003D0582801D045B10AE00DB1102D07D192
:10079000002714F8010B102502E0082500E00A25C7
:1007A0000026B0460EE005FB080005FB06F1012718
:1007B0001FFA80F801EB1046B6F5803F00D3B9462A
:1007C00014F8010B294600F043F80028EBDABBF1DE
:1007D000000F05D00FB1641E00E05446CBF8004076
:1007E000B9F1000F06D0FFF7F9FE02210160C81E23
:1007F000BDE8F09F48EA0640FAE770477546FFF704
:10080000A1FFAE4605006946534620F00700854625
:1008100018B020B5FFF7F6FCBDE820404FF0000609
:100820004FF000074FF000084FF0000B21F00701D8
:10083000AC46ACE8C009ACE8C009ACE8C009ACE81B
:10084000C0098D467047000000487047B014002072
:100850003A2800D2303820F02002412A01D3A2F1F8
:100860003700884201D34FF0FF30704710B504467F
:10087000AFF300802046BDE81040FFF7AEBC00009B
:1008800001491820ABBEFEE7260002004FF0013CF4
:1008900050F8042B51F8043B9A4221D1A2EB0C03EF
:1008A000934313EACC1317D150F8042B51F8043BAF
:1008B0009A4215D1A2EB0C03934313EACC130BD14C
:1008C00050F8042B51F8043B9A4209D1A2EB0C03D7
:1008D000934313EACC13DBD04FF00000704700BF06
:1008E000D01A01BAB1FA81F101F0180122FA01F02F
:1008F000CB40C1F12001DBB2C0B2C01A2CFA01F327
:10090000D11A914311EAC311E6D1704721B182682F
:1009100042F00102826003E0826822F001028260FC
:100920007047000010B504461248844208D10121E6
:10093000401500F089FC0021601500F085FC17E0EF
:100940000D48844208D10121001500F07DFC0021F2
:10095000201500F079FC0BE00848844208D1012101
:10096000C80300F071FC00214FF4004000F06CFC63
:1009700010BD00000024014000280140003C01405F
:10098000014600208A6802F004020AB1012000E05A
:1009900000207047014600208A6802F008020AB170
:1009A000012000E00020704730B5024600200023FF
:1009B00050680F4C20400D790C6844EA0524204310
:1009C000506090680B4C2040D1E902542C434D7983
:1009D00044EA450420439060D06A20F470000C7C07
:1009E000641EE4B2234340EA0350D06230BD0000ED
:1009F000FFFEF0FFFDF7F1FF816841F00801816023
:100A00007047816841F004018160704700B587B08C
:100A100001214FF4017000F007FC4FF4004000F09A
:100A2000D7FB0120ADF8040000208DF8070001A9D4
:100A3000174800F034F81748FFF774FF00200290C1
:100A40008DF80C008DF80D004FF46020049000200C
:100A5000059001208DF8180002A90E48FFF7A4FFA9
:100A600001210C48FFF752FF0A48FFF7C5FF00BFFE
:100A70000848FFF78FFF0028FAD10648FFF7C1FFAB
:100A800000BF0448FFF77CFF0028FAD107B000BD83
:100A9000000801400024014000BFFEE770472DE937
:100AA000F0410246002500260020002300240027F4
:100AB00091F803C00CF00F0591F803C00CF0100C76
:100AC000BCF1000F03D091F802C04CEA050591F883
:100AD00000C0BCF1000F31D0146800202BE04FF0B3
:100AE000010C0CFA00F3B1F800C00CEA03069E42B8
:100AF00020D183004FF00F0C0CFA03F7BC4305FA2A
:100B000003FC4CEA040491F803C0BCF1280F06D1A1
:100B10004FF0010C0CFA00FCC2F814C00AE091F886
:100B200003C0BCF1480F05D14FF0010C0CFA00FCDA
:100B3000C2F810C0401C0828D1D31460B1F800C01E
:100B4000BCF1FF0F34DD546800202EE000F1080CEA
:100B50004FF0010808FA0CF3B1F800C00CEA0306E4
:100B60009E4221D183004FF00F0C0CFA03F7BC43D7
:100B700005FA03FC4CEA040491F803C0BCF1280F09
:100B800005D100F1080C08FA0CF8C2F8148091F8AD
:100B900003C0BCF1480F07D100F1080C4FF0010869
:100BA00008FA0CF8C2F81080401C0828CED3546014
:100BB000BDE8F081416170470161704700BFFEE709
:100BC0002DE9FF4704460D4616469946002003903E
:100BD000029600278046009002A801F0F5FC8DF8EF
:100BE0000C000398C0F30310022800D01FE001A9F5
:100BF000029800F04DF88046029908440290DDE921
:100C0000011047180298381A022800DA0FE002A8EB
:100C100001F0DAFC8DF80000009800F0010020706F
:100C200002A801F0D1FC28704FF0010800BF404637
:100C300004B0BDE8F0872DE9F84305460C460126CF
:100C400000270020206000BF4FF0FF38781C0746C7
:100C5000042801DD00BF17E001216846A84780464F
:100C6000B8F1010F00D00FE09DF8001001F07F01F6
:100C7000206801FB06002060F6019DF8000000F0EE
:100C800080000028E0D100BF3846BDE8F8830000AE
:100C900070B504460D460348046029460248FFF734
:100CA000CAFF70BD4C000020FD1C000830B5024694
:100CB000002300BF0846CD1701EB5565ED11A1EBF0
:100CC000C515ECB2CD1701EB5565E911002901DD21
:100CD00044F0800418465B1C14540029EADC1846D2
:100CE00030BD0000401C802801DA401C0AE0B0F54D
:100CF000804F01DA801C05E00349884201DAC01CFC
:100D000000E0001D70470000FFFF1F002DE9FC41BF
:100D100004460F4615464FF0FF380020019000268C
:100D2000009001212046A847012800D026E0012696
:100D300069462846FFF77FFF601C0099FFF7B6FF62
:100D4000064400983044B84200DD17E0009830B106
:100D5000A0190099A8470099884200D00EE0207899
:100D60008DF804000198C0F3031840F202210548F1
:100D7000FFF7E8FB00200449086000BF4046BDE8DB
:100D8000FC8100008C120020540000202DE9FC475B
:100D900004460E4615461F46DDF8288000200190C7
:100DA00081460094042E02DA6FF0010924E00198D4
:100DB00065F307100190019867F3C3000190062DB9
:100DC00001D1012100E00021019861F3420001906E
:100DD0009DF80410684601F027FE02210098FFF7F5
:100DE00065FF0099084400904146684601F022FEE4
:100DF0000098A0EB040900BF4846BDE8FC8700004E
:100E00002DE9FE4305460E4614460295002001904A
:100E1000009000274FF0FF38204600F0A5F8074665
:100E20008146FFF75FFFB04202DD6FF001088FE0FF
:100E300000208DF80400019820F0F000103001909F
:100E40009DF8041002A801F0EFFD39460298FFF763
:100E50002DFF029908440290207A042808D13EA16F
:100E600002A801F0CDFD042102A801F0DDFD07E09C
:100E70003BA102A801F0C4FD032102A801F0D4FDAA
:100E800000208DF80000A17E009861F341000090E1
:100E9000E07E08B1012100E00021009861F38200AA
:100EA00000900098C0F3800058B194F83D1000986D
:100EB00061F3C400009094F83C10009861F3451071
:100EC0000090206C08B9A06C20B1009820F0800040
:100ED00080300090E06C08B9606D20B1009820F07F
:100EE0004000403000909DF8001002A801F09CFDE9
:100EF000218B02A801F09EFD02A8D4E90423E16839
:100F000001F0B0FDE07E58B102A8D4E90A23616A7D
:100F100001F0A8FD02A8D4E90D23216B01F0A2FD88
:100F20000098C0F3C01028B102A8D4E91123216CA5
:100F300001F098FD0098C0F3801028B102A8D4E910
:100F40001423E16C01F08EFD0298A0EB050800BFB0
:100F50004046BDE8FE8300004D515454000000009F
:100F60004D5149736470000070B504460025207A25
:100F7000032801D10C2503E0207A042800D10A259A
:100F8000D4E90412E06800F0CFF8801C0544E07E4C
:100F900068B1D4E90A12606A00F0C6F8861CD4E988
:100FA0000D12206B00F0C0F83044801C0544206C0A
:100FB00008B9A06C30B1D4E91112206C00F0B4F87B
:100FC000801C0544E06C08B9606D30B1D4E914129E
:100FD000E06C00F0A9F8801C0544284670BD70B58F
:100FE00004460D460C222946204600F077F870BDD5
:100FF0002DE9F04F87B005460F4690461C46DDE9C7
:1010000015B6DDE9109A069500200590049003902E
:101010000096204612A90EC900F042F804900290F2
:10102000FFF760FEB84203DD6FF00100039033E08C
:10103000059820F0F00030300590059868F3C30063
:101040000590059864F342000590059869F3000047
:1010500005909DF8141006A801F0E6FC0499069886
:10106000FFF724FE06990844069006A812A90EC9A7
:1010700001F0F8FC002C03DD514606A801F0DAFC73
:10108000324659460698FFF7E6F90698304406902E
:101090000698401B039000BF039807B0BDE8F08F8F
:1010A0007FB50546089E002401A807C800F03CF85B
:1010B000801C30440444002D00DDA41C204604B0F4
:1010C00070BDF8B506460F4614461D462346062257
:1010D000394630460095FFF759FEF8BD2DE9FC4131
:1010E00004460D46164600200190471E0094022D2E
:1010F00001DA871E15E000208DF80400019866F3E0
:10110000071001909DF80410684601F08DFC002145
:101110000098FFF7CBFD0099084400900098071B4A
:1011200000BF3846BDE8FC8137B50024009820B1E7
:101130000098FFF771F9044600E0019C20463EBD8F
:1011400000BFFEE77047000070B5002100230F22AA
:10115000C47804B3154C246804F4E064C4F5E06476
:10116000210AC1F10403CA40447804FA03F18478E7
:101170001440214309010E4C0678A155047804F06F
:101180001F050124AC4005786D11AD0005F1E02587
:10119000C5F8004109E0047804F01F050124AC40C3
:1011A000044D0678761145F8264070BD0CED00E040
:1011B00000E400E080E100E002490143024A1160DE
:1011C000704700000000FA050CED00E070470000D9
:1011D00001460020034A506820F440400843506014
:1011E000704700000010024029B1064AD26902434C
:1011F000044BDA6104E0034AD2698243014BDA61AD
:10120000704700000010024029B1064A12690243EB
:10121000044B1A6104E0034A12698243014B1A61CC
:10122000704700000010024029B1064A926902434B
:10123000044B9A6104E0034A92698243014B9A612C
:10124000704700000010024029B1064AD2680243EC
:10125000044BDA6004E0034AD2688243014BDA604F
:10126000704700000010024030B500210022002429
:1012700000232D4D6D6805F00C0121B1042905D026
:10128000082923D105E0294D056022E0284D05609D
:101290001FE0254D6D6805F47012234D6D6805F44F
:1012A0008034022505EB92421CB9224D554305605E
:1012B0000BE01D4D6D6805F400351DB11E4D554305
:1012C000056002E01A4D5543056002E0174D0560C8
:1012D00000BF00BF144D6D6805F0F0010909174DFE
:1012E0006B5C0568DD4045600F4D6D6805F4E0619D
:1012F000090A124D6B5C4568DD4085600A4D6D68DA
:1013000005F46051C90A0D4D6B5C4568DD40C56050
:10131000054D6D6805F44041890B094D6B5CC5684E
:10132000B5FBF3F5056130BD0010024000127A00F4
:10133000001BB70000093D00808D5B0038000020D5
:1013400048000020704710B500F002F810BD000002
:101350000CB50020019000903348006840F48030C4
:101360003149086000BF3048006800F40030009048
:101370000198401C0190009818B90198B0F5A06F31
:10138000F1D12948006800F4003010B1012000902C
:1013900001E0002000900098012843D12348006814
:1013A00040F01000214908600846006820F0030062
:1013B00008600846006840F0020008601A4840686B
:1013C000194948600846406848600846406840F44B
:1013D000806048600846406820F47C1048600846F9
:1013E000406840F4881048600846006840F080700B
:1013F000086000BF0C48006800F000700028F9D0B9
:101400000948406820F003000749486008464068E2
:1014100040F00200486000BF0348406800F00C0044
:101420000828F9D10CBD0000001002400020024045
:101430007047000010B51348006840F001001149E2
:10144000086008464068104908400E494860084650
:1014500000680E4908400B4908600846006820F4FF
:10146000802008600846406820F4FE0048604FF481
:101470001F008860FFF767FF4FF0006004490860B5
:1014800010BD0000001002400000FFF8FFFFF6FE54
:1014900008ED00E010B500240121880700F026F9CE
:1014A000012818D10121800700F01DF80A480068C2
:1014B00020B109480068401E07490860002408E080
:1014C000064850F82400401C044941F82400601CE0
:1014D00084B2142CF4DB10BD28000020340A002054
:1014E000CA4302827047CA430282704721B1028810
:1014F00042F00102028004E002884FF6FE731A40B7
:101500000280704710B504466848844208D1012122
:10151000C014FFF799FE0021E014FFF795FEC4E028
:10152000B4F1804F08D101210846FFF76DFE00217C
:101530000120FFF769FEB8E05D48844208D101212F
:101540000220FFF761FE00210220FFF75DFEACE004
:101550005848844208D101210420FFF755FE00219C
:101560000420FFF751FEA0E05348844208D1012136
:101570000820FFF749FE00210820FFF745FE94E010
:101580004E48844208D101211020FFF73DFE002182
:101590001020FFF739FE88E04948844208D1012134
:1015A0002020FFF731FE00212020FFF72DFE7CE0F8
:1015B0004448844208D101214014FFF745FE002130
:1015C0006014FFF741FE70E03F48844209D10121D9
:1015D000C804FFF739FE00214FF40020FFF734FE66
:1015E00063E03A48844209D101210805FFF72CFE47
:1015F00000214FF48010FFF727FE56E03448844264
:1016000009D101214805FFF71FFE00214FF400100A
:10161000FFF71AFE49E02F48844208D101214020FB
:10162000FFF7F2FD00214020FFF7EEFD3DE02A48E4
:10163000844208D101218020FFF7E6FD00218020AF
:10164000FFF7E2FD31E02548844208D101218015F1
:10165000FFF7DAFD0021A015FFF7D6FD25E02048B1
:10166000844209D101210804FFF7EEFD00214FF467
:101670008030FFF7E9FD18E01A48844209D10121C2
:101680004804FFF7E1FD00214FF40030FFF7DCFDD7
:101690000BE01548844208D101218804FFF7D4FDEE
:1016A00000214FF48020FFF7CFFD10BD002C01403A
:1016B0000004004000080040000C00400010004002
:1016C0000014004000340140004C01400050014033
:1016D0000054014000180040001C00400020004061
:1016E00000400140004401400048014030B502463E
:1016F000002000230024158A05EA0103958905EAE4
:10170000010413B10CB1012000E0002030BD1AB17A
:1017100083890B43838102E083898B4383817047F4
:1017200081847047002202881D4B98420ED01D4BC9
:1017300098420BD0B0F1804F08D01B4B984205D097
:101740001A4B984202D01A4B984204D14FF68F732D
:101750001A404B881A43174B984207D0164B9842B1
:1017600004D04FF6FF431A40CB881A4302808B887F
:1017700083850B8803850A4B98420BD0094B98420E
:1017800008D00E4B984205D00D4B984202D00D4B1D
:10179000984201D10B7A03860123838270470000AF
:1017A000002C0140003401400004004000080040CB
:1017B000000C0040001000400014004000400140B8
:1017C000004401400048014010B5002440F225517A
:1017D0000E4800F0B9F860B140F225510B4800F016
:1017E0008BF80021102000F05FFF084800F0F2F9AC
:1017F000C4B240F22771054800F0A6F828B10022D3
:1018000040F22771014800F0C9F810BD004C0040BB
:1018100010B5002440F22551184800F095F8F8B1B1
:1018200040F22551154800F067F8144800F0D2F94D
:10183000C4B200210D2000F037FF11480088B0F538
:10184000007F08DA0E4801880088401C0C4A10808E
:10185000901C445404E040F202210948FEF772FE55
:1018600040F22771054800F06FF828B1002240F2DD
:101870002771024800F092F810BD000000380140C6
:10188000860C002010B5002440F22551184800F0C5
:101890005BF8F8B140F22551154800F02DF8002111
:1018A0000E2000F001FF124800F094F9C4B2114874
:1018B0000088B0F5007F08DA0E4801880088401CD7
:1018C0000C4A1080901C445404E040F20221094864
:1018D000FEF738FE40F22771054800F035F828B1D0
:1018E000002240F22771024800F058F810BD0000B5
:1018F00000440040880E002010B50022002340F66E
:101900006A14A14200D100BF0A1201249440A3B27C
:10191000DC43048010BD21B1828942F400528281EF
:1019200004E082894DF6FF731A40828170470246B7
:101930000020B1F5007F00D100BF13880B400BB130
:10194000012000E00020704770B50246002400230B
:101950000025002040F66A16B14200D100BFC1F355
:10196000421501F01F03012606FA03F3012D02D1EF
:101970009689334006E0022D02D1168A334001E0F9
:10198000968A33400C12012606FA04F41688344075
:1019900013B10CB1012000E0002070BDF0B503468A
:1019A000002400260025002040F66A17B94200D125
:1019B00000BF1846C1F3421401F01F06012707FAC1
:1019C00006F5012C01D10C3004E0022C01D11030BD
:1019D00000E014301AB107682F43076002E007687F
:1019E000AF430760F0BD00002DE9F04786B0054623
:1019F0000E460024A24600BFA1460027B08900B1D0
:101A000000BF2F462C8A4CF6FF700440F088044338
:101A10002C82AC894EF6F3100440B088318908431B
:101A2000718908430443AC81AC8A4FF6FF400440FF
:101A3000B0890443AC8201A8FFF716FC1F48874217
:101A400002D1DDF810A001E0DDF80CA0A88900F4B7
:101A5000004040B10AEBCA0000EB0A1031684900AF
:101A6000B0FBF1F807E00AEBCA0000EB0A1031689E
:101A70008900B0FBF1F86420B8FBF0F00401200904
:101A8000642101FB1089A88900F4004040B1322094
:101A900000EBC900B0FBF1F000F00700044308E0E0
:101AA000322000EB09106421B0FBF1F000F00F00D0
:101AB00004432C8106B0BDE8F087000000380140E7
:101AC0000FB470B58AB0064610A801904021304688
:101AD000FFF72DFF73E00F9800785C281CD10F985A
:101AE000401C0F9000786E2809D072280FD10D216C
:101AF000304600F074F80F98401C0F900BE00A215C
:101B0000304600F06CF80F98401C0F9003E00F98DF
:101B1000401C0F9000BF4BE00F980078252840D163
:101B20000F98401C0F900078642818D0732833D188
:101B3000019810C801900BE02178304600F04FF872
:101B400000BF40213046FFF7F2FE0028F9D0641CA8
:101B500020780028F0D10F98401C0F9020E00198C9
:101B600020C801902A461AA102A8FEF75DFB02AC2C
:101B70000BE02178304600F032F800BF40213046BB
:101B8000FFF7D5FE0028F9D0641C20780028F0D19A
:101B90000F98401C0F9003E00F98401C0F9000BF5F
:101BA00006E00F9810F8011B0F90304600F017F870
:101BB00000BF40213046FFF7BAFE0028F9D00F9849
:101BC0000078002887D10AB070BC5DF814FB0000D3
:101BD0002564000001468888C0F308007047C1F3FF
:101BE00008028280704700BFFEE730380A2801D221
:101BF000012070470020704710B500F065F800F034
:101C000014F800F08FF80123002208214FF4E1308E
:101C100000F0C2FD4FF4E13000F0FAFD2921C820A8
:101C200000F010FDFEF7F2FE10BD08B54FF4E060C5
:101C3000FFF7C2FA1C208DF8000000208DF801008B
:101C400002208DF8020001208DF803006846FFF79E
:101C50007BFA1D208DF8000000208DF80100032084
:101C60008DF8020001208DF803006846FFF76CFA3A
:101C700025208DF8000001208DF801008DF802006C
:101C80008DF803006846FFF75FFA26208DF8000004
:101C900001208DF8010002208DF8020001208DF84E
:101CA00003006846FFF750FA27208DF80000012056
:101CB0008DF8010003208DF8020001208DF803004B
:101CC0006846FFF741FA08BD10B501210846FFF745
:101CD0008BFA01214804FFF787FA01210420FFF75E
:101CE000A3FA01210820FFF79FFA01211020FFF736
:101CF0009BFA01218803FFF797FA10BD10B5024641
:101D0000002309E006480068007810700448006865
:101D1000401C034C20605B1C8B42F3DB084610BD6B
:101D20004C00002008B54FF40070ADF800001820FA
:101D30008DF8030003208DF8020069464148FEF744
:101D4000AEFE4FF48060ADF8000004208DF8030073
:101D500003208DF8020069463A48FEF7A0FE0420F1
:101D6000ADF8000018208DF8030003208DF8020064
:101D700069463448FEF793FE0820ADF800000420C1
:101D80008DF8030003208DF8020069462D48FEF708
:101D900086FE0120ADF8000003208DF8020010201F
:101DA0008DF8030069462848FEF779FE0220ADF859
:101DB000000003208DF8020014208DF8030069460E
:101DC0002148FEF76CFE4020ADF8000048208DF859
:101DD000030069461D48FEF762FE3020ADF80000A2
:101DE00003208DF8020048208DF80300694615484D
:101DF000FEF755FE0320ADF800008DF8020010201C
:101E00008DF8030069461148FEF749FE0420ADF83D
:101E1000000003208DF8020010208DF803006946B1
:101E20000A48FEF73CFE1020ADF8000003208DF8B4
:101E3000020010208DF8030069460448FEF72FFECB
:101E400008BD000000080140000C014000100140E6
:101E500070B504460D46002629462046FEF7CAFA0C
:101E60000646304670BD000070B5002536E19D483D
:101E7000007806286FD005DC6ED2DFE800F010197C
:101E800039597E9E092868D004DC072873D00828B9
:101E900062D1EDE00A286FD0FF28F9D116E100F0F9
:101EA0007BF901208F49087000208F4908700FE1ED
:101EB00042F210734FF496728CA18DA000F080F95D
:101EC000044644B187480078401C864908700020C9
:101ED000854908700BE084480078401C82490870EE
:101EE00008460078052802DD00207E490870EFE0F2
:101EF00042F210734FF4FA727CA17FA000F060F9F7
:101F0000044644B177480078401C764908700020A8
:101F1000754908700BE074480078401C72490870DD
:101F200008460078052802DD00206E490870CFE0E1
:101F300042F210734FF4FA726CA171A000F040F9F4
:101F400004465CB167480078401C66490870002070
:101F5000654908700EE04BE0B9E0A9E062480078FE
:101F6000401C6149087008460078052802DD002001
:101F70005C490870ACE05BE0A7E042F210734FF4FC
:101F8000FA725AA161A000F01BF9044644B1554809
:101F90000078401C534908700020534908700BE03A
:101FA00051480078401C50490870084600780528C0
:101FB00002DD00204B4908708AE042F210734FF4B2
:101FC000FA724AA154A000F0FBF8044644B1454817
:101FD0000078401C4349087000204349087006E01F
:101FE00041480078052802DD00203E4908706FE076
:101FF00042F210734FF4FA723CA14AA000F0E0F8EC
:10200000044644B137480078401C36490870002027
:10201000354908700BE034480078401C324908709C
:1020200008460078052802DD00202E4908704FE0A0
:1020300042F210734FF448723DA13FA000F0C0F887
:10204000044644B127480078401C26490870002007
:10205000254908700BE024480078401C224908708C
:1020600008460078052802DD00201E4908702FE090
:1020700044F620634FF47A7233A136A000F0A0F842
:10208000044644B117480078401C164908700020E7
:10209000154908700BE014480078401C124908707C
:1020A00008460078052802DD00200E4908700FE080
:1020B00000F056F90546012D06D1FF2009490870A8
:1020C0002FA13448FFF7FCFC02E001E000E000BF74
:1020D00000BF04480078FF2800D100E0C7E600BF39
:1020E00070BD000031000020300000204F4B000088
:1020F00041540D0A00000000415445310D0A000012
:1021000041542B4347534E0D0A00000041542B43CA
:1021100050494E3F0D0A000041542B4353510D0AC4
:102120000000000041542B435245473F0D0A000078
:102130004552524F5200000041542B434950434CEA
:102140004F53450D0A000000434F4E4E4543542067
:102150004F4B000041542B43495053544152543D7E
:1021600022544350222C223131382E33312E36392D
:102170002E313438222C313838330D0A000000005B
:102180006D7174745F636F6E6E656374206F6B0D39
:102190000A0000000038014010B504210748FEF78E
:1021A0000BFD0A2000F076FA04210448FEF702FD38
:1021B0004FF4966000F06EFA10BD00000010014070
:1021C0002DE9F041ADF5007D04460F4615461E464B
:1021D0004FF001080021122000F066FA3DE040F2C5
:1021E00002212048FEF7AEF900201F490870214661
:1021F0001E48FFF765FC284600F04CFA01201A49FA
:1022000008701849891C1A48FFF75AFC39461548C6
:10221000801CFFF71DFEA8B14FF0000800201249F6
:1022200008704FF400720F49891C6846FEF713F9D5
:1022300040F202210B48FEF785F968460DF5007D56
:10224000BDE8F0813146122000F02EFA28B94FF097
:102250000008002004490870F0E7B8F1000FBED173
:1022600000BFEBE7880E00202D0000200044004056
:102270000038014008B500BF00BF00BF002400BF08
:1022800000BFFFF7B9FC1FA12248FFF719FC37E098
:10229000FFF7EAFD00F0A6FA00F0DAFA1E49032083
:1022A00000F002FA70B901200223002211460090CA
:1022B0001AA000F01DF90446012C03D119A11548FC
:1022C000FFF7FEFB4EF66021022000F0EDF908B9A1
:1022D00000F0BEF818A11A48FEF78CF819490860FA
:1022E0000846006860B140F202211548801EFEF7E2
:1022F00029F900201449087014A10648FFF7E0FBF3
:10230000C6E700007561727431206973206F6B0D30
:102310000A00000000380140C0270900746573748A
:10232000000000006D7174745F7075626C69737485
:10233000206F6B0D0A000000434C4F534500000016
:102340008E1200200C000020310000204D5154540A
:102350002053455256455220434C4F53450D0A00D9
:102360002DE9F041CAB0002458222C4934A8FEF7C8
:10237000B7F8A0460026C825002729A037903C20A2
:10238000ADF8E80001208DF8EA0034AA294602A839
:10239000FEF736FD07463A4602A9304600F0B4F98A
:1023A00080460021012000F07FF92FE000F050FA74
:1023B0004FF4FA61012000F077F958B934AA2946A0
:1023C00002A8FEF71DFD07463A4602A9304600F076
:1023D0009BF98046134A294602A8FEF797FC02287B
:1023E00014D12B4602AA694601A8FEF7E9FB012891
:1023F00002D19DF8000030B19DF800200AA11348D9
:10240000FFF75EFB01E0012402E000BF002CCDD00D
:1024100000BF20464AB0BDE8F0810000282B00082C
:102420006D653100CD260008556E61626C652074C3
:102430006F20636F6E6E6563742C207265747572A5
:102440006E20636F64652025640A00000038014037
:102450002DE9F04186B000240025002600274FF02A
:102460001408414601A8FEF7BAFD07463A4601A9FD
:10247000304600F049F905460021042000F014F927
:1024800020E000F0E5F94FF4FA61042000F00CF9C7
:1024900050B9414601A8FEF7A2FD07463A4601A9F8
:1024A000304600F031F90546094A414601A8FEF7D9
:1024B0002DFC05460D2D05D101AA06A10B48FFF7FD
:1024C000FFFA0124002CDCD0204606B0BDE8F081E4
:1024D000CD2600086D7174745F6B6565705F616C0B
:1024E000697665206F6B0D0A00000000003801401E
:1024F0002DE9F04FBFB004460D4616469946489F59
:102500004FF0000800203E9082464FF0C80B0B9021
:10251000089009900A90032007904BE000F098F98A
:102520000798032806D005281ED0062826D007289D
:102530003ED133E00894CDE9055608A807C802ABA0
:1025400007C300204B4602465946CDE900070CA8B8
:10255000FEF74EFD824652460CA90B9800F0D4F8C7
:102560003E900520079024E0164A59460CA8FEF735
:10257000CDFB052801D1062007901AE03B4600223A
:1025800059460CA8FEF79DFD824652460CA90B98B1
:1025900000F0BAF83E90072007900AE0094A594631
:1025A0000CA8FEF7B3FB072801D14FF0010800E0AB
:1025B00000BF00BFB8F1000FB0D040463FB0BDE84B
:1025C000F08F0000CD26000801460A6810780A68DE
:1025D000521C0A6070472DE9FF5F074688461D467A
:1025E0000024A146BA46A346002641465046FDF7C0
:1025F00001FF044614B1BAF1000F03D1002004B06A
:10260000BDE8F09F4FF0000B02E0641C0BF1010BE2
:102610004046FDF701FF5845F7D820460299FDF7DF
:10262000E9FE8146B9F1000F01D10020E7E703E0A0
:1026300014F8010BA855761C4C45F9D10020A8557B
:102640002846DCE7FEB504460D464FF47A76F006E0
:10265000FEF758FF0020ADF80200ADF80600ADF817
:102660000440ADF800506946F006FFF75BF8012121
:102670008807FEF735FF0021F006FFF751F8012229
:1026800011469007FFF743F801218807FEF72EFF58
:10269000FEBD00000349086000BF02490968002927
:1026A000FBD170472800002010B5024600230648E1
:1026B00050F82200884204D30020034C44F8220042
:1026C00000E00123D8B210BD340A002070B50546E1
:1026D0000C460B48008800280FDD0948801C094A79
:1026E0001268811822462846FDF7B5FE05480068A5
:1026F000204404490860204670BD00BFFCE700008C
:102700008C120020540000202DE9F04389B081464E
:102710000D4614460026B046202101A8FDF734FFDF
:1027200064211348FDF70EFF40F202211148FDF726
:1027300009FF002010490860224610A101A8FDF7FA
:1027400073FD6423142212A101A8FFF739FD074687
:102750004FB1224629460648FDF77DFEA2B2044944
:102760000C4800F0C1F8E61C304609B0BDE8F08323
:10277000BC0500208C1200205400002041542B4343
:10278000495053454E443D25642C310D0A0000004C
:102790003E000000004400402DE9FF4107460C4682
:1027A00015461E460097ADF80440ADF80660ADF83A
:1027B00008500020ADF80C000C20ADF80A00694666
:1027C0000748FFF711F9012240F225510448FFF7AD
:1027D000E5F801210248FFF79EF8BDE8FF810000FF
:1027E0000038014010B514210D20FFF75DFF50B9EE
:1027F00005480288811C054800F076F840F2022165
:102800000148FDF79FFE10BD860C002000380140F6
:102810001FB5044600940020ADF80400ADF8060092
:10282000ADF80800ADF80C000C20ADF80A006946C0
:102830000648FFF7D9F8012240F225510348FFF777
:10284000ADF801210148FFF766F81FBD00440040C4
:10285000F0B585B000240026002714216846FDF756
:1028600093FE002514210E20FFF71EFF00282BD118
:1028700016A11848FDF7BEFD0446FCB16B4616A232
:1028800016A12046FFF7A7FE06461EB16846FDF7D3
:10289000A4FD054610A10F48FDF7ACFD07462A46EA
:1028A000791C0F48FDF7D7FD0D49891E0D80094899
:1028B000801E0288811C0B4800F016F840F20221AD
:1028C0000448801EFDF73EFE05B0F0BD2B49504484
:1028D000000000008A0E00203A0000002C000000DA
:1028E0008E120020003801400FB4F0B589B00746C1
:1028F000154610A8009040213846FFF718F873E0FD
:102900000F9800785C281CD10F98401C0F9000781D
:102910006E2809D072280FD10D213846FFF75FF9D4
:102920000F98401C0F900BE00A213846FFF757F92B
:102930000F98401C0F9003E00F98401C0F9000BFB1
:102940004BE00F980078252840D10F98401C0F903D
:102950000078642818D0732833D1009810C80090EC
:102960000BE021783846FFF73AF900BF402138469E
:10297000FEF7DDFF0028F9D0641C20780028F0D194
:102980000F98401C0F9020E0009840C800903246FD
:102990001AA101A8FDF748FC01AC0BE021783846EC
:1029A000FFF71DF900BF40213846FEF7C0FF0028A1
:1029B000F9D0641C20780028F0D10F98401C0F90AB
:1029C00003E00F98401C0F9000BF06E00F9810F82E
:1029D000011B0F903846FFF702F900BF402138462F
:1029E000FEF7A5FF0028F9D0281EA5F101018DB240
:1029F00086D109B0F0BC5DF814FB0000256400002E
:102A000070B504460E463046FDF706FD05462946DC
:102A1000204600F00FF82A4631462068FDF71BFDDE
:102A200020682844206070BD026811700268521C42
:102A30000260704710B50A46CB1701EB13631B0AFF
:102A4000046823700268521C02600A46CB1701EB2F
:102A500013631B12A1EB0323046823700268521C4A
:102A6000026010BD1FB50446029800280DDD204607
:102A70000299FFF7DFFFDDE902212068FDF7EBFC9B
:102A800020680299084420600AE0019820B120469D
:102A90000199FFF7B5FF03E000212046FFF7CAFFC9
:102AA0001FBD000010B500290AD00878002807D003
:102AB00005487844FDF7EAFE002801D0002010BD4B
:102AC0000248784410BD0000460100003E010000AD
:102AD0004D515443000000000400000000000000BD
:102AE00000000000000000003C0001004D51545760
:102AF00000000000000000000000000000000000D6
:102B000000000000000000000000000000000000C5
:102B100000000000000000000000000000000000B5
:102B200000000000000000004D5154430000000070
:102B30000400000000000000000000000000000091
:102B40003C0001004D5154570000000000000000FF
:102B50000000000000000000000000000000000075
:102B60000000000000000000000000000000000065
:102B70000000000000000000000000000000000055
:102B80004D5154430000000004000000000000000C
:102B900000000000000000003C0001004D515457AF
:102BA0000000000000000000000000000000000025
:102BB0000000000000000000000000000000000015
:102BC0000000000000000000000000000000000005
:102BD0000000000000000000082D00080000002098
:102BE000600000006C010008682D000860000020F3
:102BF000901A000088010008100100004300000046
:102C0000F8FFFFFF0040404040404040404041410D
:102C100041414140404040404040404040404040B1
:102C2000404040404005020202020202020202024B
:102C30000202020202202020202020202020200248
:102C400002020202020290909090909010101010D8
:102C50001010101010101010101010101010101074
:102C60000202020202028888888888880808080808
:102C700008080808080808080808080808080808D4
:102C800002020202400000000000000000000000FC
:102C90000000000000000000000000000000000034
:102CA0000000000000000000000000000000000024
:102CB0000000000000000000000000000000000014
:102CC0000000000000000000000000000000000004
:102CD00000000000000000000000000000000000F4
:102CE00000000000000000000000000000000000E4
:102CF00000000000000000000000000000000000D4
:102D000000000000000000000000000000000000C3
:102D100000000000000000000000000000000000B3
:102D2000000000000004000101000000000000009D
:102D30000000000000000000000000000000000192
:102D40000000000001020304010203040607080951
:102D5000020406080000000003000000000000005C
:082D600000000000000000006B
:0400000508000131BD
:00000001FF
