:020000040800F2
:10000000101D002001020008353C00081D220008D8
:1000100009380008291E0008C34700080000000036
:10002000000000000000000000000000353E000855
:10003000C11E000800000000BD3C0008953F0008FC
:100040001B0200081B0200081B0200081B0200081C
:100050001B0200081B0200081B0200081B0200080C
:100060001B0200081B0200081B0200081B020008FC
:100070001B0200081B0200081B0200081B020008EC
:100080001B0200081B0200081B0200081B020008DC
:100090001B0200081B0200081B0200081B020008CC
:1000A0001B0200081B0200081B0200081B020008BC
:1000B000F93F00081B0200081B0200081B02000891
:1000C0001B0200081B0200081B0200081B0200089C
:1000D0001B0200082D430008C54300084D440008DA
:1000E0001B0200081B0200081B0200081B0200087C
:1000F0001B0200081B0200081B0200081B0200086C
:100100001B0200081B0200081B0200081B0200085B
:100110001B0200081B0200081B0200081B0200084B
:100120001B0200081B0200081B0200081B0200083B
:1001300000F002F800F054F80AA090E8000C8244A5
:100140008344AAF10107DA4501D100F049F8AFF282
:10015000090EBAE80F0013F0010F18BFFB1A43F0A5
:1001600001031847986E0000B86E0000103A24BFD3
:1001700078C878C1FAD8520724BF30C830C144BF0C
:1001800004680C607047000000230024002500264E
:10019000103A28BF78C1FBD8520728BF30C148BFEA
:1001A0000B607047662906F05C85642900F00281C7
:1001B000632900F01C86732900F021860020704717
:1001C0001FB59DE8030000F04FFB00F053FE040054
:1001D0000020002105F09CFFE0601FBD10B510BDA0
:1001E00000F062FF1146FFF7EBFF05F05FF800F04B
:1001F00080FF03B4FFF7F2FF03BC00F0B1FF000083
:100200000948804709480047FEE7FEE7FEE7FEE7AA
:10021000FEE7FEE7FEE7FEE7FEE7FEE704480549E6
:10022000054A064B70470000993F0008310100085D
:1002300010170020101D0020101900201019002098
:1002400070B5064600F0F4FA056806F10B0020F0E0
:100250000704B4429CBF002070BD2B466A68BAB147
:100260001068A04210D304F1080188423CBF5068D6
:10027000586007D35168101941601168091B01606B
:1002800058601460101D70BD13465268002AE7D1F3
:100290002146284600F0D4FA0028DED170BD70B5A2
:1002A0000446051F00F0C4FA0068002C14BF44681F
:1002B00070BD002C18BFAC423CBF20466468F8D328
:1002C00001680A18AA4218BF456003D12A6805468A
:1002D0001144016028684119A1421CBF6C6070BDC7
:1002E0006168696021680844286070BD0FB41CB55E
:1002F000074B06AA7B4469460090059800F055FD1F
:100300000020694600F064FD1CBC5DF814FB000091
:10031000D90A000070B5044685690068C10601D598
:10032000302600E02026C00707D070BDD4E90121A7
:1003300030469047206A401C20626D1EF6D570BD85
:1003400070B5044685690078C00707D170BDD4E94F
:10035000012120209047206A401C20626D1EF6D5A6
:1003600070BD70B50C460546012A05D02878800678
:1003700000D5EA69002302E0012305E05B1C9342FB
:1003800002D2E05C0028F9D1A869E618C01AA86179
:10039000286A184428622846FFF7BCFF04E0D5E924
:1003A000012114F8010B9047B442F8D32846FFF717
:1003B000C7FF70BD2DE9F04106460024106875297D
:1003C000314616A510D0AFF30080002802DA404273
:1003D00013A507E031688A0701D512A502E0490795
:1003E00004D511A5012401E0AFF3008000210A2209
:1003F00006F1240709E0B0FBF2FCB0FBF2F302FBCC
:100400001C00303078541846491C0028F3D123468C
:100410002A463046BDE8F04100F05CBA000000001A
:100420002D0000002B000000200000002DE9F04707
:100430004FF0000A89460446C0F820A02046E16833
:100440008847002876D0252806D0D4E90121904796
:10045000206A401C2062F1E7E168204600258847B9
:10046000C4F81CA006460027C4F818A02A2E09D0FC
:10047000304604F0BCF938B304EB8708303EC8F8C6
:10048000186019E059F8041B204604EB87029161BB
:10049000E1688847012F064618D1E069002820DA74
:1004A00025F020051DE0D8F8180000EB800006EBD1
:1004B00040003038C8F818002046E16888470646F2
:1004C00004F095F90028EED1012F0AD02E2E08D184
:1004D0002046E16888477F1C0646022F45F020052C
:1004E000C4DBA069002803DA404245F00105A061A1
:1004F000E80701D025F01005B6B1A6F14100192892
:1005000002D8203645F400654A463146204625602B
:100510004D46FFF747FE58B1012806D0ED1D25F0E6
:10052000070000F1080989E704E005F1040985E7FF
:1005300030468AE7206ABDE8F08730B505460B46AD
:100540002A4613F8014B12F8010B08B1A042F8D06B
:100550001CB1002802D06D1CF1E7284630BD40EAEE
:100560000103024630B59B0710D14FF0013400E083
:1005700008C208C91D1B9D4315EAC41FF8D013F01B
:10058000FF0102F8011B0DD01B0AF8E711F8013B2F
:10059000002B02F8013B05D011F8013B002B02F8BB
:1005A000013BF3D130BD10B5431C02E010F8011B34
:1005B00071B18107FAD14FF0013202C88C1A8C4315
:1005C00014EAC211F9D0C01A0A0603D0C01E10BD29
:1005D000C01A10BD0A0401D0801E10BD0902FCD053
:1005E000401E10BD40EA010370B59B072ED14FF0AD
:1005F0000136042A2AD308C810C99D1B9D43121F27
:1006000015EAC61517D0D8B2E1B2401A50EA056112
:1006100010D198B2A1B2401A50EA05410AD123F094
:100620007F4024F07F41401A50EA052102D1180E84
:10063000A0EB146070BDA342DBD018BA21BA884287
:1006400001D9012070BD4FF0FF3070BD0AB9002004
:1006500070BD10F8013B11F8014B63B1A3420AD100
:10066000521E08D010F8013B11F8014B1BB1A342F8
:1006700001D1521EEDD1181B70BD032A40F230800B
:1006800010F0030C00F0158011F8013BBCF1020FD3
:10069000624498BF11F801CB00F8013B38BF11F854
:1006A000013BA2F1040298BF00F801CB38BF00F86B
:1006B000013B11F0030300F0A683083AC0F0088064
:1006C00051F8043B083A51F804CBA0E80810F5E7CC
:1006D000121D5CBF51F8043B40F8043BAFF30080AF
:1006E000D20724BF11F8013B11F801CB48BF11F824
:1006F000012B24BF00F8013B00F801CB48BF00F8F4
:10070000012B704702F0FF0343EA032242EA024250
:1007100000F002B84FF000020429C0F0128010F07F
:10072000030C00F01B80CCF1040CBCF1020F18BFCD
:1007300000F8012BA8BF20F8022BA1EB0C0100F060
:100740000DB85FEAC17C24BF00F8012B00F8012B33
:1007500048BF00F8012B70474FF0000200B5134668
:1007600094469646203922BFA0E80C50A0E80C50D1
:10077000B1F12001BFF4F7AF090728BFA0E80C5082
:1007800048BF0CC05DF804EB890028BF40F8042B7B
:1007900008BF704748BF20F8022B11F0804F18BFE8
:1007A00000F8012B704700004FF0013C50F8042B7B
:1007B00051F8043B9A4221D1A2EB0C03934313EA74
:1007C000CC1317D150F8042B51F8043B9A4215D1A1
:1007D000A2EB0C03934313EACC130BD150F8042B78
:1007E00051F8043B9A4209D1A2EB0C03934313EA5C
:1007F000CC13DBD04FF00000704700BFD01A01BA15
:10080000B1FA81F101F0180122FA01F0CB40C1F1F7
:100810002001DBB2C0B2C01A2CFA01F3D11A914305
:1008200011EAC311E6D17047704770477047000066
:1008300000487047B81600207047704770477047EF
:1008400038B504460A4600206946AFF30080002808
:1008500008BF38BD02460099204600F00FFB01207A
:1008600038BD012000F018BCF8B5AFF30080054694
:1008700000200C46102000BF0646A819A0420DD942
:10088000324669460020AFF30080070008BF00F041
:1008900003FC0098A04218BF0546C419FFF7C8FF23
:1008A00005600746F01D20F007004619284600F0B5
:1008B0000AF8B44208BFF8BDA21B31463868BDE84B
:1008C000F84000F0DBBA00210160C0E90110704778
:1008D000102070472DE9F0470D4699469246044690
:1008E00000F124080168880604D5E06921F01001B0
:1008F000216000E00120A84201DD471B00E0002745
:10090000A1697A1902EB0900081AA0612078C006D3
:1009100002D42046FFF7FEFC002608E0D4E90121BE
:100920001AF806009047206A401C761C20624E454B
:10093000F4DB2078C0060AD52046FFF7EBFC06E082
:10094000D4E9012130209047206A401C2062381EE3
:10095000A7F10107F4DC07E0D4E9012118F805004C
:100960009047206A401C2062281EA5F10105F3DC97
:100970002046FFF7E5FC2078000602D50220BDE8FE
:10098000F0870120FBE770472DE9FF4F0C461E461C
:100990004FF0FF378BB0D2E90001DDF860800A909C
:1009A0008A46C1F30A5505B93D46002108464FF075
:1009B0000000BAF1000F00F4400005DA00EB8000FF
:1009C0004FF4400101EA50004FEA9059B9F1010F8C
:1009D00000DDB9460A9850EA4A000ED044F610509D
:1009E000A5F2FF3545432F14B8F1000F1ED0754214
:1009F000291E1EDDC9F100021CE0B8F1010F4FF005
:100A0000000001D0302103E0F24305E02154401CF6
:100A1000B042FBDB30460022002121540B99C1F883
:100A20000880C1E900200FB0BDE8F08FBD1B6D1C30
:100A3000DEE74A4600DA694206A800F0BFFA06ABD4
:100A400093E8070003AB83E8070050460A9900F0DB
:100A5000ADFB8DE80700A0F500501F38009003980B
:100A6000002D09DD42F21F014A46084403A9039004
:100A7000684600F00CFE08E0A0F500504A461F381A
:100A800003A90390684600F016FE8DE807000004F5
:100A9000000C03D04FF0FF30410800E01046B8F1E1
:100AA000000F03D00022009215461EE0751E05D4EB
:100AB00000F0FEF9303262556D1EF9D5B3460122C1
:100AC000084302D000227F1C04E02078302801D1A6
:100AD00000227F1E002A099786D01DE0112D07DA1B
:100AE00000F0E6F9303262556D1C50EA0102F5D192
:100AF000084302D00098C8B10EE00021681E05E04E
:100B0000235C625C63542254401E491C8142F7DB23
:100B1000AB46A81B401E0990002004F80B000B9860
:100B2000099AC0F80880C0E9002B7CE711264FF035
:100B3000000859E72DE9F04F88460446D21D22F0FF
:100B4000070191B0D1E90001CDE90A0103F03BFEB4
:100B500002460B98C00F01D02D2007E020688107C6
:100B600001D52B2002E0202101EAC000032A0990D0
:100B700001D0072A05DB03464146204600F0DEF996
:100B80000BE12078800601D5E06900E00620B8F18D
:100B9000650F814606D0B8F1660F18D0B8F1670F1F
:100BA00070D131E00020B9F1110F009001DB112369
:100BB00001E009F101030AAA01A90CA8FFF7E4FE6C
:100BC000DDE90C70002609F10105834647E00120AC
:100BD0004B4600904FF000470AAA01A90CA8FFF766
:100BE000D3FEDDE90DB00C995D46002610B909F180
:100BF00001000D18B9EB050003D4C0F1FF3609F16F
:100C00000105A5EB09002BE0B9F1010F01DA4FF066
:100C100001090020B9F1110F0090484601DD1123B0
:100C200000E003460AAA01A90CA8FFF7ADFEDDE922
:100C30000C704D4600268346207800070AD4AB4549
:100C400000DA5D4601A8012D04DD411911F8011CEF
:100C5000302907D04F4502DA17F1040F04DA0120DA
:100C600082460FE06D1EEEE7002F02DCED1B3E44D6
:100C700003E0781CA84200DD7D1CB81B00F1010ACE
:100C80004FF000472078000703D4AA4501DB4FF05E
:100C9000FF3A0021B7F1004F0DF143088DF84310E2
:100CA00024D002202B23002F01DA7F422D230A219A
:100CB000021EA0F1010000DC5FB197FBF1FC97FB85
:100CC000F1F201FB1C7C17460CF1300C08F801CD49
:100CD000EEE7A8F1010003702188090501D545213F
:100CE00000E06521A0F1010800F8011C09980FA996
:100CF000A1EB0807FF1D00B10120411901EBEA70CB
:100D0000A1693844081A401EA0612078C00602D4A8
:100D10002046FFF7FFFA099828B1D4E9012190474E
:100D2000206A401C20622078C00622D52046FFF7AA
:100D3000F1FA1EE0002E04DBB34502DD01A8805D60
:100D400000E03020D4E901219047206A401C206255
:100D5000761CAAF101005FEA000A0AD100F08AF8C5
:100D6000C0680168405CD4E901219047206A401CBA
:100D70002062281EA5F10105DCDC07E0D4E9012191
:100D800018F8010B9047206A401C2062381EA7F11A
:100D90000107F3DC2046FFF7D3FA032011B043E646
:100DA00001694A1C02610878704700B58FB0CDE92F
:100DB00001310021059105497944CDE9031011461F
:100DC0006846FFF733FB0FB000BD0000E5FFFFFFF3
:100DD0000A6802F8010B0A60704710B5436913B145
:100DE000AFF3008001E0FFF7BCFA012010BD1278DC
:100DF00000F124010A7000224A700122EDE7116817
:100E00004FF0FF32E9E710B5203AC0F00B80B1E8AF
:100E10001850203AA0E81850B1E81850A0E818502F
:100E2000BFF4F5AF5FEA027C24BFB1E81850A0E838
:100E3000185044BF18C918C0BDE810405FEA827C52
:100E400024BF51F8043B40F8043B08BF7047D20769
:100E500028BF31F8023B48BF11F8012B28BF20F80A
:100E6000023B48BF00F8012B704700000048704764
:100E7000B016002000487047D01600200346406896
:100E80008C46002818BF88423CBF03464068F8D310
:100E900018681844884207D00CF1030020F00700BE
:100EA000001D411A521A0146081D0A60FFF7F7B9E2
:100EB00030B5B0F10A024FEA900E71F100034EEA2C
:100EC000817EB0EB0E0061EB91014FEA101E4EEAFD
:100ED000017E10EB0E0041EB11114FEA102E4EEA8D
:100EE000016E10EB0E0041EB11214FEA104E4EEA5D
:100EF000014E10EB0E0041EB1141401841F1000191
:100F00004FEAD00040EA41704FEAD10110EB800572
:100F10004FEA810444EA907444EB01046D1944EBF8
:100F20000404521BA3414FF0000348BF0A3200D50E
:100F300030BD401C41F1000130BD00002DE9F04101
:100F40001F46044603260168072A01F4006004DBFB
:100F500008B116A505E016A503E008B115A500E047
:100F600015A521F010002060A069C01EA0610FB17E
:100F7000401EA0612046FFF7CDF94FB1D4E9012111
:100F800038469047206A401C2062C01C206206E060
:100F9000206AFAE7D4E9012115F8010B9047761E83
:100FA000F8D22046FFF7CCF9BDE8F0814E414E0063
:100FB0006E616E00494E4600696E66002DE9F0478D
:100FC000814616468AB0334878440DC88DE80D0036
:100FD00030487844801C03AC0DC884E80D0041F60D
:100FE0009B300844372190FBF1F290FBF1F5A5F11D
:100FF000800501FB12041B3C02D56442012000E085
:101000000020DFF890A080460027FA44AAF1BE0A2B
:101010000DE0E00709D03246684607EB47010AEBCE
:10102000810100F048FB8DE8070064107F1C002C54
:10103000EFD1184F7F44AC3F18E0E80714D007EB1E
:1010400004100DF1180A90E80E008AE80E00C0683E
:10105000F04201D198190890324606A903A800F081
:101060002AFB03AB83E807006D10641C002DE4D15C
:1010700032466946B8F1000F03A802D000F007FB22
:1010800001E000F018FBC9E90001C9F808200AB026
:10109000BDE8F0871860000010B500F039F8BDE831
:1010A000104000F02FB870477546FFF7DFFEAE46E0
:1010B00005006946534620F00700854618B020B564
:1010C000FFF7ACF8BDE820404FF000064FF00007F6
:1010D0004FF000084FF0000B21F00701AC46ACE8E0
:1010E000C009ACE8C009ACE8C009ACE8C0098D464D
:1010F000704710B50446AFF300802046BDE81040AD
:10110000FFF777B8002801D000F02AB87047000038
:1011100010B5012805D0002103A000F027F8012018
:1011200010BD09A1F8E7000053494752544D454D01
:101130003A204F7574206F662068656170206D6578
:101140006D6F7279000000003A2048656170206D73
:10115000656D6F727920636F72727570746564006B
:1011600001491820ABBEFEE72600020070B5054617
:101170000C460A2000E06D1C00F011F835B128780B
:101180000028F8D102E0641C00F009F814B12078BE
:101190000028F8D1BDE870400A20AFF3008008B500
:1011A00069468DF800000320ABBE08BD5FEA400C25
:1011B00008BF91F0000F4FEA8C234FEAC12243EAA7
:1011C00051514FEA1C5018BF00F5F0404FEA300073
:1011D00018BF41F000415FEA6C5C00F02980BCF16F
:1011E000FF3F08BF40F080407047130C06BF120459
:1011F0004FF0100C4FF0000C130E04BF12020CF154
:10120000080C130F04BF12010CF1040C930F04BF60
:1012100092000CF1020CD30F04BF52000CF1010C30
:1012200011464FF00002A0F11F00A0EB0C00704728
:1012300011F0004F08BF704731F000413FF4D5AFC7
:101240000B0C06BF09044FF0100C4FF0000C0B0EF6
:1012500004BF09020CF1080C0B0F04BF09010CF1CB
:10126000040C8B0F04BF89000CF1020CCB0F04BFE0
:1012700049000CF1010CCCF12003A0EB0C0022FA88
:1012800003F302FA0CF241EA030100F10100704796
:1012900020F07F4C80EA030023F07F47ACEB07038C
:1012A00003F57C5300F0004003F1FF032DE9804972
:1012B0004FEA154B09B44FEA144325EA0B4E24EAD2
:1012C00003480FF2042606EB132749083E785FEA2D
:1012D000320203FB0667C7F5000707FB06F64FEA75
:1012E00054374FEAD64606F1020607FB066CCCF1EE
:1012F000005C4FEA1C472CEA074C07FB06F40CFB8A
:1013000006F504EB15464FEA961634BF00204FF061
:1013100000404FEAD13706FB07FC4FEA1C4C0CFBA0
:101320000BF7D21B03FB0CF761EB07010CFB0EF76D
:10133000B0EB074072EB17420CFB08F734BFA2EB8F
:101340000742B2EB074261EB17414FEA0C444FEA08
:10135000910706FB07FC4FEA1C4C0CFB0BF7B0EBAC
:10136000C74072EB573203FB0CF734BFA2EBC74206
:10137000B2EBC74261EB57310CFB0EF7B0EBC70085
:1013800072EB57720CFB08F734BFA2EBC702B2EB4B
:10139000C70261EB5771039F4FEA816141EA9211E5
:1013A00004EBCC044FEAD1374FEA826206FB07FC1C
:1013B00042EA90124FEA80604FEA1C4C0CFB0BF79C
:1013C000D21B03FB0CF761EB07010CFB0EF7B0EB34
:1013D000074072EB17420CFB08F734BFA2EB074241
:1013E000B2EB074261EB17414FEA8C554FEA910788
:1013F00004EB9C2406FB07FC4FEA1C4C0CFB0BF790
:10140000B0EBC74072EB573203FB0CF734BFA2EBD3
:10141000C742B2EBC74261EB57310CFB0EF7B0EBA2
:10142000C70072EB57720CFB08F734BFA2EBC70280
:10143000B2EBC70261EB577115EB4C254FEA8161A6
:1014400041EA92114FEA82624FEAD13742EA9012A2
:1014500006FB07FC44F100044FEA80604FEA1C4C95
:101460000CFB0BF7D21B03FB0CF761EB07010CFB2A
:101470000EF7B0EB074072EB17420CFB08F734BFD6
:10148000A2EB0742B2EB074261EB174115EB1C15CB
:101490004FEA813141EA92414FEA823242EA904278
:1014A0004FEA80304FEA0C7644F1000448EA0343E7
:1014B0004EEA0B484FF0000EB2EB080C71EB03073D
:1014C00024BF624639464EEB0E0E4FF0000B00185B
:1014D000524149414BEB0B0BB2EB080C71EB03078C
:1014E0007BF1000B24BF624639464EEB0E0E4FF0E7
:1014F000000B0018524149414BEB0B0BB2EB080CAF
:1015000071EB03077BF1000B24BF624639464EEBBB
:101510000E0E51EA020718BF46F0010616EB0E76D2
:1015200055F1000254F1000103D5BDE88901BDE881
:101530000088BDE88901BDE80048B619524141EB79
:101540000101A3F10103704780807F7E7D7C7B7A5F
:101550007978777676757473727171706F6E6E6D5F
:101560006C6C6B6A6A696868676666656464636305
:1015700062616160605F5F5E5E5D5D5C5C5B5B5A8B
:101580005A595958585757565655555554545353F8
:1015900052525251515050504F4F4F4E4E4D4D4D53
:1015A0004C4C4C4B4B4B4A4A4A494949484848479E
:1015B00047474746464645454544444444434343DC
:1015C0004342424242414141002B26D4770021D080
:1015D0001CB54FEA370703B44FF010004FF010016D
:1015E0004FF000000FBCBDE810400BF1010BBBF148
:1015F000010F08BF5FEA170722BF12F1010211F1C4
:1016000001014FF0004143F1000300F0004043EAC4
:1016100000007047F9D35708DAE746EA064613F1A7
:10162000400F4FEA16461FDD13F1200FDFBF1643B0
:101630000A46002120335B42C8D0C3F1200746EAA6
:10164000064602FA07F74FEA164646EA0706C3F1CE
:10165000200722FA03F201FA07F721FA03F14FF00B
:10166000000342EA0702B1E746EA020646EA0646F6
:101670004FEA164646EA0106BCBF46EA0646360C65
:101680004FF000034FF000024FF000019EE72DE9FC
:10169000C048934630B491E8380007C831EA400C9E
:1016A00048BF34EA430C03D5FFF7F2FDFFF78CFF88
:1016B000F0BCBDE800882DE9C048934630B491E8FD
:1016C000380007C810F0804F08BF13F0804F03D1D7
:1016D00000F005F8FFF778FFF0BCBDE8008820F0C7
:1016E0007F4780EA030023F07F4C07EB0C03A3F550
:1016F0007C5300F00040A3F1FE0392F0000F00F0D5
:10170000B38095F0000F00F077802DE901494FEA92
:1017100011404FEA144621EA004800FB06FC24EA87
:10172000064708FB06F607FB08F800FB07F718EB6F
:1017300006484CEB164C4FEA124B18EB07484FEAA1
:1017400015464CEB174022EA0B4E0BFB06FC25EA34
:1017500006470EFB06F607FB0EFE0BFB07F71EEB1C
:10176000064E4CEB164C4FF000061EEB074E4CEBB2
:10177000174B18EB0B0840F1000018EB0E0B58EB61
:10178000000840F100008F1A4FF000013CBFC94330
:10179000661B14BFB5EB040C00213CBFC943F61B0C
:1017A0004FEA17444EEA8E0E27EA04454FEA1C47DB
:1017B00004FB07622CEA074C05FB07F70CFB05F658
:1017C00004FB0CFC16EB074642EB174216EB0C46EB
:1017D00042EB1C421BEB060658EB0202414146EA73
:1017E0009E0601D5BDE80189B619524141EB0101C0
:1017F000A3F10103BDE801894FEA14454FEA1147FF
:1018000024EA054621EA074C05FB07F406FB07F727
:101810000CFB06F105FB0CFC11EB074144EB1744F4
:101820004FEA124711EB0C4144EB1C4422EA074CEF
:1018300005FB07F206FB07F70CFB06F605FB0CFCA5
:1018400016EB074642EB174216EB0C4642EB1C45E3
:101850006A1854F1000148BF7047B619524141EB74
:101860000101A3F10103704795F0000F37D04FEA53
:1018700011424FEA144721EA024624EA074C02FBD0
:1018800007F106FB07F70CFB06F402FB0CFC14EB5C
:10189000074441EB17414FEA154714EB0C4441EB69
:1018A0001C4125EA074C02FB07F506FB07F70CFB7A
:1018B00006F602FB0CFC16EB074645EB174516EB4C
:1018C0000C4645EB1C42121951F1000148BF70470C
:1018D000B619524141EB0101A3F1010370474FEAF0
:1018E00014454FEA114724EA054621EA074C05FB57
:1018F00007F106FB07F70CFB06F24FF0000605FBAD
:101900000CFC12EB074241EB174112EB0C4251EB7E
:101910001C4148BF7047921841EB0101A3F101033C
:10192000704721B1826842F00102826003E0826860
:1019300022F001028260704710B5044612488442CA
:1019400008D10121401502F0F7F90021601502F0DD
:10195000F3F917E00D48844208D10121001502F087
:10196000EBF90021201502F0E7F90BE0084884426A
:1019700008D10121C80302F0DFF900214FF4004033
:1019800002F0DAF910BD00000024014000280140F7
:10199000003C0140014600208A6802F004020AB1BE
:1019A000012000E0002070470146C86C80B27047FB
:1019B0000246002013680B400BB1012000E000201C
:1019C0007047014600208A6802F008020AB101202F
:1019D00000E000207047000030B5024600200023E0
:1019E00050680F4C20400D790C6844EA05242043D0
:1019F000506090680B4C2040D1E902542C434D7943
:101A000044EA450420439060D06A20F470000C7CC6
:101A1000641EE4B2234340EA0350D06230BD0000AC
:101A2000FFFEF0FFFDF7F1FFF0B504460D46002084
:101A30000021092D11DDE068A5F10A0606EB460735
:101A4000072606FA07F18843A5F10A0606EB4606C3
:101A500003FA06F10843E0600CE0206905EB450756
:101A6000072606FA07F1884305EB450603FA06F157
:101A700008432061072A0FDA606B561E06EB8607C3
:101A80001F2606FA07F18843561E06EB860605FA5E
:101A900006F10843606322E00D2A0FDA206BD61F9F
:101AA00006EB86071F2606FA07F18843D61F06EBCA
:101AB000860605FA06F10843206310E0E06AA2F109
:101AC0000D0606EB86071F2606FA07F18843A2F1EA
:101AD0000D0606EB860605FA06F10843E062F0BD46
:101AE000816841F008018160704721B1826842F449
:101AF000A002826003E0826822F4A0028260704744
:101B0000816841F00401816070472DE9F05F8246F1
:101B10000F4690463846FEF746FD84B22046FEF753
:101B20008FFB834621465846FEF7F4FD01232246EB
:101B30003946584600F0BCF884B222464146584621
:101B400002F078FF05465846FEF7A9FB601E15F81F
:101B5000009000260FE0A01B401E285C484504D0E2
:101B60002846FEF79CFBBDE8F09F0021A01B401E0D
:101B70002954701CC6B24E45EDDB29465046FEF78F
:101B8000EEFC2846FEF78BFB00BFECE72DE9F047A3
:101B90000546884616462846FEF705FD84B22046CF
:101BA000E11704EB11710911A4EB0111C1F110014E
:101BB000CFB228193A463946FEF7A4FD2846FEF76B
:101BC000F2FC84B23146284602F090FF814622465C
:101BD0004146484600F0C8F84846FEF760FBBDE8BD
:101BE000F087000000B587B001214FF4017002F0CA
:101BF00093F84FF4004002F063F80120ADF80400C0
:101C000000208DF8070001A9174800F092F9174845
:101C1000FFF792FE002002908DF80C008DF80D0069
:101C20004FF4602004900020059001208DF81800EA
:101C300002A90E48FFF7D0FE01210C48FFF771FE04
:101C40000A48FFF74DFF00BF0848FFF7BAFE00281B
:101C5000FAD10648FFF754FF00BF0448FFF79AFE89
:101C60000028FAD107B000BD00080140002401405F
:101C700010B50246002014E000210FE0130103EB31
:101C800080030B44084CE35C084C04EB8104245CA7
:101C90006340064C04EB81042354491C0429EDDB0A
:101CA000401C0428E8DB10BD6315002053150020FC
:101CB0002DE9F84104460D461E460027B846D117C7
:101CC00002EB91718910A2EB810129B126B90020A4
:101CD0002070401EBDE8F881501EC3B208E0E85CE9
:101CE0003D2802D1781CC7B200E003E0581EC3B201
:101CF000002BF4DC00BF31E0287800F0BAF98DF851
:101D00000000687800F0B5F98DF80100A87800F0BF
:101D1000B0F98DF80200E87800F0ABF98DF8030017
:101D20009DF8000080009DF8011040EA211004F8A1
:101D3000010B9DF8010000019DF8021040EAA1008E
:101D400004F8010B9DF803009DF8021040EA811091
:101D500004F8010B2D1D121F08F10308022ACBDC29
:101D6000A8EB0700B6E7000030B50346002053E0BB
:101D70001C782C4D05EB9404247801F8014B022AC1
:101D80001ADD1C78A407A40E5D7844EA2514254DBD
:101D90002C5D01F8014B5C782407A40E9D7844EA81
:101DA000A514204D2C5D01F8014B9C7804F03F04F4
:101DB0002C5D01F8014B2CE0012A02D0022A27D128
:101DC0000EE01C7804F00304164D05EB041424788F
:101DD00001F8014B3D2401F8014B01F8014B17E0DC
:101DE0001C78A407A40E5D7844EA25140D4D2C5DE3
:101DF00001F8014B5C782407A40E9D7844EAA514F1
:101E0000084D2C5D01F8014B3D2401F8014B00BF4A
:101E100000BFDB1CD21E001D002AA9DC00240C70B0
:101E200030BD00005800002000BFFEE770B500265E
:101E300000240DE0002508E005EB84001C49085C47
:101E40001C4901EB850108556D1C042DF4DB641C55
:101E5000042CEFDB0020FFF70BFF012609E002F066
:101E600081F802F05DF801F0D1FC3046FFF700FF89
:101E7000761C114800688642F1DB02F073F802F02C
:101E80004FF80D480068FFF7F3FE00240DE0002531
:101E900008E0084800EB8500005D05EB8401074A77
:101EA00050546D1C042DF4DB641C042CEFDB70BD5E
:101EB00023150020531500204C000020331500206E
:101EC000704770B503460024002010E00E5C451CEE
:101ED0004D5D46EA0526851C4D5D46EA0546C51C56
:101EE0004D5D46EA056543F82450641C001D904290
:101EF000ECD370BD70B5034614460022002015E0F7
:101F000011F822501D5431F82250C5F30726451C04
:101F10005E5551F82250C5F30746851C5E5551F8B1
:101F200022502D0EC61C9D55521C001DA042E7D309
:101F300070BD2DE9F0410246002500260020002357
:101F40000024002791F803C00CF00F0591F803C09E
:101F50000CF0100CBCF1000F03D091F802C04CEA59
:101F6000050591F800C0BCF1000F31D014680020C5
:101F70002BE04FF0010C0CFA00F3B1F800C00CEAB2
:101F800003069E4220D183004FF00F0C0CFA03F79A
:101F9000BC4305FA03FC4CEA040491F803C0BCF10D
:101FA000280F06D14FF0010C0CFA00FCC2F814C047
:101FB0000AE091F803C0BCF1480F05D14FF0010CC5
:101FC0000CFA00FCC2F810C0401C0828D1D31460E1
:101FD000B1F800C0BCF1FF0F34DD546800202EE0E2
:101FE00000F1080C4FF0010808FA0CF3B1F800C03A
:101FF0000CEA03069E4221D183004FF00F0C0CFA2D
:1020000003F7BC4305FA03FC4CEA040491F803C04F
:10201000BCF1280F05D100F1080C08FA0CF8C2F841
:10202000148091F803C0BCF1480F07D100F1080CEF
:102030004FF0010808FA0CF8C2F81080401C08287C
:10204000CED35460BDE8F0810246002093680B4077
:102050000BB1012000E00020704741617047016131
:10206000704770B504460D462946204601F05AFCDB
:1020700070BD0146412905DB5A2903DCA1F141006D
:10208000C0B27047612905DB7A2903DCA1F1470062
:10209000C0B2F6E7302904DB392902DC081DC0B2E2
:1020A000EFE72B2904D02F2904D03D2906D103E0E6
:1020B0003E20E6E73F20E4E70020E2E70020E0E7FB
:1020C00010B504460723012221460948FFF7ACFC5E
:1020D00001210748FFF709FD00BF02210448FFF76F
:1020E00067FC0028F9D00248FFF75EFC10BD000035
:1020F000002401402DE9F04107460C46002500264A
:1021000008E03846FFF7DCFF0544022003F01AFF21
:10211000701CC6B2A642F4DBB5FBF4F080B2BDE899
:10212000F0810000FEB52649D1F8860004F044FC99
:1021300007462449384604F045FB0746044604F0A8
:10214000B3FA05461E4890F88A0022231A46CDE9C4
:10215000005102901CA12248FEF7C8F81849D1F896
:10216000810004F029FC07461649384604F02AFB92
:102170000746044604F098FA0546114890F8850091
:1021800022231A46CDE90051029016A11B48FEF702
:10219000ADF80B49D1F8A00004F0F6FB074618494A
:1021A000384604F00FFB0746044604F07DFA054666
:1021B0002A460B4613A11848FEF798F8FEBD00000A
:1021C000280500200050C34725636C6F6E67697453
:1021D00075646525633A252E356620253163000038
:1021E000CE05002025636C61746974756465256390
:1021F0003A252E356620253163000000EC050020CD
:1022000000002041416C7469747564653A252E3173
:10221000666D2020202020000A06002000BFFEE777
:1022200070B5002600240DE0002508E005EB8400D1
:102230001C49085C1C4901EB850108556D1C042DE7
:10224000F4DB641C042CEFDB18480068FFF710FD7A
:1022500016480068461E09E000F016FD00F034FD47
:102260003046FFF705FD00F025F8761E002EF3DC62
:1022700000F00AFD00F028FD0020FFF7F9FC002423
:102280000DE0002508E0084800EB8500005D05EB47
:102290008401074A50546D1C042DF4DB641C042C8B
:1022A000EFDB70BD23150020531500204C000020EB
:1022B000331500202DE9F0430024FDE3FE4D285D99
:1022C0002D1D295D2D1D2A5D2D1D2B5D4FF0000C50
:1022D000C50905EBC50505EB450585EA4005C5F3D0
:1022E000C01505EBC50505EB4505C60906EBC60699
:1022F00006EB460686EA400685EA4605C5F3C015A4
:1023000005EBC50505EB4505C60906EBC60606EB5C
:10231000460686EA4006C6F3C01606EBC60606EB7E
:102320004606C70907EBC70707EB470787EA4007D9
:1023300086EA470685EA4606C50905EBC50505EBAD
:10234000450585EA4005C5F3C01505EBC50505EB58
:102350004505C70907EBC70707EB470787EA4007AB
:1023600085EA4707C50905EBC50505EB450585EA7F
:1023700040056F407E408CEA0605CE0906EBC60696
:1023800006EB460686EA4106C6F3C01606EBC6060D
:1023900006EB4606CF0907EBC70707EB470787EAB7
:1023A000410786EA4706C6F3C01606EBC60606EBEB
:1023B0004606CF0907EBC70707EB470787EA410740
:1023C000C7F3C01707EBC70707EB47074FEAD1185A
:1023D00008EBC80808EB480888EA410887EA48077C
:1023E00086EA4706CF0907EBC70707EB470787EAE7
:1023F00041074F407E408CEA060C85EA0C054FF001
:10240000000CD60906EBC60606EB460686EA42062F
:10241000C6F3C01606EBC60606EB4606D70907EB61
:10242000C70707EB470787EA420786EA4706C6F36E
:10243000C01606EBC60606EB4606D70907EBC7072C
:1024400007EB470787EA4207C7F3C01707EBC70741
:1024500007EB47074FEAD21808EBC80808EB480813
:1024600088EA420887EA480786EA4706D70907EB61
:10247000C70707EB470787EA4207C7F3C01707EB11
:10248000C70707EB47074FEAD21808EBC80808EB65
:10249000480888EA420887EA480757407E408CEAA5
:1024A000060C85EA0C050027DE0906EBC60606EBDE
:1024B000460686EA4306C6F3C01606EBC60606EBDA
:1024C00046064FEAD31C0CEBCC0C0CEB4C0C8CEA04
:1024D000430C86EA4C06C6F3C01606EBC60606EBAE
:1024E00046064FEAD31C0CEBCC0C0CEB4C0C8CEAE4
:1024F000430CCCF3C01C0CEBCC0C0CEB4C0C4FEA9B
:10250000D31808EBC80808EB480888EA43088CEAA7
:10251000480C86EA4C06BC468CEA03088CEA080C98
:1025200086EA0C0677407D40634E35550026C50986
:1025300005EBC50505EB450585EA4005C5F3C01566
:1025400005EBC50505EB4505C70907EBC70707EB15
:10255000470787EA400785EA4705C5F3C01505EB3D
:10256000C50505EB4505C70907EBC70707EB470797
:1025700087EA4007C7F3C01707EBC70707EB470712
:102580004FEAD01C0CEBCC0C0CEB4C0C8CEA400C46
:1025900087EA4C0785EA4705002787EA000C87EAA7
:1025A0000C077D406E404FF00008CD0905EBC505D6
:1025B00005EB450585EA4105C5F3C01505EBC505E5
:1025C00005EB4505CF0907EBC70707EB470787EA88
:1025D000410785EA4705C5F3C01505EBC50505EBC1
:1025E0004505CF0907EBC70707EB470787EA410710
:1025F000C7F3C01707EBC70707EB47074FEAD11C24
:102600000CEBCC0C0CEB4C0C8CEA410C87EA4C0725
:1026100085EA4705CF0907EBC70707EB470787EAB6
:102620004107C7F3C01707EBC70707EB47074FEA98
:10263000D11C0CEBCC0C0CEB4C0C8CEA410C87EA5B
:102640004C074FEAD11C0CEBCC0C0CEB4C0C8CEA7D
:10265000410C87EA0C077D4088EA050886EA0805F0
:102660004FF0000CD60906EBC60606EB460686EAD6
:102670004206C6F3C01606EBC60606EB4606D709A9
:1026800007EBC70707EB470787EA420786EA4706D3
:10269000C6F3C01606EBC60606EB4606D70907EBDF
:1026A000C70707EB470787EA4207C7F3C01707EBDF
:1026B000C70707EB470701E0531500204FEAD21880
:1026C00008EBC80808EB480888EA420887EA480788
:1026D00086EA4706D70907EBC70707EB470787EAEC
:1026E000420757407E408CEA060C85EA0C054FF005
:1026F000000CDE0906EBC60606EB460686EA430634
:10270000C6F3C01606EBC60606EB4606DF0907EB66
:10271000C70707EB470787EA430786EA4706C6F37A
:10272000C01606EBC60606EB4606DF0907EBC70731
:1027300007EB470787EA4307C7F3C01707EBC7074D
:1027400007EB47074FEAD31808EBC80808EB48081F
:1027500088EA430887EA480786EA4706DF0907EB65
:10276000C70707EB470787EA4307C7F3C01707EB1D
:10277000C70707EB47074FEAD31808EBC80808EB71
:10278000480888EA430887EA48075F407E408CEAA9
:10279000060C85EA0C05EEB2FE4D2E550027C50944
:1027A00005EBC50505EB450585EA4005C5F3C015F4
:1027B00005EBC50505EB4505C60906EBC60606EBA8
:1027C000460686EA400685EA4605C5F3C01505EBD0
:1027D000C50505EB4505C60906EBC60606EB46062C
:1027E00086EA4006C6F3C01606EBC60606EB4606AA
:1027F0004FEAD01C0CEBCC0C0CEB4C0C8CEA400CD4
:1028000086EA4C0685EA4606C50905EBC50505EBD3
:10281000450585EA4005C5F3C01505EBC50505EB83
:1028200045054FEAD01C0CEBCC0C0CEB4C0C8CEAA5
:10283000400C85EA4C0545406E407E40BC46CD09C3
:1028400005EBC50505EB450585EA4105C5F3C01552
:1028500005EBC50505EB4505CF0907EBC70707EBFA
:10286000470787EA410785EA4705C5F3C01505EB29
:10287000C50505EB4505CF0907EBC70707EB47077C
:1028800087EA4107C7F3C01707EBC70707EB4707FE
:102890004FEAD11808EBC80808EB480888EA410855
:1028A00087EA480785EA4705002787EA010887EA9B
:1028B00008077D408CEA050C86EA0C054FF00008FD
:1028C000D60906EBC60606EB460686EA4206C6F3BE
:1028D000C01606EBC60606EB4606D70907EBC70788
:1028E00007EB470787EA420786EA4706C6F3C016A2
:1028F00006EBC60606EB4606D70907EBC70707EB4C
:10290000470787EA4207C7F3C01707EBC70707EB7C
:1029100047074FEAD21C0CEBCC0C0CEB4C0C8CEAAE
:10292000420C87EA4C0786EA4706D70907EBC70738
:1029300007EB470787EA4207C7F3C01707EBC7074C
:1029400007EB47074FEAD21C0CEBCC0C0CEB4C0C02
:102950008CEA420C87EA4C074FEAD21C0CEBCC0CF9
:102960000CEB4C0C8CEA420C87EA0C077E4088EAA0
:10297000060885EA08074FF0000CDD0905EBC505E0
:1029800005EB450585EA4305C5F3C01505EBC5050F
:1029900005EB4505DE0906EBC60606EB460686EAAC
:1029A000430685EA4605C5F3C01505EBC50505EBED
:1029B0004505DE0906EBC60606EB460686EA430633
:1029C000C6F3C01606EBC60606EB46064FEAD3185A
:1029D00008EBC80808EB480888EA430886EA480676
:1029E00085EA4605DE0906EBC60606EB460686EADC
:1029F00043065E4075408CEA050C87EA0C07654D7E
:102A00002D1D2F550027C50905EBC50505EB45050F
:102A100085EA4005C5F3C01505EBC50505EB450581
:102A2000C60906EBC60606EB460686EA400685EAB8
:102A30004605C5F3C01505EBC50505EB4505C609FB
:102A400006EBC60606EB460686EA4006C6F3C01647
:102A500006EBC60606EB46064FEAD01C0CEBCC0C88
:102A60000CEB4C0C8CEA400C86EA4C0685EA4605D9
:102A7000C60906EBC60606EB460686EA4006464051
:102A800075407D40BC46CE0906EBC60606EB460601
:102A900086EA4106C6F3C01606EBC60606EB4606F6
:102AA000CF0907EBC70707EB470787EA410786EA25
:102AB0004706C6F3C01600E0DFE006EBC60606EBED
:102AC0004606CF0907EBC70707EB470787EA410729
:102AD000C7F3C01707EBC70707EB47074FEAD11843
:102AE00008EBC80808EB480888EA410887EA480765
:102AF00086EA4706CF0907EBC70707EB470787EAD0
:102B00004107C7F3C01707EBC70707EB47074FEAB3
:102B1000D11808EBC80808EB480888EA410887EA9A
:102B200048074F407E408CEA060C85EA0C064FF0C1
:102B3000000CD50905EBC50505EB450585EA420501
:102B4000C5F3C01505EBC50505EB4505D70907EB32
:102B5000C70707EB470787EA420785EA4705C5F33A
:102B6000C01505EBC50505EB4505D70907EBC707FC
:102B700007EB470787EA4207C7F3C01707EBC7070A
:102B800007EB47074FEAD21808EBC80808EB4808DC
:102B900002E000005715002088EA420887EA48074B
:102BA00085EA4705002787EA020887EA08077D408B
:102BB0008CEA050C86EA0C054FF00008DE0906EBEE
:102BC000C60606EB460686EA4306C6F3C01606EBC3
:102BD000C60606EB4606DF0907EBC70707EB470704
:102BE00087EA430786EA4706C6F3C01606EBC60621
:102BF00006EB4606DF0907EBC70707EB470787EA3F
:102C00004307C7F3C01707EBC70707EB47074FEAB0
:102C1000D31C0CEBCC0C0CEB4C0C8CEA430C87EA71
:102C20004C0786EA4706DF0907EBC70707EB4707AC
:102C300087EA4307C7F3C01707EBC70707EB470748
:102C40004FEAD31C0CEBCC0C0CEB4C0C8CEA430C79
:102C500087EA4C074FEAD31C0CEBCC0C0CEB4C0C6A
:102C60008CEA430C87EA0C077E4088EA060885EA6E
:102C70000805EEB2034D2E55641C042CFFF61EAB66
:102C8000BDE8F0835F1500200E49C8798A79CA71C2
:102C90004A798A710A794A710871087A897A094AE7
:102CA000117211468872487ACA7A4A72C872087BD1
:102CB000497B044A117311468A7B4A73CA7B8A7323
:102CC000C87370475315002000B500220FE00023A1
:102CD0000AE0084901EB8201C85C01F067FF054981
:102CE00001EB8201C8545B1C042BF2DB521C042A4A
:102CF000EDDB00BD5315002038B5002222E06D4801
:102D000010F822006C4901F82200012000EB82003B
:102D10006849085C012101EB8201674D685402207B
:102D200000EB82006349085C022101EB82016854D8
:102D3000032000EB82005F49085C032101EB820164
:102D40006854521C5D4800688242D8DBA9E0002329
:102D500007E0501E03EB80005749085C0DF80300A4
:102D60005B1C042BF5DB5548006892FBF0F100FB7F
:102D7000112098BB9DF800409DF801008DF80000DF
:102D80009DF802008DF801009DF803008DF8020007
:102D90008DF803409DF8000001F00EFF8DF8000053
:102DA0009DF8010001F008FF8DF801009DF8020078
:102DB00001F002FF8DF802009DF8030001F0FCFE17
:102DC0008DF803003D48006892FBF0F03C49085C38
:102DD0009DF8001048408DF8000024E0FFE73748D8
:102DE000006806281FDD3548006892FBF0F100FB03
:102DF0001120042817D19DF8000001F0DDFE8DF8A8
:102E000000009DF8010001F0D7FE8DF801009DF84B
:102E1000020001F0D1FE8DF802009DF8030001F0E0
:102E2000CBFE8DF8030025480068101A002101EB45
:102E300080002149085C9DF800104840002101EB0A
:102E400082011D4D68541D480068101A012101EBD4
:102E500080002946085C9DF801104840012101EBE3
:102E60008201685415480068101A022101EB8000A5
:102E70002946085C9DF802104840022101EB8201BE
:102E800068540E480068101A032101EB800029469F
:102E9000085C9DF803104840032101EB820168544F
:102EA000521C08480068401C800090423FF74FAF1A
:102EB00038BD00008F160020631500205000002050
:102EC000666E00084C0000202DE9FC4106460C46C9
:102ED000082204F110016846FFF70CF8208AC0F3BD
:102EE000C505382D02D2C5F1380001E0C5F17800E2
:102EF00007463A460949204600F014FC0822694674
:102F0000204600F00FFC102221463046FEF7F2FF6B
:102F100058212046FDF720FCBDE8FC81A9000020D7
:102F200000210161002242610549016005494160BB
:102F30000349C94381600349C943C1607047000028
:102F40000123456789ABCDEF2DE9F04391B0804671
:102F50008946D8F80040D8F80450D8F80860D8F866
:102F60000C704022494601A8FEF7ABFF05EA0600B7
:102F700027EA0501084301990844FE49084404442E
:102F8000E00140EA54642C4404EA050026EA040106
:102F9000084302990844F84908440744380340EAC2
:102FA0001757274407EA040025EA07010843039955
:102FB0000844F24908440644700440EAD6363E44C8
:102FC00006EA070024EA0601084304990844EC498C
:102FD00008440544A80540EA9525354405EA06005D
:102FE00027EA0501084305990844E64908440444D2
:102FF000E00140EA54642C4404EA050026EA040196
:10300000084306990844E04908440744380340EA65
:103010001757274407EA040025EA070108430799E0
:103020000844DA4908440644700440EAD6363E446F
:1030300006EA070024EA0601084308990844D4492F
:1030400008440544A80540EA9525354405EA0600EC
:1030500027EA0501084309990844CE490844044475
:10306000E00140EA54642C4404EA050026EA040125
:1030700008430A990844C84908440744380340EA09
:103080001757274407EA040025EA070108430B996C
:103090000844A0F524404F380644700440EAD63670
:1030A0003E4406EA070024EA060108430C99084456
:1030B000BA4908440544A80540EA9525354405EA7F
:1030C000060027EA050108430D990844B44908445D
:1030D0000444E00140EA54642C4404EA050026EA72
:1030E000040108430E990844AE49084407443803D4
:1030F00040EA1757274407EA040025EA0701084376
:103100000F990844A84908440644700440EAD6369A
:103110003E4406EA070024EA0601084310990844E1
:10312000A24908440544A80540EA9525354405EA26
:10313000070026EA07010843029908449C4908440D
:103140000444600140EAD4642C4404EA060025EA01
:103150000601084307990844964908440744780241
:1031600040EAD757274407EA050024EA0501084347
:103170000C990844904908440644B00340EA964636
:103180003E4406EA040027EA040108430199084482
:103190008A4908440544280540EA1535354405EABE
:1031A000070026EA070108430699084484490844B1
:1031B0000444600140EAD4642C4404EA060025EA91
:1031C000060108430B9908447E49084407447802E5
:1031D00040EAD757274407EA050024EA05010843D7
:1031E00010990844784908440644B00340EA9646DA
:1031F0003E4406EA040027EA04010843059908440E
:10320000724908440544280540EA1535354405EA65
:10321000070026EA070108430A9908446C49084454
:103220000444600140EAD4642C4404EA060025EA20
:10323000060108430F990844664908440744780288
:1032400040EAD757274407EA050024EA0501084366
:1032500004990844604908440644B00340EA96468D
:103260003E4406EA040027EA040108430999084499
:103270005A4908440544280540EA1535354405EA0D
:10328000070026EA070108430E99084454490844F8
:103290000444600140EAD4642C4404EA060025EAB0
:1032A00006010843039908444E490844074478023C
:1032B00040EAD757274407EA050024EA05010843F6
:1032C00008990844484908440644B00340EA964631
:1032D0003E4406EA040027EA040108430D99084425
:1032E000424908440544280540EA1535354485EA35
:1032F00006007840069908443D49084404442001EA
:1033000040EA14742C4484EA05007040099908448A
:10331000384908440744F80240EA5757274487EAE7
:10332000040068400C9908443349084406443004BA
:1033300040EA16463E4486EA070060400F9908447A
:103340002E4908440544E80540EA5525354485EAF8
:1033500006007840029908442949084404442001A1
:1033600040EA14742C4484EA05007040059908442E
:10337000244949E078A46AD756B7C7E8DB7020240F
:10338000EECEBDC1AF0F7CF52AC68747134630A8E5
:10339000019546FDD8988069AFF7448BBED75C890C
:1033A0002211906B937198FD8E4379A62108B44940
:1033B00062251EF640B340C0515A5E26AAC7B6E940
:1033C0005D102FD65314440281E6A1D8C8FBD3E781
:1033D000E6CDE121D60737C3870DD5F4ED145A4564
:1033E00005E9E3A9F8A3EFFCD9026F678A4C2A8D9F
:1033F0004239FAFF81F6718722619D6D0C38E5FD37
:1034000044EABEA4A9CFDE4B08440744F80240EAD0
:103410005757274487EA0400684008990844A74999
:1034200008440644300440EA16463E4486EA070053
:1034300060400B990844A24908440544E80540EA65
:103440005525354485EA060078400E9908449D4983
:1034500008440444200140EA14742C4484EA050022
:10346000704001990844984908440744F80240EA2A
:103470005757274487EA0400684004990844934951
:1034800008440644300440EA16463E4486EA0700F3
:103490006040079908448E4908440544E80540EA1D
:1034A0005525354485EA060078400A99084489493B
:1034B00008440444200140EA14742C4484EA0500C2
:1034C00070400D990844844908440744F80240EAD2
:1034D0005757274487EA04006840109908447F49F9
:1034E00008440644300440EA16463E4486EA070093
:1034F0006040039908447A4908440544E80540EAD5
:103500005525354465EA070070400199084475491E
:1035100008440444A00140EA94642C4464EA060090
:10352000684008990844704908440744B80240EAD2
:103530009757274467EA050060400F9908446B4994
:1035400008440644F00340EA56463E4466EA040056
:10355000784006990844664908440544680540EAED
:10356000D525354465EA070070400D990844614946
:1035700008440444A00140EA94642C4464EA060030
:103580006840049908445C4908440744B80240EA8A
:103590009757274467EA050060400B99084457494C
:1035A00008440644F00340EA56463E4466EA0400F6
:1035B000784002990844524908440544680540EAA5
:1035C000D525354465EA07007040099908444D49FE
:1035D00008440444A00140EA94642C4464EA0600D0
:1035E000684010990844484908440744B80240EA32
:1035F0009757274467EA0500604007990844434904
:1036000008440644F00340EA56463E4466EA040095
:1036100078400E9908443E4908440544680540EA4C
:10362000D525354465EA07007040059908443949B5
:1036300008440444A00140EA94642C4464EA06006F
:1036400068400C990844344908440744B80240EAE9
:103650009757274467EA05006040039908442F49BB
:1036600008440644F00340EA56463E4466EA040035
:1036700078400A9908442A4908440544680540EA04
:10368000D5253544D8F800002044C8F80000D8F803
:1036900004002844C8F80400D8F808003044C8F8EA
:1036A0000800D8F80C003844C8F80C00402101A8E4
:1036B000FDF752F811B0BDE8F0830000604BBBF697
:1036C00070BCBFBEC67E9B28FA27A1EA8530EFD426
:1036D000051D880439D0D4D9E599DBE6F87CA21F12
:1036E0006556ACC4442229F497FF2A43A72394AB20
:1036F00039A093FCC3595B6592CC0C8F7DF4EFFF2E
:10370000D15D84854F7EA86FE0E62CFE144301A3B3
:10371000A111084E827E53F735F23ABDBBD2D72AAB
:1037200091D386EB2DE9F047044688461546208A5A
:10373000C0F3C509206900EBC5002061B0EBC50FDF
:1037400002D26069401C6061606900EB5571616183
:10375000C9F14007BD421BD304F1180101EB090078
:103760003A464146FCF789FF04F118012046FFF76D
:10377000EBFB3E4605E008EB06012046FFF7E4FBC5
:10378000403606F13F00A842F5D34FF0000900E0B3
:103790000026AA1B08EB060104F1180303EB09003D
:1037A000FCF76BFFBDE8F08770B598B005460E4694
:1037B00002A8FFF7B5FB3246294602A8FFF7B2FF81
:1037C00002A96846FFF780FB0020044613E01DF8BD
:1037D00004000B4901EB201000780A4A02F814009B
:1037E0001DF8040000F00F00095C6000401C11543B
:1037F000601CC0B20446082CE9DB18B070BD0000A4
:10380000990000201805002000BFFEE730B5002019
:1038100068E0364C235C245C344D2D1D2D5C6C40DF
:10382000324D08352D5C6C40304D0C352D5C84EAF2
:1038300005022E4C255C241D245C85EA0401CC097C
:1038400004EBC40404EB440484EA4104E1B2274CD1
:10385000245C81EA02056C40244D2C542C1D245C10
:1038600008352D5C84EA0501CC0904EBC40404EBA3
:10387000440484EA4104E1B21C4C241D245C81EA26
:1038800002056540194C241D2554241D245C174D48
:103890000C352D5C84EA0501CC0904EBC40404EB6F
:1038A000440484EA4104E1B2104C0834245C81EA07
:1038B00002056C400D4D08352C542C1D245C84EA07
:1038C0000301CC0904EBC40404EB440484EA41047E
:1038D000E1B22C1D245C81EA02056C40034D0C35DD
:1038E0002C54401C042894DB30BD000053150020EC
:1038F0000246134610E010782A2805D010782028B8
:1039000002DB10787A2801DDFF20704710782C2820
:1039100001D1481EC1B2521C0029ECD1D01AC0B24C
:10392000F3E700002DE9F04F85B0044688467EA1FC
:103930004046FCF702FE074601213846FFF7D8FF54
:103940000646FF2E23D0B81904A900F0FEF88246DF
:103950009DF810100A2000F0EDF8BAFBF0F542F2E5
:103960001070B5FBF0F0C1B27E2001556420B5FBAC
:10397000F0F06421B0FBF1F201FB12017F20015550
:103980006420B5FBF0F100FB1151802001550321AB
:103990003846FFF7ADFF0646FF2E45D0B81904A9FB
:1039A00000F0D3F805469DF81000801CC1B20A2033
:1039B00000F0C0F8B5FBF0F044F8810F9DF810005E
:1039C000801CC1B20A2000F0B5F8B5FBF0F100FB95
:1039D000115A504602F0F0FF81469DF81000C0F1E8
:1039E0000500C1B20A2000F0A5F8009002F0E4FF43
:1039F0008346494602F0F4FF82464D4902F0E2FE5A
:103A0000052102900A2000F095F8216800FB01FAD8
:103A1000504602F0D1FF0190029902F071FE03902E
:103A200002F092FF44F8810904213846FFF760FF55
:103A3000064605213846FFF75BFF0646FF2E45D0B8
:103A4000B81904A900F081F805469DF81000801C03
:103A5000C1B20A2000F06EF8B5FBF0F044F8860F12
:103A60009DF81000801CC1B20A2000F063F8B5FB7D
:103A7000F0F100FB115A504602F09EFF81469DF87E
:103A80001000C0F10500C1B20A2000F053F8009008
:103A900002F092FF8346494602F0A2FF8246244983
:103AA00002F090FE052102900A2000F043F8216800
:103AB00000FB01FA504602F07FFF0190029902F0EC
:103AC0001FFE039002F040FF44F8860906213846A5
:103AD000FFF70EFF064609213846FFF709FF0646A5
:103AE000FF2E1ED0B81904A900F02FF8054642F2A7
:103AF0001070B5FBF0F0C1B27D2001556420B5FB1C
:103B0000F0F06421B0FBF1F201FB12017C200155C1
:103B10006420B5FBF0F100FB115000F5FA60A4F849
:103B20007A0005B0BDE8F08F24474E524D430000A7
:103B30000000704210B50246012000E050430B1E09
:103B4000A1F10104E1B2F9D110BD2DE9F34F81B02B
:103B500007463C460020009083468146002680466A
:103B600028E020782D2802D148F00208641C207833
:103B70002C2802D020782A2800D11CE020782E287A
:103B800003D148F00108641C09E02078392802DCE0
:103B90002078302803DA4FF0000900260BE008F007
:103BA000010010B1701CC6B203E009F1010000F081
:103BB000FF09641CD5E700BF08F0020000B17F1CBC
:103BC00000250EE0A9F10100401BC1B20A20FFF759
:103BD000B1FF795D3039009A00FB01200090681C2C
:103BE000C5B24D45EEDB052E00DD052602980670B8
:103BF00000250EE0701E401BC1B20A20FFF79AFF9D
:103C000009F101012944795C303900FB01BB681CD2
:103C1000C5B2B542EEDB31460A20FFF78BFF0099B3
:103C200001FB00BA08F0020008B1CAF1000A5046D0
:103C3000BDE8FE8F7047000070B5002100230F2201
:103C4000C47804B3154C246804F4E064C4F5E0645B
:103C5000210AC1F10403CA40447804FA03F18478CC
:103C60001440214309010E4C0678A155047804F054
:103C70001F050124AC4005786D11AD0005F1E0256C
:103C8000C5F8004109E0047804F01F050124AC40A8
:103C9000044D0678761145F8264070BD0CED00E025
:103CA00000E400E080E100E002490143024A1160C3
:103CB000704700000000FA050CED00E070470000BE
:103CC00001460020034A506820F4404008435060F9
:103CD000704700000010024029B1064AD269024331
:103CE000044BDA6104E0034AD2698243014BDA6192
:103CF000704700000010024029B1064A12690243D1
:103D0000044B1A6104E0034A12698243014B1A61B1
:103D1000704700000010024029B1064A9269024330
:103D2000044B9A6104E0034A92698243014B9A6111
:103D3000704700000010024029B1064AD2680243D1
:103D4000044BDA6004E0034AD2688243014BDA6034
:103D5000704700000010024030B50021002200240E
:103D600000232D4D6D6805F00C0121B1042905D00B
:103D7000082923D105E0294D056022E0284D056082
:103D80001FE0254D6D6805F47012234D6D6805F434
:103D90008034022505EB92421CB9224D5543056043
:103DA0000BE01D4D6D6805F400351DB11E4D5543EA
:103DB000056002E01A4D5543056002E0174D0560AD
:103DC00000BF00BF144D6D6805F0F0010909174DE3
:103DD0006B5C0568DD4045600F4D6D6805F4E06182
:103DE000090A124D6B5C4568DD4085600A4D6D68BF
:103DF00005F46051C90A0D4D6B5C4568DD40C56036
:103E0000054D6D6805F44041890B094D6B5CC56833
:103E1000B5FBF3F5056130BD0010024000127A00D9
:103E2000001BB70000093D00808D5B00E900002009
:103E3000F9000020704710B500F002F810BD000036
:103E40000CB50020019000903348006840F48030A9
:103E50003149086000BF3048006800F4003000902D
:103E60000198401C0190009818B90198B0F5A06F16
:103E7000F1D12948006800F4003010B10120009011
:103E800001E0002000900098012843D123480068F9
:103E900040F01000214908600846006820F0030047
:103EA00008600846006840F0020008601A48406850
:103EB000194948600846406848600846406840F430
:103EC000806048600846406820F47C1048600846DE
:103ED000406840F4881048600846006840F08070F0
:103EE000086000BF0C48006800F000700028F9D09E
:103EF0000948406820F003000749486008464068C8
:103F000040F00200486000BF0348406800F00C0029
:103F10000828F9D10CBD000000100240002002402A
:103F20000F49087949790E4A117111468A794A7107
:103F3000CA798A71C871087A897A094A1172114658
:103F40008872487ACA7A4A72C872087BC97B044A66
:103F5000117311468A7BCA734A7B8A734873704710
:103F60005315002000B500220FE000230AE00849A5
:103F700001EB8201C85C00F01FFE054901EB8201E4
:103F8000C8545B1C042BF2DB521C042AEDDB00BD81
:103F9000531500207047000010B51348006840F02A
:103FA00001001149086008464068104908400E4960
:103FB0004860084600680E4908400B4908600846FA
:103FC000006820F4802008600846406820F4FE0065
:103FD00048604FF41F008860FFF72DFF4FF000602E
:103FE0000449086010BD0000001002400000FFF806
:103FF000FFFFF6FE08ED00E010B500240121880760
:1040000000F026F9012818D10121800700F01DF8E1
:104010000A48006820B109480068401E0749086046
:10402000002408E0064850F82400401C044941F8E8
:104030002400601C84B20F2CF4DB10BD280000208B
:10404000D40A0020CA4302827047CA4302827047E2
:1040500021B1028842F00102028004E002884FF69A
:10406000FE731A400280704710B5044668488442C7
:1040700008D10121C014FFF75FFE0021E014FFF713
:104080005BFEC4E0B4F1804F08D101210846FFF780
:1040900033FE00210120FFF72FFEB8E05D48844287
:1040A00008D101210220FFF727FE00210220FFF79F
:1040B00023FEACE05848844208D101210420FFF7D8
:1040C0001BFE00210420FFF717FEA0E053488442A6
:1040D00008D101210820FFF70FFE00210820FFF77B
:1040E0000BFE94E04E48844208D101211020FFF7D6
:1040F00003FE00211020FFF7FFFD88E049488442BD
:1041000008D101212020FFF7F7FD00212020FFF733
:10411000F3FD7CE04448844208D101214014FFF7BC
:104120000BFE00216014FFF707FE70E03F48844259
:1041300009D10121C804FFF7FFFD00214FF4002041
:10414000FFF7FAFD63E03A48844209D101210805EE
:10415000FFF7F2FD00214FF48010FFF7EDFD56E070
:104160003448844209D101214805FFF7E5FD0021CB
:104170004FF40010FFF7E0FD49E02F48844208D1DA
:1041800001214020FFF7B8FD00214020FFF7B4FDDA
:104190003DE02A48844208D101218020FFF7ACFD90
:1041A00000218020FFF7A8FD31E02548844208D196
:1041B00001218015FFF7A0FD0021A015FFF79CFD50
:1041C00025E02048844209D101210804FFF7B4FD0D
:1041D00000214FF48030FFF7AFFD18E01A48844209
:1041E00009D101214804FFF7A7FD00214FF4003059
:1041F000FFF7A2FD0BE01548844208D10121880495
:10420000FFF79AFD00214FF48020FFF795FD10BDC8
:10421000002C01400004004000080040000C004059
:10422000001000400014004000340140004C0140E8
:10423000005001400054014000180040001C0040A4
:10424000002000400040014000440140004801407F
:1042500030B50246002000230024158A05EA010338
:10426000958905EA010413B10CB1012000E000209A
:1042700030BD1AB183890B43838102E083898B436C
:104280008381704781847047002202881D4B9842C9
:104290000ED01D4B98420BD0B0F1804F08D01B4B75
:1042A000984205D01A4B984202D01A4B984204D13A
:1042B0004FF68F731A404B881A43174B984207D01A
:1042C000164B984204D04FF6FF431A40CB881A434E
:1042D00002808B8883850B8803850A4B98420BD01C
:1042E000094B984208D00E4B984205D00D4B98428E
:1042F00002D00D4B984201D10B7A038601238382B1
:1043000070470000002C01400034014000040040D0
:1043100000080040000C0040001000400014004065
:1043200000400140004401400048014010B5002415
:1043300040F225511E4800F0F5F858B340F22551DF
:104340001B4800F0C7F81A4800F032FAC4B2002146
:104350000A2001F001FE17480088B0F5007F0BDA53
:10436000144801880088401C124A108012484454A6
:104370000120124908700DE040F202211048006847
:10438000FCF7C8F94FF400710B48FCF7C3F90020A3
:104390000849088040F22771054800F0C3F828B1A9
:1043A000002240F22771024800F0E6F810BD00003C
:1043B0000038014038000020120D00203E0000208F
:1043C0002C00002010B5002440F225511B4800F0BD
:1043D000A9F828B340F22551184800F07BF80021D5
:1043E0000B2001F0B9FD16480078C8B9134800F059
:1043F000DFF9C4B213480088B0F5007F08DA11482D
:1044000001880088401C0F4A10800F48445407E080
:104410004FF400710C48FCF77DF900200949088031
:1044200040F22771054800F07DF828B1002240F2E3
:104430002771024800F0A0F810BD000000440040C1
:104440003F0000203A000020120F002010B5002489
:1044500040F225511B4800F065F828B340F2255181
:10446000184800F037F800210C2001F075FD1548C0
:1044700000F09EF9C4B214480088B0F5007F0BDA52
:10448000114801880088401C0F4A10800F4844548E
:1044900001200F49087007E04FF400710B48FCF74A
:1044A00039F900200849088040F22771054800F0DA
:1044B00039F828B1002240F22771024800F05CF878
:1044C00010BD0000004800403C00002012110020F8
:1044D0004000002010B50022002340F66A14A142DB
:1044E00000D100BF0A1201249440A3B2DC4304802F
:1044F00010BD21B1828942F40052828104E0828998
:104500004DF6FF731A408281704702460020B1F5D4
:10451000007F00D100BF13880B400BB1012000E0E9
:104520000020704770B502460024002300250020BB
:1045300040F66A16B14200D100BFC1F3421501F046
:104540001F03012606FA03F3012D02D19689334099
:1045500006E0022D02D1168A334001E0968A3340EC
:104560000C12012606FA04F41688344013B10CB17B
:10457000012000E0002070BDF0B5034600240026B5
:104580000025002040F66A17B94200D100BF184646
:10459000C1F3421401F01F06012707FA06F5012CAA
:1045A00001D10C3004E0022C01D1103000E01430B5
:1045B0001AB107682F43076002E00768AF4307603E
:1045C000F0BD00002DE9F04786B005460E460024F8
:1045D000A24600BFA1460027B08900B100BF2F4608
:1045E0002C8A4CF6FF700440F08804432C82AC897E
:1045F0004EF6F3100440B0883189084371890843AE
:104600000443AC81AC8A4FF6FF400440B0890443B8
:10461000AC8201A8FFF7A0FB1F48874202D1DDF85A
:1046200010A001E0DDF80CA0A88900F4004040B122
:104630000AEBCA0000EB0A1031684900B0FBF1F840
:1046400007E00AEBCA0000EB0A1031688900B0FBF2
:10465000F1F86420B8FBF0F004012009642101FBAB
:104660001089A88900F4004040B1322000EBC90055
:10467000B0FBF1F000F00700044308E0322000EB4B
:1046800009106421B0FBF1F000F00F0004432C810D
:1046900006B0BDE8F0870000003801400FB470B5E7
:1046A0008AB0064610A8019040213046FFF72DFF42
:1046B00073E00F9800785C281CD10F98401C0F9075
:1046C00000786E2809D072280FD10D21304600F0F5
:1046D00074F80F98401C0F900BE00A21304600F050
:1046E0006CF80F98401C0F9003E00F98401C0F903F
:1046F00000BF4BE00F980078252840D10F98401C50
:104700000F900078642818D0732833D1019810C80E
:1047100001900BE02178304600F04FF800BF4021B7
:104720003046FFF7F2FE0028F9D0641C20780028FC
:10473000F0D10F98401C0F9020E0019820C8019004
:104740002A461AA102A8FBF7D1FD02AC0BE02178A2
:10475000304600F032F800BF40213046FFF7D5FE6A
:104760000028F9D0641C20780028F0D10F98401C54
:104770000F9003E00F98401C0F9000BF06E00F98C9
:1047800010F8011B0F90304600F017F800BF4021D1
:104790003046FFF7BAFE0028F9D00F9800780028BD
:1047A00087D10AB070BC5DF814FB000025640000DE
:1047B00001468888C0F308007047C1F30802828070
:1047C000704700BFFEE7490050EAC12018BF04202F
:1047D0004A0D18BF40F0010040F2FF72B2EB515F8A
:1047E00008BF40F00200012808BF0520704730389C
:1047F0000A2801D2012070470020704710B500F050
:1048000069F800F018F800F0DDF901230022082112
:104810004FF4E13001F0B2FB4FF4E13001F0F4FB72
:104820004FF4165001F032FC2921C82001F062FB40
:10483000FDF7D8F910BD08B54FF4E060FFF734FA82
:104840001C208DF8000000208DF8010002208DF85A
:10485000020001208DF803006846FFF7EDF91D20E6
:104860008DF8000000208DF8010003208DF8020073
:1048700001208DF803006846FFF7DEF925208DF84A
:10488000000001208DF801008DF802008DF8030072
:104890006846FFF7D1F926208DF8000001208DF839
:1048A000010002208DF8020001208DF80300684607
:1048B000FFF7C2F927208DF8000001208DF80100D4
:1048C00003208DF8020001208DF803006846FFF7F1
:1048D000B3F908BD10B501210846FFF7FDF9012124
:1048E0004804FFF7F9F901218804FFF7F5F90121E0
:1048F0000220FFF7F1F901210420FFF70DFA012151
:104900000820FFF709FA01211020FFF705FA01211D
:104910002020FFF701FA01218803FFF7FDF910BD00
:1049200070B500260024002500BF0AE04021094898
:10493000FDF78AFB10B9681CC5B200E00025601CB9
:10494000C4B21E2CF2DB1E2D01DB002070BD012045
:10495000FCE70000001001402DE9F041C1F30A52CC
:10496000A2F2FF362F4A304B0D460446142E2FDAA2
:10497000002E12DA01F0E2FB0022134601F068FD7E
:104980004CD2002DBCBF4FF00045002446DB55EA59
:10499000040018BF254D19D140E0DFF894C02CFA6F
:1049A00006F705EA070C5CEA040C08BFBDE8F081D5
:1049B00001F0C4FB0022134601F04AFD2ED2002D67
:1049C00003DD4FF48010F0400544BD43002425E092
:1049D000332EC8BFBDE8F081A6F1140C4FF0FF37AD
:1049E00027FA0CF73C4208BFBDE8F08101F066FDF4
:1049F0000022134601F02CFD10D2002D0DDD142EE7
:104A000008BF6D1C09D0C6F13400012101FA00F085
:104A10002044A04238BF6D1C0446BC4329462046B2
:104A2000BDE8F0819C7500883CE4377E0000F03FD3
:104A3000FFFF0F002DE9FF5F804689461646254996
:104A40000868C11700EBD1614911234A1160104673
:104A50000068801D21490860B346F11706EB11710B
:104A6000081101F04EFCCDE90001FFF775FFCDE91B
:104A7000020101F017FC07463801FBF7E1FB824613
:104A800039015046FBF746FE00251DE000240AE0F0
:104A900019F804001249085504EB051018F8000035
:104AA00010490855641C0C480068B4EB800FEFDB1C
:104AB000FEF722F9FDF7B4FB102101FB05A00A4621
:104AC0000949FBF7DAFD6D1CBD42DFDB504604B03F
:104AD000BDE8F09F54000020500000204C00002052
:104AE0008F16002023150020331500202DE9FF5FCD
:104AF0008046894627490868C11700EBD1614911F2
:104B0000254A116010460068801D2449086040460F
:104B1000FBF749FD0746BB46F91707EB1171081172
:104B200001F0EFFBCDE90001FFF716FFCDE902012F
:104B300001F0B8FB06467001FBF782FB824671016B
:104B40005046FBF7E7FD00251DE000240AE019F8B8
:104B500004001349085504EB051018F8000011492A
:104B60000855641C0C480068B4EB800FEFDBFEF7BF
:104B7000C3F8FDF75BF9102101FB05A00A460A49BD
:104B8000FBF77BFD6D1CB542DFDB504604B0BDE892
:104B9000F09F000054000020500000204C00002036
:104BA0008F160020231500203315002001460148F0
:104BB000405C7047666C000801460148405C7047E5
:104BC000666D000808B54FF40070ADF800001820BD
:104BD0008DF8030003208DF8020069464F48FDF769
:104BE000A8F94FF48060ADF8000004208DF80300B0
:104BF00003208DF8020069464848FDF79AF9042021
:104C0000ADF8000018208DF8030003208DF8020095
:104C100069464248FDF78DF90820ADF800000420F0
:104C20008DF8030003208DF8020069463B48FDF72C
:104C300080F94FF48060ADF8000018208DF8030073
:104C400003208DF8020069463548FDF772F94FF4EC
:104C50000060ADF8000004208DF8030003208DF8FB
:104C6000020069462E48FDF764F90120ADF8000006
:104C700003208DF8020010208DF8030069462848B3
:104C8000FDF757F90220ADF8000003208DF802006F
:104C900014208DF8030069462148FDF74AF94020A9
:104CA000ADF8000048208DF8030069461D48FDF767
:104CB00040F93020ADF8000003208DF802004820B4
:104CC0008DF8030069461548FDF733F90320ADF868
:104CD00000008DF8020010208DF80300694611488D
:104CE000FDF727F90820ADF8000003208DF8020039
:104CF00010208DF8030069460A48FDF71AF91020C4
:104D0000ADF8000003208DF8020010208DF803009C
:104D100069460448FDF70DF908BD00000008014090
:104D2000000C01400010014070B5044600252146EA
:104D30000248FBF702FC0546284670BD120F002012
:104D400030B5ADF5017D4FF4007101A8FBF704FD0E
:104D50000025B94800780A2873D2DFE800F0051171
:104D6000317393B3E6FBFAF900F0D2F94FF47A709D
:104D700001F0E8F8B0480078401CAF49087056E1EF
:104D800042F210734FF44872ACA1ADA000F0C2F92A
:104D9000044644B1A8480078401CA7490870002088
:104DA000A94908700BE0A8480078401CA649087083
:104DB00008460078052802DD00209F49087036E18A
:104DC00042F210734FF448729CA1A0A000F0A2F927
:104DD0000446002C28D0A0A12046FBF7AEFB70B102
:104DE00095480078401C9449087000209649087046
:104DF000914802789BA19E48FFF750FC20E09DA1BE
:104E00002046FBF79AFB30B104208B490870002044
:104E10008D49087014E09BA12046FBF78EFB78B10A
:104E20000020854908700BE087480078401C8649BF
:104E3000087008460078052802DD00207E490870C9
:104E4000F5E0F3E041F288334FF448727BA190A083
:104E500000F060F9044644B177480078401C764978
:104E600008700020784908700BE077480078401CF3
:104E70007549087008460078052802DD00206E4953
:104E80000870D4E041F288334FF4487279A16FA0E2
:104E900000F040F9044644B167480078401C664978
:104EA00008700020684908700BE067480078401CD3
:104EB0006549087008460078052802DD00205E4933
:104EC0000870B4E04FF47A7332225CA173A000F052
:104ED00021F90446E4B121466548FFF7DFFB73A1E1
:104EE0002046FBF72AFB0546102205F10C0172480B
:104EF000FBF7C3FB704A71A15D48FFF7CFFB4E483B
:104F00000078401C4C49087000204F4908700BE0A5
:104F10004D480078401C4C49087008460078052828
:104F200002DD00204449087081E041F288334FF4EB
:104F3000487250A145A000F0EDF804465CB13E482F
:104F40000078401C3C49087000203F4908700EE082
:104F500068E03AE00CE03C480078401C3A490870B0
:104F600008460078052802DD0020334908705EE01D
:104F700056A0514B57A25CA1009001A8FBF7B6F9CF
:104F800001AA4EA13A48FFF789FB4FF4FA634FF4A8
:104F900048722AA101A800F0BDF8044644B1264891
:104FA0000078401C244908700020274908700BE055
:104FB00025480078401C24490870084600780528D8
:104FC00002DD00201C49087031E040A03A4B48A2A5
:104FD00045A1009001A8FBF789F901AA49A124483D
:104FE000FFF75CFB4FF4FA634FF4487213A101A87A
:104FF00000F090F8044644B10F480078401C0E4978
:1050000008700020104908700BE00F480078401C21
:105010000D49087008460078052802DD0020064981
:10502000087004E0FF200449087000E000BF00BFE2
:105030000DF5017D30BD0000450000204F4B000004
:1050400041540D0A000000004400002041542B533D
:1050500054415455530D0A004D515454205245416A
:10506000445900005354415455533D25640D0A00E2
:10507000003801404D51545420434F4E4E45435447
:10508000204F4B004D51545420434C4F534500008A
:1050900041542B53544152540D0A000041542B43A8
:1050A0004C49454E5449443F0D0A00002B434C499E
:1050B000454E5449443A2000121500206C6F636B32
:1050C0005F69643D25730D0A000000002C320D0A53
:1050D0000000000041542B5355425343524942456E
:1050E0003D62656C6C2F00002573257325730000ED
:1050F00041542B5355425343524942453D6C6F63D3
:105100006B2F00006C6F636B3D25730D0A00000070
:10511000704700002DE9F041ADF5007D04460D46D5
:1051200016461F464FF001084FF400716846FBF722
:1051300013FB00210E2000F00FFF43E04FF400713D
:105140002348FBF7E7FA002022490880224908702B
:1051500021462248FFF7A2FA304600F0F3FE012074
:105160001D4908701A4A1EA12148FFF797FA2846E0
:10517000FFF7DAFDD8B14FF000080020164908709B
:105180004FF4007212496846FBF777FA69461848EF
:10519000FFF784FA4FF400710D48FBF7BBFA0020CB
:1051A0000C49088068460DF5007DBDE8F081394660
:1051B0000E2000F0D1FE28B94FF00008002006496B
:1051C0000870F0E7B8F1000FB8D100BFEBE70000BE
:1051D000120F00203A0000203F0000200044004051
:1051E0007573617274325F627566663D2573000087
:1051F0000038014010B501210348FCF730FF0221BF
:105200000148FCF72AFF10BD0010014070B50024D2
:105210000026002500BF0AE020210948FCF714FF02
:1052200010B9681CC5B200E00025601CC4B21E2C79
:10523000F2DB0A2D01DB002600E00126304670BDBE
:105240000008014070B500240026002500BF0AE0D8
:1052500010210948FCF7F8FE10B9681CC5B200E03F
:105260000025601CC4B21E2CF2DB0A2D01DB0026D7
:1052700000E00126304670BD0008014010B5012154
:105280000348FCF7EAFE02210148FCF7E8FE10BDE6
:105290000010014010B501210348FCF7DEFE022199
:1052A0000148FCF7DAFE10BD0010014086B000BFD7
:1052B00000BF00BFFFF7A2FAF9A1FD48FFF7EEF922
:1052C000FEE30AE0FFF73CFDFA480078FF2804D12E
:1052D0001021F948FEF768FA00E0F3E700BFF7484D
:1052E000007801287BD11021F548FCF7B8FE85E055
:1052F00000F0ECFEF349F448FCF7B3FEFCF712FFB4
:10530000F148D0F8810000286BD0EF48D0F8860033
:10531000002866D04FF40071EA48FBF7FBF9EB4A2E
:10532000EBA1E348FFF7BAF9EB4AE9A1E048FFF740
:10533000B5F96421E948FBF7EDF9E9A0DE4BEAA2F3
:10534000EFA10090E548FAF7D1FF4FF4FA634FF46C
:105350009672EDA1E148FFF7DDFE0446002C36D041
:105360004FF40071E948FBF7D5F94FF40071E848B4
:10537000FBF7D0F930207D21D44AD74BCDE900216D
:1053800002907B22E3A1E148FAF7B0FFDF4AE4A1F3
:10539000C748FFF783F9E74ADD49DC48FCF7F6FB2D
:1053A000E44AE5A1C248FFF779F9D94AE5A1C04826
:1053B000FFF774F900234FF4C872E6A1D448FFF751
:1053C000A9FE04461CB10021062000F0C5FD1021F5
:1053D000BB48FCF742FE0120B84908700FE00FE01F
:1053E000FFE7DD49032000F0B7FD38B91021B448CC
:1053F000FCF733FE0120B149087000E078E700BFF8
:1054000000F0E2FD00F020FE0A210020FCF772FE11
:10541000D2490880098840F6E44201FB02F0C11736
:1054200000EB1151C1F30F31CC4A118010460088B6
:1054300058214843142190FBF1F01146088008469A
:105440000088A0F598508838642148434FF41661CD
:1054500090FBF1F0C2490880C249012000F07CFDB8
:10546000002853D10120C049087064219B48FBF7F4
:1054700051F9BEA0904B9CA2A1A100909748FAF7C9
:1054800035FF964ABBA18A48FFF708F94FF4FA6343
:105490004FF496729CA19148FFF73CFE0446002C05
:1054A00034D04FF400719948FBF734F94FF4007190
:1054B0009748FBF72FF9B2A02221B2A30A46CDE903
:1054C0000010B2A19148FAF711FF904A94A17848D0
:1054D000FFF7E4F8974A8E498C48FCF757FB954A4A
:1054E00095A17348FFF7DAF8894A96A17048FFF74B
:1054F000D5F800234FF4967296A18548FFF70AFE6F
:1055000004461CB10021062000F026FDA2A1A648F9
:10551000FBF713F8A54908606749A4480068FBF742
:105520000CF8A34908600C229BA1A0480068FBF777
:1055300059F8002879D110219E48FCF785FD28B143
:1055400020219C48FCF780FD00286ED10021062018
:1055500000F002FD98A15648FFF7A0F84FF4007143
:105560009848FBF7D7F84FF400716848FBF7D2F87A
:105570008E48016821319348FAF7F1FF914A92A1D0
:105580004B48FFF78BF86B4A8E496048FCF7BDFA31
:105590005E48007831281CD110218648FCF754FD64
:1055A00098B920218348FCF74FFD01280DD1002137
:1055B000052000F0D1FC0120884908708849087056
:1055C00088A13B48FFF76AF82AE000208449087068
:1055D00026E04E48007832281CD110217548FCF78F
:1055E00033FD012812D120217248FCF72DFD68B946
:1055F0000021042000F0B0FC0120784908707E49A9
:1056000008707EA12A48FFF749F809E000207A498E
:10561000087005E03D480078302801D1FFF73AFED8
:105620004FF400716048FBF775F86D480078012869
:1056300034D14FF47A61052000F08EFC40B901208E
:1056400073490870FFF7D6FD72A11948FFF726F8D5
:1056500075A11748FFF722F810215648FCF7F4FC13
:1056600058B920215348FCF7EFFC012805D1FFF77A
:1056700005FE70A10E48FFF711F8FFF7C7FD0028DF
:105680000DD170A10A48FFF709F8002054490870AD
:10569000FFF700FE002051490870DBE097E12CE1A4
:1056A0007561727431206973206F6B0D0A00000000
:1056B0000038014045000020121500202500002080
:1056C00000100140C008002028050020EC05002043
:1056D00025730D0A00000000CE0500205C060020A6
:1056E0002C36342C320D0A0041542B5055424C4973
:1056F00053483D6C6F636B646174612F0000000060
:1057000025732573257300003E000000180100205A
:1057100018030020256325732C25732563000000E2
:1057200065787072657373546578743D25730D0ADE
:1057300000000000180500206165734B65793D2568
:10574000730D0A00636970686572546578743D254D
:10575000730D0A004F4B0000E0930400040000208A
:105760000600002080EE3600080000202C32342C89
:10577000320D0A006363633D25730D0A00000000CB
:105780003230000062617474657279007B25632594
:105790007325633A25737D00746F7069633A206CDA
:1057A0006F636B2F00000000C00600200C0000207B
:1057B00010000020000801406C6F636B206461746E
:1057C000610D0A0000010020726563656976655409
:1057D0006578743D25730D0A00000000010000206B
:1057E000160000204C6F636B5F4F70656E31313176
:1057F00031310D0A00000000190000204C6F636B6E
:105800005F436C6F736531313131310D0A00000037
:10581000140000204C6F636B5F4F70656E207469DD
:105820006D65720D0A0000004C6F636B5F4F706511
:105830006E0D0A00414141206C6F636B5F6F7065B4
:105840006E0D0A00414141206C6F636B5F73746F92
:10585000700D0A00F4A0F64BF6A2AFF25C110090B6
:10586000FA48FAF743FDF94AF9A1FD48FEF716FF99
:105870004FF4FA634FF49672AFF27411F348FFF7E6
:1058800049FC0446002C38D04FF40071F548FAF773
:1058900041FF4FF40071F448FAF73CFFF3A02221D6
:1058A000F3A2CDE90212CDE90410F2A0F2A30A4658
:1058B000CDE90010F1A1EB48FAF718FDE94AAFF283
:1058C000A011E748FEF7EAFEF24AE749E548FCF78F
:1058D0005DF9E54AAFF29411E148FEF7DFFE0023DF
:1058E0004FF49672AFF29411DF48FFF713FC0446B1
:1058F0001CB10021062000F02FFB1021E648FCF728
:10590000A3FB002863D12021E348FCF79DFB01287D
:105910005DD1E2480078012859D10020DF490870A4
:10592000DF490870FFF7B6FC0020DE490870DEA1F1
:10593000CB48FEF7B3FEBCA0BD4BBEA2AFF24021E8
:105940000090C248FAF7D2FCC04AC1A1C448FEF791
:10595000A5FE4FF4FA634FF49672AFF25421BB48A0
:10596000FFF7D8FB044694B34FF40071BD48FAF733
:10597000D1FE4FF40071BC48FAF7CCFEBDA0222145
:10598000BBA2CDE90212CDE90410BAA0BAA30A461F
:10599000CDE90010B9A1B348FAF7A8FCB14AAFF2BB
:1059A0008021AF48FEF77AFEBA4AAF49AD48FCF70E
:1059B000EDF800234FF49672AFF26821AA48FFF782
:1059C000A9FB04461CB10021062000F0C5FABB4823
:1059D0000078012875D14FF47A61042000F0BCFAF8
:1059E00040B9FFF74BFC0120B5490870B5A19C48B0
:1059F000FEF754FEB8A19A48FEF750FE1021A648C3
:105A0000FCF722FB01280AD12021A348FCF71CFB4C
:105A100028B9FFF7EFFBB4A19148FEF73FFEFFF76F
:105A200011FC00285AD1A5490870FFF733FC00206B
:105A30009C490870B1A18A48FEF730FE7AA07C4BE1
:105A40007CA2AFF2443100908048FAF74FFC7F4AC5
:105A5000AEA18348FEF722FE4FF4FA634FF496722C
:105A6000AFF25C317948FFF755FB044654B34FF46D
:105A700000717C48FAF74EFE4FF400717A48FAF74D
:105A800049FE7AA022217AA2CDE90212CDE90410C2
:105A9000A4A079A30A46CDE9001078A17148FAF7CD
:105AA00025FC704AAFF288316D48FEF7F7FD794A60
:105AB0006D496C48FCF76AF800234FF4967202E0D7
:105AC000DBE16FE00AE0AFF274316748FFF722FBD9
:105AD00004461CB10021062000F03EFA10216E4859
