:020000040800F2
:10000000F8180020D5010008830D0008B909000880
:100010007F0D00089D0800088B18000800000000F4
:10002000000000000000000000000000810F000838
:10003000A108000800000000090E00086D1000086B
:10004000EF010008EF010008EF010008EF010008D0
:10005000EF010008EF010008EF010008EF010008C0
:10006000EF010008EF010008EF010008EF010008B0
:10007000EF010008EF010008EF010008EF010008A0
:10008000EF010008EF010008EF010008EF01000890
:10009000EF010008EF010008EF010008EF01000880
:1000A000EF010008EF010008EF010008EF01000870
:1000B000D1100008EF010008EF010008EF0100086F
:1000C000EF010008EF010008EF010008EF01000850
:1000D000EF01000805140008911400081515000828
:1000E000EF010008EF010008EF010008EF01000830
:1000F000EF010008EF010008EF010008EF01000820
:10010000EF010008EF010008EF010008EF0100080F
:10011000EF010008EF010008EF010008EF010008FF
:10012000EF010008EF010008EF010008EF010008EF
:1001300000F002F800F03FF80AA090E8000C8244BA
:100140008344AAF10107DA4501D100F034F8AFF297
:10015000090EBAE80F0013F0010F18BFFB1A43F0A5
:10016000010318476C2400008C240000103A24BFBF
:1001700078C878C1FAD8520724BF30C830C144BF0C
:1001800004680C607047000000230024002500264E
:10019000103A28BF78C1FBD8520728BF30C148BFEA
:1001A0000B607047642900F04B80002070471FB53A
:1001B0001FBD10B510BD00F076FA1146FFF7F7FF2E
:1001C00001F07CFE00F094FA03B4FFF7F2FF03BCE9
:1001D00000F098FA0948804709480047FEE7FEE723
:1001E000FEE7FEE7FEE7FEE7FEE7FEE7FEE7FEE7E7
:1001F00004480549054A064B704700007110000885
:1002000031010008F8120020F8180020F81400202E
:10021000F81400200FB41CB5084B06AA7B446946AD
:100220000090059800F021FA04460020694600F08D
:100230002FFA20461CBC5DF814FB0000710400007E
:100240002DE9F0410646002410687529314616A5AF
:1002500010D0AFF30080002802DA404213A507E077
:1002600031688A0701D512A502E0490704D511A516
:10027000012401E0AFF3008000210A2206F12407E7
:1002800009E0B0FBF2FCB0FBF2F302FB1C003030E3
:1002900078541846491C0028F3D123462A46304694
:1002A000BDE8F04100F083B9000000002D0000001F
:1002B0002B000000200000002DE9F0474FF0000A5D
:1002C00089460446C0F820A02046E16888470028F7
:1002D00076D0252806D0D4E901219047206A401C19
:1002E0002062F1E7E168204600258847C4F81CA099
:1002F00006460027C4F818A02A2E09D0304601F07F
:10030000C6FA38B304EB8708303EC8F8186019E025
:1003100059F8041B204604EB87029161E168884785
:10032000012F064618D1E069002820DA25F02005C3
:100330001DE0D8F8180000EB800006EB40003038D4
:10034000C8F818002046E1688847064601F09FFA81
:100350000028EED1012F0AD02E2E08D12046E168C8
:1003600088477F1C0646022F45F02005C4DBA069A4
:10037000002803DA404245F00105A061E80701D0FA
:1003800025F01005B6B1A6F14100192802D8203693
:1003900045F400654A463146204625604D46FFF744
:1003A00001FF58B1012806D0ED1D25F0070000F12E
:1003B000080989E704E005F1040985E730468AE782
:1003C000206ABDE8F08730B505460B462A4613F88B
:1003D000014B12F8010B08B1A042F8D01CB1002863
:1003E00002D06D1CF1E7284630BD10B5431C02E079
:1003F00010F8011B71B18107FAD14FF0013202C828
:100400008C1A8C4314EAC211F9D0C01A0A0603D020
:10041000C01E10BDC01A10BD0A0401D0801E10BD40
:100420000902FCD0401E10BD032A40F2308010F0BB
:10043000030C00F0158011F8013BBCF1020F62447F
:1004400098BF11F801CB00F8013B38BF11F8013B10
:10045000A2F1040298BF00F801CB38BF00F8013BBD
:1004600011F0030300F02580083AC0F0088051F82D
:10047000043B083A51F804CBA0E80810F5E7121D38
:100480005CBF51F8043B40F8043BAFF30080D20757
:1004900024BF11F8013B11F801CB48BF11F8012B23
:1004A00024BF00F8013B00F801CB48BF00F8012B46
:1004B000704710B5203AC0F00B80B1E81850203AD0
:1004C000A0E81850B1E81850A0E81850BFF4F5AFF4
:1004D0005FEA027C24BFB1E81850A0E8185044BF7E
:1004E00018C918C0BDE810405FEA827C24BF51F8EB
:1004F000043B40F8043B08BF7047D20728BF31F8DF
:10050000023B48BF11F8012B28BF20F8023B48BF2F
:1005100000F8012B70474FF000020429C0F0128050
:1005200010F0030C00F01B80CCF1040CBCF1020FA6
:1005300018BF00F8012BA8BF20F8022BA1EB0C017B
:1005400000F00DB85FEAC17C24BF00F8012B00F871
:10055000012B48BF00F8012B70474FF0000200B597
:10056000134694469646203922BFA0E80C50A0E8D6
:100570000C50B1F12001BFF4F7AF090728BFA0E884
:100580000C5048BF0CC05DF804EB890028BF40F850
:10059000042B08BF704748BF20F8022B11F0804F92
:1005A00018BF00F8012B70477047704770472DE95E
:1005B000F0470D4699469246044600F1240801682A
:1005C000880604D5E06921F01001216000E00120D7
:1005D000A84201DD471B00E00027A1697A1902EB60
:1005E0000900081AA0612078C00602D42046AFF3A3
:1005F0000080002608E0D4E901211AF8060090479F
:10060000206A401C761C20624E45F4DB2078C00630
:100610000AD52046AFF3008006E0D4E9012130205E
:100620009047206A401C2062381EA7F10107F4DCC5
:1006300007E0D4E9012118F805009047206A401C22
:100640002062281EA5F10105F3DC2046AFF30080EF
:100650002078000602D50220BDE8F0870120FBE7E4
:1006600001694A1C02610878704700B58FB0CDE976
:1006700001310021059105497944CDE90310114666
:100680006846FFF719FE0FB000BD0000E5FFFFFF51
:100690000A6802F8010B0A607047000000487047C2
:1006A0009412002070477546FFF7F8FFAE4605002C
:1006B0006946534620F00700854618B020B5FFF77D
:1006C00097FDBDE820404FF000064FF000074FF0C7
:1006D00000084FF0000B21F00701AC46ACE8C00960
:1006E000ACE8C009ACE8C009ACE8C0098D46704769
:1006F00010B50446AFF300802046BDE81040FFF778
:1007000063BD000001491820ABBEFEE726000200D1
:1007100021B1826842F00102826003E0826822F027
:10072000010282607047000010B5044612488442FE
:1007300008D10121401500F0A5FB0021601500F053
:10074000A1FB17E00D48844208D10121001500F0FB
:1007500099FB0021201500F095FB0BE0084884422E
:1007600008D10121C80300F08DFB00214FF40040A7
:1007700000F088FB10BD000000240140002801406B
:10078000003C0140014600208A6802F004020AB1E0
:10079000012000E000207047014600208A6802F036
:1007A00008020AB1012000E00020704730B502467F
:1007B0000020002350680F4C20400D790C6844EA5B
:1007C00005242043506090680B4C2040D1E902542E
:1007D0002C434D7944EA450420439060D06A20F4CC
:1007E00070000C7C641EE4B2234340EA0350D062E4
:1007F00030BD0000FFFEF0FFFDF7F1FF816841F022
:10080000080181607047816841F004018160704790
:1008100000B587B001214FF4017000F023FB4FF4C5
:10082000004000F0F3FA0120ADF8040000208DF83C
:10083000070001A9174800F034F81748FFF774FFC4
:10084000002002908DF80C008DF80D004FF4602010
:1008500004900020059001208DF8180002A90E4890
:10086000FFF7A4FF01210C48FFF752FF0A48FFF7EA
:10087000C5FF00BF0848FFF78FFF0028FAD10648E0
:10088000FFF7C1FF00BF0448FFF77CFF0028FAD143
:1008900007B000BD000801400024014000BFFEE792
:1008A00070472DE9F0410246002500260020002374
:1008B0000024002791F803C00CF00F0591F803C045
:1008C0000CF0100CBCF1000F03D091F802C04CEA00
:1008D000050591F800C0BCF1000F31D0146800206C
:1008E0002BE04FF0010C0CFA00F3B1F800C00CEA59
:1008F00003069E4220D183004FF00F0C0CFA03F741
:10090000BC4305FA03FC4CEA040491F803C0BCF1B3
:10091000280F06D14FF0010C0CFA00FCC2F814C0ED
:100920000AE091F803C0BCF1480F05D14FF0010C6B
:100930000CFA00FCC2F810C0401C0828D1D3146087
:10094000B1F800C0BCF1FF0F34DD546800202EE088
:1009500000F1080C4FF0010808FA0CF3B1F800C0E0
:100960000CEA03069E4221D183004FF00F0C0CFAD3
:1009700003F7BC4305FA03FC4CEA040491F803C0F6
:10098000BCF1280F05D100F1080C08FA0CF8C2F8E8
:10099000148091F803C0BCF1480F07D100F1080C96
:1009A0004FF0010808FA0CF8C2F81080401C082823
:1009B000CED35460BDE8F08100BFFEE72DE9FF47CC
:1009C00004460D46164699460020039002960027DD
:1009D0008046009002A801F051FB8DF80C000398AE
:1009E000C0F30310022800D01FE001A9029800F014
:1009F0004DF88046029908440290DDE9011047183D
:100A00000298381A022800DA0FE002A801F036FB3B
:100A10008DF80000009800F00100207002A801F09D
:100A20002DFB28704FF0010800BF404604B0BDE820
:100A3000F0872DE9F84305460C46012600270020E3
:100A4000206000BF4FF0FF38781C0746042801DD06
:100A500000BF17E001216846A8478046B8F1010FA2
:100A600000D00FE09DF8001001F07F01206801FB2D
:100A700006002060F6019DF8000000F080000028CC
:100A8000E0D100BF3846BDE8F883000070B50446E9
:100A90000D460348046029460248FFF7CAFF70BDAF
:100AA00064000020C119000830B50246002300BFD1
:100AB0000846CD1701EB5565ED11A1EBC515ECB25C
:100AC000CD1701EB5565E911002901DD44F08004E3
:100AD00018465B1C14540029EADC184630BD00009F
:100AE000401C802801DA401C0AE0B0F5804F01DA92
:100AF000801C05E00349884201DAC01C00E0001DAB
:100B000070470000FFFF1F002DE9FC4104460F461F
:100B100015464FF0FF38002001900026009001217B
:100B20002046A847012800D027E00126694628462C
:100B3000FFF77FFF601C0099FFF7B6FF064400989F
:100B40003044B84200DD18E0009830B1A019009997
:100B5000A8470099884200D00FE020788DF8040063
:100B60000198C0F3031840F2022105480068FFF71E
:100B7000D2FC00200349086000BF4046BDE8FC816C
:100B800038000020680000202DE9FE4305460E468F
:100B90001446029500200190009000274FF0FF3886
:100BA000204600F0A5F807468146FFF799FFB042BE
:100BB00002DD6FF001088FE000208DF8040001983D
:100BC00020F0F000103001909DF8041002A801F010
:100BD0003DFC39460298FFF767FF029908440290EE
:100BE000207A042808D13EA102A801F01BFC0421B0
:100BF00002A801F02BFC07E03BA102A801F012FCC7
:100C0000032102A801F022FC00208DF80000A17E43
:100C1000009861F341000090E07E08B1012100E0FE
:100C20000021009861F3820000900098C0F38000DA
:100C300058B194F83D10009861F3C400009094F806
:100C40003C10009861F345100090206C08B9A06C2E
:100C500020B1009820F0800080300090E06C08B94E
:100C6000606D20B1009820F04000403000909DF869
:100C7000001002A801F0EAFB218B02A801F0ECFBB6
:100C800002A8D4E90423E16801F0FEFBE07E58B13C
:100C900002A8D4E90A23616A01F0F6FB02A8D4E9AC
:100CA0000D23216B01F0F0FB0098C0F3C01028B1B8
:100CB00002A8D4E91123216C01F0E6FB0098C0F3EF
:100CC000801028B102A8D4E91423E16C01F0DCFB08
:100CD0000298A0EB050800BF4046BDE8FE83000077
:100CE0004D515454000000004D5149736470000090
:100CF00070B504460025207A032801D10C2503E0B5
:100D0000207A042800D10A25D4E90412E06800F012
:100D10002AF8801C0544E07E68B1D4E90A12606AB2
:100D200000F021F8861CD4E90D12206B00F01BF8AE
:100D30003044801C0544206C08B9A06C30B1D4E963
:100D40001112206C00F00FF8801C0544E06C08B90B
:100D5000606D30B1D4E91412E06C00F004F8801C2E
:100D60000544284670BD37B50024009820B100988E
:100D7000FFF73BFB044600E0019C20463EBD00BF60
:100D8000FEE7704770B5002100230F22C47804B33A
:100D9000154C246804F4E064C4F5E064210AC1F150
:100DA0000403CA40447804FA03F1847814402143D0
:100DB00009010E4C0678A155047804F01F050124A2
:100DC000AC4005786D11AD0005F1E025C5F8004196
:100DD00009E0047804F01F050124AC40044D0678B6
:100DE000761145F8264070BD0CED00E000E400E00F
:100DF00080E100E002490143024A116070470000AF
:100E00000000FA050CED00E07047000001460020EC
:100E1000034A506820F44040084350607047000087
:100E20000010024029B1064AD2690243044BDA613C
:100E300004E0034AD2698243014BDA617047000043
:100E40000010024029B1064A12690243044B1A619C
:100E500004E0034A12698243014B1A6170470000A3
:100E60000010024029B1064A92690243044B9A617C
:100E700004E0034A92698243014B9A617047000083
:100E80000010024029B1064AD2680243044BDA60DE
:100E900004E0034AD2688243014BDA6070470000E5
:100EA0000010024030B500210022002400232D4D07
:100EB0006D6805F00C0121B1042905D0082923D162
:100EC00005E0294D056022E0284D05601FE0254D15
:100ED0006D6805F47012234D6D6805F480340225A9
:100EE00005EB92421CB9224D554305600BE01D4DA8
:100EF0006D6805F400351DB11E4D5543056002E0D7
:100F00001A4D5543056002E0174D056000BF00BF54
:100F1000144D6D6805F0F0010909174D6B5C05680B
:100F2000DD4045600F4D6D6805F4E061090A124D22
:100F30006B5C4568DD4085600A4D6D6805F4605165
:100F4000C90A0D4D6B5C4568DD40C560054D6D6897
:100F500005F44041890B094D6B5CC568B5FBF3F5A1
:100F6000056130BD0010024000127A00001BB7007E
:100F700000093D00808D5B005000002060000020D3
:100F8000704710B500F002F810BD00000CB500204D
:100F9000019000903348006840F480303149086087
:100FA00000BF3048006800F4003000900198401CF9
:100FB0000190009818B90198B0F5A06FF1D12948B7
:100FC000006800F4003010B10120009001E0002022
:100FD00000900098012843D12348006840F0100099
:100FE000214908600846006820F0030008600846B0
:100FF000006840F0020008601A48406819494860DB
:101000000846406848600846406840F48060486090
:101010000846406820F47C1048600846406840F468
:10102000881048600846006840F08070086000BF83
:101030000C48006800F000700028F9D009484068AA
:1010400020F00300074948600846406840F002006D
:10105000486000BF0348406800F00C000828F9D140
:101060000CBD00000010024000200240704700004C
:1010700010B51348006840F00100114908600846A7
:101080004068104908400E494860084600680E490B
:1010900008400B4908600846006820F4802008607A
:1010A0000846406820F4FE0048604FF41F00886046
:1010B000FFF767FF4FF000600449086010BD0000B3
:1010C000001002400000FFF8FFFFF6FE08ED00E010
:1010D00010B500240121880700F026F9012818D155
:1010E0000121800700F01DF80A48006820B1094876
:1010F0000068401E07490860002408E0064850F8D0
:101100002400401C044941F82400601C84B2122CC5
:10111000F4DB10BD28000020480A0020CA430282E8
:101120007047CA430282704721B1028842F001022F
:10113000028004E002884FF6FE731A400280704776
:1011400010B504466848844208D10121C014FFF755
:1011500099FE0021E014FFF795FEC4E0B4F1804F42
:1011600008D101210846FFF76DFE00210120FFF79D
:1011700069FEB8E05D48844208D101210220FFF7F2
:1011800061FE00210220FFF75DFEACE0584884427A
:1011900008D101210420FFF755FE00210420FFF7AC
:1011A00051FEA0E05348844208D101210820FFF7F6
:1011B00049FE00210820FFF745FE94E04E48844296
:1011C00008D101211020FFF73DFE00211020FFF77C
:1011D00039FE88E04948844208D101212020FFF7E8
:1011E00031FE00212020FFF72DFE7CE044488442A0
:1011F00008D101214014FFF745FE00216014FFF7DC
:1012000041FE70E03F48844209D10121C804FFF744
:1012100039FE00214FF40020FFF734FE63E03A4826
:10122000844209D101210805FFF72CFE00214FF46B
:101230008010FFF727FE56E03448844209D101218F
:101240004805FFF71FFE00214FF40010FFF71AFEBC
:1012500049E02F48844208D101214020FFF7F2FDE8
:1012600000214020FFF7EEFD3DE02A48844208D1EE
:1012700001218020FFF7E6FD00218020FFF7E2FD3D
:1012800031E02548844208D101218015FFF7DAFDBD
:101290000021A015FFF7D6FD25E02048844209D1A2
:1012A00001210804FFF7EEFD00214FF48030FFF725
:1012B000E9FD18E01A48844209D101214804FFF7EA
:1012C000E1FD00214FF40030FFF7DCFD0BE0154895
:1012D000844208D101218804FFF7D4FD00214FF496
:1012E0008020FFF7CFFD10BD002C0140000400401E
:1012F00000080040000C00400010004000140040B6
:1013000000340140004C01400050014000540140B5
:1013100000180040001C0040002000400040014038
:10132000004401400048014030B50246002000233F
:101330000024158A05EA0103958905EA010413B121
:101340000CB1012000E0002030BD1AB183890B43AD
:10135000838102E083898B43838170478184704756
:10136000002202881D4B98420ED01D4B98420BD094
:10137000B0F1804F08D01B4B984205D01A4B9842D1
:1013800002D01A4B984204D14FF68F731A404B8803
:101390001A43174B984207D0164B984204D04FF689
:1013A000FF431A40CB881A4302808B8883850B88C1
:1013B00003850A4B98420BD0094B984208D00E4B3C
:1013C000984205D00D4B984202D00D4B984201D166
:1013D0000B7A03860123838270470000002C0140B2
:1013E000003401400004004000080040000C0040B0
:1013F0000010004000140040004001400044014043
:101400000048014010B5002440F225511D4800F06D
:10141000EDF818B340F225511A4800F0BFF819480A
:1014200000F02AFAC4B200210D2000F05FFE164839
:10143000007898B9154800680088B0F5007F0EDA8A
:10144000124800680188114800680088401C0F4A53
:10145000126810800D480068801C445405E040F27A
:1014600002210A480068FFF756F840F22771054844
:1014700000F0BCF828B1002240F22771014800F0CA
:10148000DFF810BD00380140420000202C00002091
:1014900010B5002440F225511C4800F0A7F800B315
:1014A00040F22551194800F079F800210E2000F093
:1014B0001DFE164800F0E0F9C4B215480068008827
:1014C000B0F5007F0EDA1248006801881048006805
:1014D0000088401C0E4A126810800D480068801C6D
:1014E000445405E040F2022109480068FFF713F870
:1014F00040F22771054800F079F828B1002240F247
:101500002771024800F09CF810BD00000044004024
:101510003000002010B5002440F225511B4800F097
:1015200065F828B340F22551184800F037F800213B
:101530000F2000F0DBFD154800F09EF9C4B21448FE
:101540000088B0F5007F0BDA114801880088401C44
:101550000F4A10800F48445401200F49087007E0DB
:101560004FF400710B48FEF7D6FF002008490880B1
:1015700040F22771054800F039F828B1002240F206
:101580002771024800F05CF810BD000000480040E0
:1015900040000020921000204400002010B50022DE
:1015A000002340F66A14A14200D100BF0A120124B0
:1015B0009440A3B2DC43048010BD21B1828942F47F
:1015C0000052828104E082894DF6FF731A408281C5
:1015D000704702460020B1F5007F00D100BF13889C
:1015E0000B400BB1012000E00020704770B50246AF
:1015F000002400230025002040F66A16B14200D1E5
:1016000000BFC1F3421501F01F03012606FA03F3E0
:10161000012D02D19689334006E0022D02D1168AAF
:10162000334001E0968A33400C12012606FA04F496
:101630001688344013B10CB1012000E0002070BDC9
:10164000F0B50346002400260025002040F66A1766
:10165000B94200D100BF1846C1F3421401F01F0681
:10166000012707FA06F5012C01D10C3004E0022C09
:1016700001D1103000E014301AB107682F43076021
:1016800002E00768AF430760F0BD00002DE9F047B6
:1016900086B005460E460024A24600BFA14600279C
:1016A000B08900B100BF2F462C8A4CF6FF70044071
:1016B000F08804432C82AC894EF6F3100440B088C5
:1016C00031890843718908430443AC81AC8A4FF6E1
:1016D000FF400440B0890443AC8201A8FFF7E2FB5D
:1016E0001F48874202D1DDF810A001E0DDF80CA010
:1016F000A88900F4004040B10AEBCA0000EB0A10D0
:1017000031684900B0FBF1F807E00AEBCA0000EBD2
:101710000A1031688900B0FBF1F86420B8FBF0F0E2
:1017200004012009642101FB1089A88900F400400C
:1017300040B1322000EBC900B0FBF1F000F007002F
:10174000044308E0322000EB09106421B0FBF1F003
:1017500000F00F0004432C8106B0BDE8F0870000C4
:10176000003801400FB470B58AB0064610A8019049
:1017700040213046FFF72DFF73E00F9800785C287A
:101780001CD10F98401C0F9000786E2809D0722849
:101790000FD10D21304600F074F80F98401C0F90C7
:1017A0000BE00A21304600F06CF80F98401C0F90B7
:1017B00003E00F98401C0F9000BF4BE00F9800789B
:1017C000252840D10F98401C0F900078642818D02D
:1017D000732833D1019810C801900BE0217830466E
:1017E00000F04FF800BF40213046FFF7F2FE00281E
:1017F000F9D0641C20780028F0D10F98401C0F907D
:1018000020E0019820C801902A461AA102A8FEF7FC
:1018100001FD02AC0BE02178304600F032F800BF49
:1018200040213046FFF7D5FE0028F9D0641C20780F
:101830000028F0D10F98401C0F9003E00F98401C37
:101840000F9000BF06E00F9810F8011B0F90304674
:1018500000F017F800BF40213046FFF7BAFE00281D
:10186000F9D00F980078002887D10AB070BC5DF8D5
:1018700014FB00002564000001468888C0F30800BE
:101880007047C1F308028280704700BFFEE730381E
:101890000A2801D2012070470020704710B500F0DF
:1018A00069F800F018F800F09FF8012300220821E1
:1018B0004FF4E13000F088FC4FF4E13000F0C2FC5E
:1018C0004FF4165000F002FD2921C82000F0DDFB86
:1018D000FEF79EFF10BD08B54FF4E060FFF78AFAEF
:1018E0001C208DF8000000208DF8010002208DF8EA
:1018F000020001208DF803006846FFF743FA1D201F
:101900008DF8000000208DF8010003208DF8020002
:1019100001208DF803006846FFF734FA25208DF882
:10192000000001208DF801008DF802008DF8030001
:101930006846FFF727FA26208DF8000001208DF871
:10194000010002208DF8020001208DF80300684696
:10195000FFF718FA27208DF8000001208DF801000C
:1019600003208DF8020001208DF803006846FFF780
:1019700009FA08BD10B501210846FFF753FA012105
:101980004804FFF74FFA01218804FFF74BFA0121C1
:101990000220FFF747FA01210420FFF763FA012133
:1019A0000820FFF75FFA01211020FFF75BFA012101
:1019B0002020FFF757FA01218803FFF753FA10BDE3
:1019C00010B50246002309E0064800680078107050
:1019D00004480068401C034C20605B1C8B42F3DB16
:1019E000084610BD6400002008B54FF40070ADF843
:1019F000000018208DF8030003208DF802006946CE
:101A00004F48FEF74EFF4FF48060ADF80000042011
:101A10008DF8030003208DF8020069464848FEF760
:101A200040FF0420ADF8000018208DF803000320CB
:101A30008DF8020069464248FEF733FF0820ADF8F2
:101A4000000004208DF8030003208DF80200694691
:101A50003B48FEF726FF4FF48060ADF800001820E9
:101A60008DF8030003208DF8020069463548FEF723
:101A700018FF4FF40060ADF8000004208DF803005B
:101A800003208DF8020069462E48FEF70AFF012068
:101A9000ADF8000003208DF8020010208DF803003F
:101AA00069462848FEF7FDFE0220ADF8000003203D
:101AB0008DF8020014208DF8030069462148FEF7D6
:101AC000F0FE4020ADF8000048208DF80300694684
:101AD0001D48FEF7E6FE3020ADF8000003208DF82B
:101AE000020048208DF8030069461548FEF7D9FE2C
:101AF0000320ADF800008DF8020010208DF80300DF
:101B000069461148FEF7CDFE0820ADF8000003201D
:101B10008DF8020010208DF8030069460A48FEF790
:101B2000C0FE1020ADF8000003208DF80200102048
:101B30008DF8030069460448FEF7B3FE08BD0000B7
:101B400000080140000C01400010014070B504463F
:101B50000D46002629462046FEF735FC064630464F
:101B600070BD000010B5ECE077480078052876D00D
:101B700005DC75D2DFE800F00C133353780006283B
:101B80006FD007286ED008286DD0FF2868D1D0E02C
:101B900001206D49087000206C490870CBE042F2CA
:101BA00010734FF448726AA16AA000F00BF9044662
:101BB00044B165480078401C6349087000206349BF
:101BC00008700BE061480078401C604908700846C6
:101BD0000078052802DD00205B490870ABE042F286
:101BE00010734FF448725AA15CA000F0EBF8044661
:101BF00044B155480078401C5349087000205349AF
:101C000008700BE051480078401C504908700846A5
:101C10000078052802DD00204B4908708BE042F275
:101C200010734FF448724AA14FA000F0CBF804465D
:101C300044B145480078401C43490870002043499E
:101C400008700BE041480078401C40490870084685
:101C50000078052802DD00203B4908706BE01EE09B
:101C600068E03CE041E060E042F210734FF44872FB
:101C700037A140A000F0A6F8044644B132480078ED
:101C8000401C3149087000203049087006E02F4898
:101C90000078052802DD00202B4908704BE042F255
:101CA00010734FF448722AA135A000F08BF8044657
:101CB00044B125480078401C23490870002023497E
:101CC00008700BE021480078401C20490870084645
:101CD0000078052802DD00201B4908702BE01A4817
:101CE0000078401C1849087025E042F210734FF448
:101CF0007A7226A128A000F065F8044644B1124883
:101D00000078401C104908700020104908700BE052
:101D10000E480078401C0D490870084600780528D8
:101D200002DD00200849087005E0FF200649087020
:101D300001E000E000BF00BF03480078FF2800D1A9
:101D400000E011E700BF10BD49000020480000205E
:101D50004F4B000041540D0A0000000041542B4736
:101D6000534E0D0A0000000041542B4350494E3F92
:101D70000D0A000041542B4353510D0A000000008E
:101D800041542B435245473F0D0A0000434F4E4EEE
:101D9000454354204F4B000041542B43495053546A
:101DA0004152543D22544350222C223131382E339B
:101DB000312E36392E313438222C313838330D0A51
:101DC000000000002DE9F041ADF5007D04460F460E
:101DD00015461E464FF001080021112000F086F93B
:101DE00042E040F2022123480068FEF794FB002005
:101DF0002149087021462148FFF7B4FC284600F02D
:101E00006BF901201C4908701A480168891C1C489C
:101E1000FFF7A8FC394617480068801CFFF796FEBC
:101E2000B8B14FF000080020134908704FF4007259
:101E300010480168891C6846FEF7F6FA40F2022154
:101E40000C480068FEF767FB68460DF5007DBDE8AD
:101E5000F0813146112000F049F928B94FF000080F
:101E6000002005490870F0E7B8F1000FB9D100BFB4
:101E7000EBE7000030000020430000200044004059
:101E8000003801402DE9F04104460D461646012771
:101E90002A462146064800F039FA304600F01CF97F
:101EA00004480168891C0448FFF75CFCBDE8F08128
:101EB00000440040300000200038014008B500BF59
:101EC00000BF00BF00BF00241A200090FFF7E6FC0F
:101ED0001DA12148FFF746FC34E02048007898B95E
:101EE000FFF740FE40F2DC5000F0F6F800F056F844
:101EF0000446012C08D119490870142000F0ECF8B0
:101F000017A11548FFF72EFC00F0BCF900F082F98C
:101F100018A11A480068801CFEF755FA1849086095
:101F20000846006870B140F2022114480068FEF7CC
:101F3000F2FA0020094908701249087012A10648F7
:101F4000FFF710FCC9E700007561727431206973F6
:101F5000206F6B0D0A0000000038014025000020B2
:101F60006D7174745F636F6E6E656374206F6B0D5B
:101F70000A000000434C4F53450000003800002089
:101F80000C000020490000204D515454205345526C
:101F900056455220434C4F53450D0A002DE9F04F52
:101FA000CBB000245822244935A8FEF782FAA04677
:101FB0000026A146C82500270FF2800A40F25B7B6D
:101FC00022A038903C20ADF8EC0001208DF8EE0006
:101FD00035AA294603A8FEF7D7FD07463A4603A9C6
:101FE000304600F0B5F880461EE01E2000F074F880
:101FF000174A294603A8FEF787FD022814D12B466D
:1020000003AA01A902A8FEF7D9FC012802D19DF874
:10201000040030B19DF804200EA11748FFF7A2FB81
:1020200001E0012402E000BF002CDED000BF20460A
:102030004BB0BDE8F08F0000202500083131382E6C
:1020400033312E36392E3134380000006D653100C1
:1020500011210008556E61626C6520746F20636FFA
:102060006E6E6563742C2072657475726E20636F7A
:1020700064652025640A00000038014001460A68B2
:1020800010780A68521C0A607047FEB504460D4677
:102090004FF47A76F006FFF753F80020ADF802000F
:1020A000ADF80600ADF80440ADF800506946F00602
:1020B000FFF756F901218807FFF730F80021F006F5
:1020C000FFF74CF9012211469007FFF73EF9012175
:1020D0008807FFF729F8FEBD0349086000BF0249E1
:1020E00009680029FBD170472800002010B502467E
:1020F0000023064850F82200884204D30020034CF5
:1021000044F8220000E00123D8B210BD480A0020A4
:1021100070B505460C460C4800680088002810DDA4
:1021200009480068801C094A12688118224628461E
:10213000FEF77AF905480068204404490860204603
:1021400070BD00BFFCE700003800002068000020E0
:102150002DE9F84381460D4614460026B0461A2064
:102160008DF800000D208DF801000A208DF8020086
:1021700000208DF803004FF47A7364220CA10DA0A7
:10218000FFF720FE07467FB1224629460D48FEF79D
:102190004BF90C48204400990160E01C81B24FF4D7
:1021A00096720848FFF76EFE26463046BDE8F88373
:1021B0003E00000041542B43495053454E440D0A04
:1021C00000000000D00500202DE9FF4107460C4625
:1021D00015461E460097ADF80440ADF80660ADF810
:1021E00008500020ADF80C000C20ADF80A0069463C
:1021F0000748FFF74BFA012240F225510448FFF748
:102200001FFA01210248FFF7D8F9BDE8FF8100005D
:102210000038014010B514210D20FFF767FF58B9B1
:1022200006480168891C0648FFF79CFA40F2022123
:1022300002480068FEF76FF910BD00002C00002076
:10224000003801401FB5044600940020ADF804009A
:10225000ADF80600ADF80800ADF80C000C20ADF8A4
:102260000A0069460648FFF711FA012240F225519B
:102270000348FFF7E5F901210148FFF79EF91FBD6B
:102280000044004010B514210E20FFF72FFFB0B915
:1022900040F202220A4801680A480068FEF7C4F8C2
:1022A00008480068028807480168891C064800F051
:1022B0002DF840F2022102480068FEF72CF910BD0B
:1022C0003000002038000020003801401FB50446CF
:1022D00000940020ADF80400ADF80600ADF8080049
:1022E000ADF80C000C20ADF80A0069460648FFF76F
:1022F000CDF9012240F225510348FFF7A1F9012150
:102300000148FFF75AF91FBD004800400FB4F0B56F
:1023100089B00746154610A8009040213846FFF7BF
:1023200058F973E00F9800785C281CD10F98401C76
:102330000F9000786E2809D072280FD10D213846F1
:10234000FFF79FFA0F98401C0F900BE00A213846C8
:10235000FFF797FA0F98401C0F9003E00F98401C6E
:102360000F9000BF4BE00F980078252840D10F98C0
:10237000401C0F900078642818D0732833D100983F
:1023800010C800900BE021783846FFF77AFA00BFBA
:1023900040213846FFF71DF90028F9D0641C207849
:1023A0000028F0D10F98401C0F9020E0009840C802
:1023B000009032461AA101A8FDF72CFF01AC0BE0FA
:1023C00021783846FFF75DFA00BF40213846FFF715
:1023D00000F90028F9D0641C20780028F0D10F986B
:1023E000401C0F9003E00F98401C0F9000BF06E0C8
:1023F0000F9810F8011B0F903846FFF742FA00BF04
:1024000040213846FFF7E5F80028F9D0281EA5F14D
:1024100001018DB286D109B0F0BC5DF814FB00005B
:102420002564000070B504460E463046FDF7DDFF1A
:1024300005462946204600F00FF82A463146206816
:10244000FDF7F2FF20682844206070BD026811701B
:102450000268521C0260704710B50A46CB1701EBA8
:1024600013631B0A046823700268521C02600A4648
:10247000CB1701EB13631B12A1EB0323046823703A
:102480000268521C026010BD1FB504460298002865
:102490000DDD20460299FFF7DFFFDDE9022120680C
:1024A000FDF7C2FF20680299084420600AE0019805
:1024B00020B120460199FFF7B5FF03E00021204637
:1024C000FFF7CAFF1FBD00004D515443000000003C
:1024D00004000000000000000000000000000000F8
:1024E0003C0001004D515457000000000000000066
:1024F00000000000000000000000000000000000DC
:1025000000000000000000000000000000000000CB
:1025100000000000000000000000000000000000BB
:102520004D51544300000000040000000000000072
:1025300000000000000000003C0001004D51545715
:10254000000000000000000000000000000000008B
:10255000000000000000000000000000000000007B
:10256000000000000000000000000000000000006B
:1025700000000000000000004D5154430000000026
:102580000400000000000000000000000000000047
:102590003C0001004D5154570000000000000000B5
:1025A000000000000000000000000000000000002B
:1025B000000000000000000000000000000000001B
:1025C000000000000000000000000000000000000B
:1025D000F025000800000020740000006C010008D5
:1025E0006426000874000020841800008801000898
:1025F00000000000000000000000000000000000DB
:1026000000000000000000000000000000040001C5
:10261000010000000000000000000000900A0020FF
:10262000900A0020900A0020900A0020000000007C
:102630000000000000000000000000000000000199
:102640000000000001020304010203040607080958
:102650000204060800000000000000000000000066
:042660000000000076
:0400000508000131BD
:00000001FF
