:020000040800F2
:10000000F8120020D5010008F30A00087D09000855
:10001000EF0A000861080008071600080000000049
:10002000000000000000000000000000F10C0008CB
:100030006508000800000000790B0008DD0D0008CD
:10004000EF010008EF010008EF010008EF010008D0
:10005000EF010008EF010008EF010008EF010008C0
:10006000EF010008EF010008EF010008EF010008B0
:10007000EF010008EF010008EF010008EF010008A0
:10008000EF010008EF010008EF010008EF01000890
:10009000EF010008EF010008EF010008EF01000880
:1000A000EF010008EF010008EF010008EF01000870
:1000B000410E0008EF010008EF010008EF01000801
:1000C000EF010008EF010008EF010008EF01000850
:1000D000EF0100080912000895120008EF0100085E
:1000E000EF010008EF010008EF010008EF01000830
:1000F000EF010008EF010008EF010008EF01000820
:10010000EF010008EF010008EF010008EF0100080F
:1001100075110008EF010008EF010008EF01000869
:10012000EF010008EF010008EF010008EF010008EF
:1001300000F002F800F03FF80AA090E8000C8244BA
:100140008344AAF10107DA4501D100F034F8AFF297
:10015000090EBAE80F0013F0010F18BFFB1A43F0A5
:1001600001031847741D0000941D0000103A24BFBD
:1001700078C878C1FAD8520724BF30C830C144BF0C
:1001800004680C607047000000230024002500264E
:10019000103A28BF78C1FBD8520728BF30C148BFEA
:1001A0000B607047642900F04B80002070471FB53A
:1001B0001FBD10B510BD00F058FA1146FFF7F7FF4C
:1001C00001F012FC00F076FA03B4FFF7F2FF03BC73
:1001D00000F07AFA0948804709480047FEE7FEE741
:1001E000FEE7FEE7FEE7FEE7FEE7FEE7FEE7FEE7E7
:1001F00004480549054A064B70470000E10D000818
:1002000031010008F80C0020F8120020F80E002040
:10021000F80E00200FB41CB5084B06AA7B446946B3
:100220000090059800F003FA04460020694600F0AB
:1002300011FA20461CBC5DF814FB000035040000D8
:100240002DE9F0410646002410687529314616A5AF
:1002500010D0AFF30080002802DA404213A507E077
:1002600031688A0701D512A502E0490704D511A516
:10027000012401E0AFF3008000210A2206F12407E7
:1002800009E0B0FBF2FCB0FBF2F302FB1C003030E3
:1002900078541846491C0028F3D123462A46304694
:1002A000BDE8F04100F064B9000000002D0000003E
:1002B0002B000000200000002DE9F0474FF0000A5D
:1002C00089460446C0F820A02046E16888470028F7
:1002D00076D0252806D0D4E901219047206A401C19
:1002E0002062F1E7E168204600258847C4F81CA099
:1002F00006460027C4F818A02A2E09D0304601F07F
:1003000084F938B304EB8708303EC8F8186019E068
:1003100059F8041B204604EB87029161E168884785
:10032000012F064618D1E069002820DA25F02005C3
:100330001DE0D8F8180000EB800006EB40003038D4
:10034000C8F818002046E1688847064601F05DF9C4
:100350000028EED1012F0AD02E2E08D12046E168C8
:1003600088477F1C0646022F45F02005C4DBA069A4
:10037000002803DA404245F00105A061E80701D0FA
:1003800025F01005B6B1A6F14100192802D8203693
:1003900045F400654A463146204625604D46FFF744
:1003A00001FF58B1012806D0ED1D25F0070000F12E
:1003B000080989E704E005F1040985E730468AE782
:1003C000206ABDE8F08730B505460B462A4613F88B
:1003D000014B12F8010B08B1A042F8D01CB1002863
:1003E00002D06D1CF1E7284630BD032A40F2308070
:1003F00010F0030C00F0158011F8013BBCF1020F66
:10040000624498BF11F801CB00F8013B38BF11F8E6
:10041000013BA2F1040298BF00F801CB38BF00F8FD
:10042000013B11F0030300F02580083AC0F008807A
:1004300051F8043B083A51F804CBA0E80810F5E75E
:10044000121D5CBF51F8043B40F8043BAFF3008041
:10045000D20724BF11F8013B11F801CB48BF11F8B6
:10046000012B24BF00F8013B00F801CB48BF00F886
:10047000012B704710B5203AC0F00B80B1E818503E
:10048000203AA0E81850B1E81850A0E81850BFF47E
:10049000F5AF5FEA027C24BFB1E81850A0E818501D
:1004A00044BF18C918C0BDE810405FEA827C24BF71
:1004B00051F8043B40F8043B08BF7047D20728BFFF
:1004C00031F8023B48BF11F8012B28BF20F8023B4E
:1004D00048BF00F8012B70474FF000020429C0F01C
:1004E000128010F0030C00F01B80CCF1040CBCF166
:1004F000020F18BF00F8012BA8BF20F8022BA1EBB8
:100500000C0100F00DB85FEAC17C24BF00F8012B9C
:1005100000F8012B48BF00F8012B70474FF0000294
:1005200000B5134694469646203922BFA0E80C50E9
:10053000A0E80C50B1F12001BFF4F7AF090728BFC4
:10054000A0E80C5048BF0CC05DF804EB890028BF40
:1005500040F8042B08BF704748BF20F8022B11F069
:10056000804F18BF00F8012B7047704770477047E5
:100570002DE9F0470D4699469246044600F12408BD
:100580000168880604D5E06921F01001216000E0CF
:100590000120A84201DD471B00E00027A1697A196C
:1005A00002EB0900081AA0612078C00602D4204698
:1005B000AFF30080002608E0D4E901211AF8060014
:1005C0009047206A401C761C20624E45F4DB207860
:1005D000C0060AD52046AFF3008006E0D4E9012129
:1005E00030209047206A401C2062381EA7F1010786
:1005F000F4DC07E0D4E9012118F805009047206AEF
:10060000401C2062281EA5F10105F3DC2046AFF353
:1006100000802078000602D50220BDE8F087012086
:10062000FBE7000001694A1C02610878704700B5C9
:100630008FB0CDE901310021059105497944CDE91B
:10064000031011466846FFF737FE0FB000BD0000EB
:10065000E5FFFFFF0A6802F8010B0A60704700001F
:1006600000487047940C002070477546FFF7F8FF6C
:10067000AE4605006946534620F00700854618B08F
:1006800020B5FFF7B5FDBDE820404FF000064FF064
:1006900000074FF000084FF0000B21F00701AC46B7
:1006A000ACE8C009ACE8C009ACE8C009ACE8C009D6
:1006B0008D46704710B50446AFF300802046BDE874
:1006C0001040FFF781BD000001491820ABBEFEE7D6
:1006D0002600020021B1826842F00102826003E03C
:1006E000826822F0010282607047000010B5044663
:1006F0001248844208D10121401500F07BFA002104
:10070000601500F077FA17E00D48844208D1012106
:10071000001500F06FFA0021201500F06BFA0BE0D5
:100720000848844208D10121C80300F063FA00217F
:100730004FF4004000F05EFA10BD000000240140BC
:1007400000280140003C0140014600208A6802F078
:1007500004020AB1012000E0002070470146002099
:100760008A6802F008020AB1012000E00020704708
:1007700030B502460020002350680F4C20400D7910
:100780000C6844EA05242043506090680B4C2040DC
:10079000D1E902542C434D7944EA4504204390604A
:1007A000D06A20F470000C7C641EE4B2234340EA5B
:1007B0000350D06230BD0000FFFEF0FFFDF7F1FFF7
:1007C000816841F0080181607047816841F004014F
:1007D0008160704700B587B001214FF4017000F0CF
:1007E000F9F94FF4004000F0C9F90120ADF8040018
:1007F00000208DF8070001A9174800F034F81748C9
:10080000FFF774FF002002908DF80C008DF80D00AA
:100810004FF4602004900020059001208DF818000E
:1008200002A90E48FFF7A4FF01210C48FFF752FF71
:100830000A48FFF7C5FF00BF0848FFF78FFF0028F1
:10084000FAD10648FFF7C1FF00BF0448FFF77CFF5D
:100850000028FAD107B000BD000801400024014083
:1008600000BFFEE770472DE9F04102460025002653
:10087000002000230024002791F803C00CF00F058E
:1008800091F803C00CF0100CBCF1000F03D091F8EC
:1008900002C04CEA050591F800C0BCF1000F31D050
:1008A000146800202BE04FF0010C0CFA00F3B1F8B3
:1008B00000C00CEA03069E4220D183004FF00F0CCB
:1008C0000CFA03F7BC4305FA03FC4CEA040491F864
:1008D00003C0BCF1280F06D14FF0010C0CFA00FC4C
:1008E000C2F814C00AE091F803C0BCF1480F05D16A
:1008F0004FF0010C0CFA00FCC2F810C0401C082894
:10090000D1D31460B1F800C0BCF1FF0F34DD5468DE
:1009100000202EE000F1080C4FF0010808FA0CF35B
:10092000B1F800C00CEA03069E4221D183004FF0CB
:100930000F0C0CFA03F7BC4305FA03FC4CEA040461
:1009400091F803C0BCF1280F05D100F1080C08FA9A
:100950000CF8C2F8148091F803C0BCF1480F07D11D
:1009600000F1080C4FF0010808FA0CF8C2F81080EA
:10097000401C0828CED35460BDE8F08100BFFEE7DC
:100980002DE9F84305460C4601260027002020608B
:1009900000BF4FF0FF38781C0746042801DD00BF78
:1009A00017E001216846A8478046B8F1010F00D042
:1009B0000FE09DF8001001F07F01206801FB0600A8
:1009C0002060F6019DF8000000F080000028E0D1D2
:1009D00000BF3846BDE8F88330B50246002300BFAB
:1009E0000846CD1701EB5565ED11A1EBC515ECB22D
:1009F000CD1701EB5565E911002901DD44F08004B4
:100A000018465B1C14540029EADC184630BD00006F
:100A10002DE9FC4104460F4615464FF0FF380020F3
:100A200001900026009001212046A847012800D00F
:100A300027E0012669462846FFF7A2FF601C0099BF
:100A4000FFF7CAFF064400983044B84200DD18E0C2
:100A5000009830B1A0190099A8470099884200D0A9
:100A60000FE020788DF804000198C0F3031840F2DD
:100A7000022105480068FFF72FFD002003490860A8
:100A800000BF4046BDE8FC813C000020640000201F
:100A900070B504460D460C222946204600F001F8A8
:100AA00070BD2DE9FC4104460D461646002001901C
:100AB000471E0094022D01DA871E15E000208DF8F4
:100AC0000400019866F3071001909DF80410684631
:100AD00001F0FCF900210098FFF77EFF009908441F
:100AE00000900098071B00BF3846BDE8FC8100BF9E
:100AF000FEE7704770B5002100230F22C47804B3CD
:100B0000154C246804F4E064C4F5E064210AC1F1E2
:100B10000403CA40447804FA03F184781440214362
:100B200009010E4C0678A155047804F01F05012434
:100B3000AC4005786D11AD0005F1E025C5F8004128
:100B400009E0047804F01F050124AC40044D067848
:100B5000761145F8264070BD0CED00E000E400E0A1
:100B600080E100E002490143024A11607047000041
:100B70000000FA050CED00E070470000014600207F
:100B8000034A506820F4404008435060704700001A
:100B90000010024029B1064AD2690243044BDA61CF
:100BA00004E0034AD2698243014BDA6170470000D6
:100BB0000010024029B1064A12690243044B1A612F
:100BC00004E0034A12698243014B1A617047000036
:100BD0000010024029B1064A92690243044B9A610F
:100BE00004E0034A92698243014B9A617047000016
:100BF0000010024029B1064AD2680243044BDA6071
:100C000004E0034AD2688243014BDA607047000077
:100C10000010024030B500210022002400232D4D99
:100C20006D6805F00C0121B1042905D0082923D1F4
:100C300005E0294D056022E0284D05601FE0254DA7
:100C40006D6805F47012234D6D6805F4803402253B
:100C500005EB92421CB9224D554305600BE01D4D3A
:100C60006D6805F400351DB11E4D5543056002E069
:100C70001A4D5543056002E0174D056000BF00BFE7
:100C8000144D6D6805F0F0010909174D6B5C05689E
:100C9000DD4045600F4D6D6805F4E061090A124DB5
:100CA0006B5C4568DD4085600A4D6D6805F46051F8
:100CB000C90A0D4D6B5C4568DD40C560054D6D682A
:100CC00005F44041890B094D6B5CC568B5FBF3F534
:100CD000056130BD0010024000127A00001BB70011
:100CE00000093D00808D5B004E0000205E0000206A
:100CF000704710B500F002F810BD00000CB50020E0
:100D0000019000903348006840F480303149086019
:100D100000BF3048006800F4003000900198401C8B
:100D20000190009818B90198B0F5A06FF1D1294849
:100D3000006800F4003010B10120009001E00020B4
:100D400000900098012843D12348006840F010002B
:100D5000214908600846006820F003000860084642
:100D6000006840F0020008601A484068194948606D
:100D70000846406848600846406840F48060486023
:100D80000846406820F47C1048600846406840F4FB
:100D9000881048600846006840F08070086000BF16
:100DA0000C48006800F000700028F9D0094840683D
:100DB00020F00300074948600846406840F0020000
:100DC000486000BF0348406800F00C000828F9D1D3
:100DD0000CBD0000001002400020024070470000DF
:100DE00010B51348006840F001001149086008463A
:100DF0004068104908400E494860084600680E499E
:100E000008400B4908600846006820F4802008600C
:100E10000846406820F4FE0048604FF41F008860D8
:100E2000FFF767FF4FF000600449086010BD000045
:100E3000001002400000FFF8FFFFF6FE08ED00E0A2
:100E400010B500240121880700F026F9012818D1E7
:100E50000121800700F01DF80A48006820B1094808
:100E60000068401E07490860002408E0064850F862
:100E70002400401C044941F82400601C84B2132C57
:100E8000F4DB10BD28000020440A0020CA4302827F
:100E90007047CA430282704721B1028842F00102C2
:100EA000028004E002884FF6FE731A400280704709
:100EB00010B504466848844208D10121C014FFF7E8
:100EC00099FE0021E014FFF795FEC4E0B4F1804FD5
:100ED00008D101210846FFF76DFE00210120FFF730
:100EE00069FEB8E05D48844208D101210220FFF785
:100EF00061FE00210220FFF75DFEACE0584884420D
:100F000008D101210420FFF755FE00210420FFF73E
:100F100051FEA0E05348844208D101210820FFF788
:100F200049FE00210820FFF745FE94E04E48844228
:100F300008D101211020FFF73DFE00211020FFF70E
:100F400039FE88E04948844208D101212020FFF77A
:100F500031FE00212020FFF72DFE7CE04448844232
:100F600008D101214014FFF745FE00216014FFF76E
:100F700041FE70E03F48844209D10121C804FFF7D7
:100F800039FE00214FF40020FFF734FE63E03A48B9
:100F9000844209D101210805FFF72CFE00214FF4FE
:100FA0008010FFF727FE56E03448844209D1012122
:100FB0004805FFF71FFE00214FF40010FFF71AFE4F
:100FC00049E02F48844208D101214020FFF7F2FD7B
:100FD00000214020FFF7EEFD3DE02A48844208D181
:100FE00001218020FFF7E6FD00218020FFF7E2FDD0
:100FF00031E02548844208D101218015FFF7DAFD50
:101000000021A015FFF7D6FD25E02048844209D134
:1010100001210804FFF7EEFD00214FF48030FFF7B7
:10102000E9FD18E01A48844209D101214804FFF77C
:10103000E1FD00214FF40030FFF7DCFD0BE0154827
:10104000844208D101218804FFF7D4FD00214FF428
:101050008020FFF7CFFD10BD002C014000040040B0
:1010600000080040000C0040001000400014004048
:1010700000340140004C0140005001400054014048
:1010800000180040001C00400020004000400140CB
:10109000004401400048014030B5024600200023D2
:1010A0000024158A05EA0103958905EA010413B1B4
:1010B0000CB1012000E0002030BD1AB183890B4340
:1010C000838102E083898B438381704781847047E9
:1010D000002202881D4B98420ED01D4B98420BD027
:1010E000B0F1804F08D01B4B984205D01A4B984264
:1010F00002D01A4B984204D14FF68F731A404B8896
:101100001A43174B984207D0164B984204D04FF61B
:10111000FF431A40CB881A4302808B8883850B8853
:1011200003850A4B98420BD0094B984208D00E4BCE
:10113000984205D00D4B984202D00D4B984201D1F8
:101140000B7A03860123838270470000002C014044
:10115000003401400004004000080040000C004042
:1011600000100040001400400040014000440140D5
:101170000048014008B50020009040F22551204869
:1011800000F0F2F838B340F225511D4800F0C4F8E1
:101190000021102000F0F0FC194800F02BFAC0B23A
:1011A0000090184800680088B0F5007F14DA9DF8B8
:1011B0000010144800680288124800680088401C2B
:1011C000104B1B6818800F480068801C81546946CA
:1011D0000B4800F085F905E040F20221094800685B
:1011E000FFF77AF940F22771054800F0BDF828B101
:1011F000002240F22771024800F0E0F808BD00002C
:10120000004C00403800002010B5002440F2255169
:101210001D4800F0A9F818B340F225511A4800F013
:101220007BF8194800F0E6F9C4B200210D2000F067
:10123000A3FC1648007898B9154800680088B0F5F6
:10124000007F0EDA124800680188114800680088A3
:10125000401C0F4A126810800D480068801C4454DE
:1012600005E040F202210A480068FFF735F940F234
:101270002771054800F078F828B1002240F2277164
:10128000014800F09BF810BD0038014040000020EC
:101290002C00002010B5002440F225511C4800F01D
:1012A00063F800B340F22551194800F035F80021E9
:1012B0000E2000F061FC164800F09CF9C4B21548FD
:1012C00000680088B0F5007F0EDA124800680188D7
:1012D000104800680088401C0E4A126810800D48B3
:1012E0000068801C445405E040F20221094800686F
:1012F000FFF7F2F840F22771054800F035F828B101
:10130000002240F22771024800F058F810BD00009A
:10131000004400403000002010B50022002340F6B9
:101320006A14A14200D100BF0A1201249440A3B262
:10133000DC43048010BD21B1828942F400528281D5
:1013400004E082894DF6FF731A408281704702469D
:101350000020B1F5007F00D100BF13880B400BB116
:10136000012000E00020704770B5024600240023F1
:101370000025002040F66A16B14200D100BFC1F33B
:10138000421501F01F03012606FA03F3012D02D1D5
:101390009689334006E0022D02D1168A334001E0DF
:1013A000968A33400C12012606FA04F4168834405B
:1013B00013B10CB1012000E0002070BDF0B5034670
:1013C000002400260025002040F66A17B94200D10B
:1013D00000BF1846C1F3421401F01F06012707FAA7
:1013E00006F5012C01D10C3004E0022C01D11030A3
:1013F00000E014301AB107682F43076002E0076865
:10140000AF430760F0BD00002DE9F04786B0054608
:101410000E460024A24600BFA1460027B08900B1B5
:1014200000BF2F462C8A4CF6FF700440F08804431E
:101430002C82AC894EF6F3100440B0883189084301
:10144000718908430443AC81AC8A4FF6FF400440E5
:10145000B0890443AC8201A8FFF7DCFB1F48874238
:1014600002D1DDF810A001E0DDF80CA0A88900F49D
:10147000004040B10AEBCA0000EB0A103168490095
:10148000B0FBF1F807E00AEBCA0000EB0A10316884
:101490008900B0FBF1F86420B8FBF0F004012009EA
:1014A000642101FB1089A88900F4004040B132207A
:1014B00000EBC900B0FBF1F000F00700044308E0C6
:1014C000322000EB09106421B0FBF1F000F00F00B6
:1014D00004432C8106B0BDE8F087000000380140CD
:1014E0000FB470B58AB0064610A80190402130466E
:1014F000FFF72DFF73E00F9800785C281CD10F9840
:10150000401C0F9000786E2809D072280FD10D2151
:10151000304600F074F80F98401C0F900BE00A2141
:10152000304600F06CF80F98401C0F9003E00F98C5
:10153000401C0F9000BF4BE00F980078252840D149
:101540000F98401C0F900078642818D0732833D16E
:10155000019810C801900BE02178304600F04FF858
:1015600000BF40213046FFF7F2FE0028F9D0641C8E
:1015700020780028F0D10F98401C0F9020E00198AF
:1015800020C801902A461AA102A8FEF743FE02AC29
:101590000BE02178304600F032F800BF40213046A1
:1015A000FFF7D5FE0028F9D0641C20780028F0D180
:1015B0000F98401C0F9003E00F98401C0F9000BF45
:1015C00006E00F9810F8011B0F90304600F017F856
:1015D00000BF40213046FFF7BAFE0028F9D00F982F
:1015E0000078002887D10AB070BC5DF814FB0000B9
:1015F0002564000001468888C0F308007047C1F3E5
:1016000008028280704700BFFEE730380A2801D206
:10161000012070470020704710B500F069F800F015
:1016200018F800F08BF80123002208214FF4E13074
:1016300000F01EFB4FF4E13000F058FB4FF4E130B6
:1016400000F098FB2921C82000F064FAFFF7C2F8E7
:1016500010BD08B54FF4E060FFF784FA1C208DF848
:10166000000000208DF8010002208DF8020001200A
:101670008DF803006846FFF73DFA1D208DF8000045
:1016800000208DF8010003208DF8020001208DF864
:1016900003006846FFF72EFA25208DF80000012090
:1016A0008DF801008DF802008DF803006846FFF701
:1016B00021FA26208DF8000001208DF8010002207B
:1016C0008DF8020001208DF803006846FFF712FA3A
:1016D00027208DF8000001208DF8010003208DF8EF
:1016E000020001208DF803006846FFF703FA08BDE9
:1016F00010B501210846FFF74DFA01214804FFF714
:1017000049FA01218804FFF745FA0121C804FFF7CF
:1017100041FA01210420FFF75DFA01210820FFF7BB
:1017200059FA01211020FFF755FA01212020FFF777
:1017300051FA01218803FFF74DFA10BD08B54FF4A7
:101740000070ADF8000018208DF8030003208DF81C
:10175000020069465D48FFF786F84FF48060ADF8F7
:10176000000004208DF8030003208DF80200694674
:101770005648FFF778F80420ADF8000018208DF8DF
:10178000030003208DF8020069465048FFF76BF80C
:101790000820ADF8000004208DF8030003208DF828
:1017A000020069464948FFF75EF84FF48060ADF8E3
:1017B000000018208DF8030003208DF80200694610
:1017C0004348FFF750F84FF40060ADF800000420E4
:1017D0008DF8030003208DF8020069463C48FFF7AE
:1017E00042F84FF48060ADF8000018208DF8030037
:1017F00003208DF8020069463648FFF734F84FF4AD
:101800000060ADF8000004208DF8030003208DF87F
:10181000020069462F48FFF726F80120ADF80000C6
:1018200003208DF8020010208DF803006946284837
:10183000FFF719F80220ADF8000003208DF8020030
:1018400014208DF8030069462148FFF70CF840206A
:10185000ADF8000048208DF8030069461D48FFF7E9
:1018600002F83020ADF8000003208DF80200482077
:101870008DF8030069461548FEF7F5FF0320ADF823
:1018800000008DF8020010208DF803006946114811
:10189000FEF7E9FF0820ADF8000003208DF80200F4
:1018A00010208DF8030069460A48FEF7DCFF10207F
:1018B000ADF8000003208DF8020010208DF8030021
:1018C00069460448FEF7CFFF08BD0000000801404C
:1018D000000C01400010014070B504460D46002682
:1018E00029462046FEF76FFD0646304670BD0000D3
:1018F0002DE9F041ADF5007D04460F4615461E4624
:101900004FF001080021122000F036F942E040F2C9
:10191000022123480068FEF7DFFD002021490870FE
:1019200021462148FFF7DCFD284600F01BF9012085
:101930001C4908701A480168891C1C48FFF7D0FD33
:10194000394617480068801CFFF7C6FFB8B14FF052
:1019500000080020134908704FF400721048016815
:10196000891C6846FEF741FD40F202210C480068E0
:10197000FEF7B2FD68460DF5007DBDE8F081314609
:10198000122000F0F9F828B94FF0000800200549AE
:101990000870F0E7B8F1000FB9D100BFEBE7000025
:1019A0003000002041000020004400400038014089
:1019B0002DE9F04104460D46164601272A462146E8
:1019C000064800F0F7F9304600F0CCF8044801680A
:1019D000891C0448FFF784FDBDE8F0810044004005
:1019E000300000200038014008B500BF00BF00BF34
:1019F00000BF00BF1A200090FFF70EFE14A1184888
:101A0000FFF76EFD17A11B48FFF76AFD1FE000F00E
:101A100055F900F08BF900F045F817A11848006857
:101A2000801CFEF7D0FC174908600846006870B1BA
:101A300040F2022112480068FEF74EFD00201249D4
:101A400008701249087012A10548FFF749FDDEE74A
:101A50007561727431206973206F6B0D0A0000008C
:101A6000003801407561727434206973206F6B0D0A
:101A70000A000000004C0040434C4F53450000005A
:101A80003C0000200C000020250000204700002022
:101A90004D5154542053455256455220434C4F53B8
:101AA000450D0A00F0B585B0002400250026142756
:101AB0001CE039466846FEF7EBFF064632466946AB
:101AC000284600F08BF804464FF4FA7000F04AF80C
:101AD000084A39466846FEF79BFF04460C2C05D1A0
:101AE0006A4605A10A48FFF7FBFC00E0E1E700BFFA
:101AF00005B0F0BD9D1B00086D7174745F6B65656A
:101B0000705F616C697665206F6B0D0A00000000E4
:101B100000380140FEB504460D464FF47A76F006D3
:101B2000FFF7C6F90020ADF80200ADF80600ADF8E9
:101B30000440ADF800506946F006FFF7C9FA0121EC
:101B40008807FFF7A3F90021F006FFF7BFFA01228B
:101B500011469007FFF7B1FA01218807FFF79CF9BA
:101B6000FEBD00000349086000BF02490968002962
:101B7000FBD170472800002010B50246002306481C
:101B800050F82200884204D30020034C44F822007D
:101B900000E00123D8B210BD440A002070B505460C
:101BA0000C460C4800680088002810DD09480068D1
:101BB000801C094A1268811822462846FEF715FC47
:101BC00005480068204404490860204670BD00BFF5
:101BD000FCE700003C000020640000202DE9F843F1
:101BE00081460D4614460026B0461A208DF80000A6
:101BF0000D208DF801000A208DF8020000208DF8DC
:101C0000030040F2022112480068FEF765FC002044
:101C1000104908604FF47A7364220FA10FA0FFF7F8
:101C200067FE07467FB1224629461048FEF7DDFBD6
:101C30000E48204400990160E01C81B24FF4967276
:101C40000A48FFF7B5FE26463046BDE8F883000097
:101C50003C000020640000203E00000041542B4363
:101C6000495053454E440D0A00000000CC050020A9
:101C70002DE9FF4107460C4615461E460097ADF874
:101C80000440ADF80660ADF808500020ADF80C0037
:101C90000C20ADF80A0069460748FFF7B5FB0122A2
:101CA00040F225510448FFF789FB01210248FFF764
:101CB00042FBBDE8FF8100000038014010B514214F
:101CC0000D20FFF759FF58B906480168891C0648DE
:101CD000FFF706FC40F2022102480068FEF7FCFB19
:101CE00010BD00002C000020003801401FB5044644
:101CF00000940020ADF80400ADF80600ADF808002F
:101D0000ADF80C000C20ADF80A0069460648FFF754
:101D10007BFB012240F225510348FFF74FFB0121D5
:101D20000148FFF708FB1FBD0044004010B5142117
:101D30000E20FFF721FFB0B940F202220A480168E5
:101D40000A480068FEF751FB084800680288074807
:101D50000168891C064800F02DF840F20221024873
:101D60000068FEF7B9FB10BD300000203C000020E9
:101D7000003801401FB5044600940020ADF804006F
:101D8000ADF80600ADF80800ADF80C000C20ADF879
:101D90000A0069460648FFF737FB012240F2255149
:101DA0000348FFF70BFB01210148FFF7C4FA1FBDF1
:101DB000004C00400FB4F0B589B00746154610A896
:101DC000009040213846FFF7C2FA73E00F98007880
:101DD0005C281CD10F98401C0F9000786E2809D009
:101DE00072280FD10D213846FFF709FC0F98401CCF
:101DF0000F900BE00A213846FFF701FC0F98401CBA
:101E00000F9003E00F98401C0F9000BF4BE00F981D
:101E10000078252840D10F98401C0F900078642846
:101E200018D0732833D1009810C800900BE02178A7
:101E30003846FFF7E4FB00BF40213846FFF787FA3A
:101E40000028F9D0641C20780028F0D10F98401C9D
:101E50000F9020E0009840C8009032461AA101A8D7
:101E6000FEF7D8F901AC0BE021783846FFF7C7FB45
:101E700000BF40213846FFF76AFA0028F9D0641CF9
:101E800020780028F0D10F98401C0F9003E00F98A5
:101E9000401C0F9000BF06E00F9810F8011B0F9038
:101EA0003846FFF7ACFB00BF40213846FFF74FFA3A
:101EB0000028F9D0281EA5F101018DB286D109B004
:101EC000F0BC5DF814FB000025640000026811708E
:101ED0000268521C02607047F81E000800000020D3
:101EE000700000006C010008681F000870000020EE
:101EF00088120000880100080000000000000000B7
:101F000000000000000000000000000000000000D1
:101F100000000000000400010100000000000000BB
:101F200000000000900A0020900A0020900A002083
:101F3000900A0020900A002000000000000000002D
:101F40000000000000010000000001020304010283
:101F50000304060708090204060800000000000048
:081F6000000000000000000079
:0400000508000131BD
:00000001FF
