:020000040800F2
:10000000882300204102000855320008D922000848
:10001000292E0008A91D0008EB420008000000007E
:100020000000000000000000000000008936000809
:10003000C91F000800000000F5320008E937000879
:100040005B0200085B0200085B0200084D360008F6
:100050005B0200085B0200085B0200085B0200080C
:100060005B0200085B0200085B0200085B020008FC
:100070005B0200085B0200085B0200085B020008EC
:100080005B0200085B0200085B0200085B020008DC
:100090005B0200085B0200085B0200085B020008CC
:1000A0005B0200085B0200085B0200085B020008BC
:1000B0004D3800085B020008993800085B02000810
:1000C0005B0200085B0200085B0200085B0200089C
:1000D0005B020008793C0008113D0008DD3D000886
:1000E0005B0200085B0200085B0200085B0200087C
:1000F0005B0200085B0200085B0200085B0200086C
:100100005B0200085B0200085B0200085B0200085B
:100110005B0200085B0200085B0200085B0200084B
:100120005B0200085B0200085B0200085B0200083B
:1001300000F002F800F074F80AA090E8000C824485
:100140008344AAF10107DA4501D100F069F8AFF262
:10015000090EBAE80F0013F0010F18BFFB1A43F0A5
:100160000103184798660000B86600000A444FF083
:10017000000C10F8013B13F0070408BF10F8014B06
:100180001D1108BF10F8015B641E05D010F8016B4B
:10019000641E01F8016BF9D113F0080F1EBF10F8AF
:1001A000014BAD1C0C1B09D16D1E58BF01F801CBD2
:1001B000FAD505E014F8016B01F8016B6D1EF9D555
:1001C0009142D6D37047000000230024002500266A
:1001D000103A28BF78C1FBD8520728BF30C148BFAA
:1001E0000B607047662906F02881642900F00481BD
:1001F000632900F01A86732900F01F8600207047DB
:100200001FB59DE8030000F04DFB00F051FE040017
:100210000020002105F068FBE0601FBD10B510BD97
:1002200000F060FF1146FFF7EBFF04F0F7FC00F071
:100230007EFF03B4FFF7F2FF03BC00F0EFFF000006
:100240000948804709480047FEE7FEE7FEE7FEE76A
:10025000FEE7FEE7FEE7FEE7FEE7FEE704480549A6
:10026000054A064B70470000ED37000831010008D1
:10027000881D002088230020881F0020881F002060
:1002800070B5064600F0F2FA056806F10B0020F0A2
:100290000704B4429CBF002070BD2B466A68BAB107
:1002A0001068A04210D304F1080188423CBF506896
:1002B000586007D35168101941601168091B01602B
:1002C00058601460101D70BD13465268002AE7D1B3
:1002D0002146284600F0D2FA0028DED170BD70B564
:1002E0000446051F00F0C2FA0068002C14BF4468E1
:1002F00070BD002C18BFAC423CBF20466468F8D3E8
:1003000001680A18AA4218BF456003D12A68054649
:100310001144016028684119A1421CBF6C6070BD86
:100320006168696021680844286070BD0FB41CB51D
:10033000084B06AA7B4469460090059800F053FDDF
:1003400004460020694600F061FD20461CBC5DF8B3
:1003500014FB0000D50A000070B5044685690068EA
:10036000C10601D5302600E02026C00707D070BDA9
:10037000D4E9012130469047206A401C20626D1E5E
:10038000F6D570BD70B5044685690078C00707D101
:1003900070BDD4E9012120209047206A401C2062D2
:1003A0006D1EF6D570BD70B50C460546012A05D008
:1003B0002878800600D5EA69002302E0012305E0E1
:1003C0005B1C934202D2E05C0028F9D1A869E618D0
:1003D000C01AA861286A184428622846FFF7BCFFA3
:1003E00004E0D5E9012114F8010B9047B442F8D399
:1003F0002846FFF7C7FF70BD2DE9F04106460024EF
:1004000010687529314616A510D0AFF3008000287A
:1004100002DA404213A507E031688A0701D512A528
:1004200002E0490704D511A5012401E0AFF30080E3
:1004300000210A2206F1240709E0B0FBF2FCB0FB20
:10044000F2F302FB1C00303078541846491C002897
:10045000F3D123462A463046BDE8F04100F058BAB1
:10046000000000002D0000002B0000002000000014
:100470002DE9F05F894604464FF0000ADFF874B1B9
:10048000FB44C0F820A02046E1688847002874D0CB
:10049000252806D0D4E901219047206A401C20621B
:1004A000F1E700265F462046E16888472028054698
:1004B00007DB312D05D2781910F8200C08B106435E
:1004C000F1E7B00701D526F00406C4F81CA0002708
:1004D000C4F818A02A2D09D0284603F01CFF38B311
:1004E00004EB8708303DC8F8185019E059F8041B90
:1004F000204604EB87029161E1688847012F054699
:1005000018D1E069002820DA26F020061DE0D8F88E
:10051000180000EB800005EB40003038C8F81800E8
:100520002046E1688847054603F0F5FE0028EED135
:10053000012F0AD02E2D08D12046E16888477F1C64
:100540000546022F46F02006C4DBA069002803DA26
:10055000404246F00106A061F00701D026F01006E7
:100560006C2D0BD0682D09D04C2D39D06A2D35D08B
:10057000742D35D07A2D33D016E038E0E1682F465F
:1005800020468847B842054609D16C2F26D04FF443
:100590008060E168064320468847054604E06C2FEA
:1005A0001AD04FF4807006430DB3A5F1410019280D
:1005B00002D8203546F400664A4629462046266081
:1005C0004E46FFF70FFE80B101280BD0F61D26F036
:1005D000070000F1080956E74020E4E78020D8E74B
:1005E0000020D6E706F104094DE7284652E7206AC5
:1005F000BDE8F09FD162000030B505460B462A46A3
:1006000013F8014B12F8010B08B1A042F8D01CB14D
:10061000002802D06D1CF1E7284630BD40EA0103F6
:10062000024630B59B0710D14FF0013400E008C2FC
:1006300008C91D1B9D4315EAC41FF8D013F0FF0124
:1006400002F8011B0DD01B0AF8E711F8013B002B43
:1006500002F8013B05D011F8013B002B02F8013BE9
:10066000F3D130BD10B5431C02E010F8011B71B18D
:100670008107FAD14FF0013202C88C1A8C4314EA78
:10068000C211F9D0C01A0A0603D0C01E10BDC01A8C
:1006900010BD0A0401D0801E10BD0902FCD0401E0E
:1006A00010BD40EA010370B59B072ED14FF0013613
:1006B000042A2AD308C810C99D1B9D43121F15EA9E
:1006C000C61517D0D8B2E1B2401A50EA056110D170
:1006D00098B2A1B2401A50EA05410AD123F07F40F6
:1006E00024F07F41401A50EA052102D1180EA0EBF8
:1006F000146070BDA342DBD018BA21BA884201D978
:10070000012070BD4FF0FF3070BD0AB9002070BDF0
:1007100010F8013B11F8014B63B1A3420AD1521EFC
:1007200008D010F8013B11F8014B1BB1A34201D1D5
:10073000521EEDD1181B70BD032A40F2308010F01C
:10074000030C00F0158011F8013BBCF1020F62446C
:1007500098BF11F801CB00F8013B38BF11F8013BFD
:10076000A2F1040298BF00F801CB38BF00F8013BAA
:1007700011F0030300F06583083AC0F0088051F8D7
:10078000043B083A51F804CBA0E80810F5E7121D25
:100790005CBF51F8043B40F8043BAFF30080D20744
:1007A00024BF11F8013B11F801CB48BF11F8012B10
:1007B00024BF00F8013B00F801CB48BF00F8012B33
:1007C000704702F0FF0343EA032242EA024200F0CC
:1007D00002B84FF000020429C0F0128010F0030CA0
:1007E00000F01B80CCF1040CBCF1020F18BF00F824
:1007F000012BA8BF20F8022BA1EB0C0100F00DB8D3
:100800005FEAC17C24BF00F8012B00F8012B48BF30
:1008100000F8012B70474FF0000200B513469446D4
:100820009646203922BFA0E80C50A0E80C50B1F148
:100830002001BFF4F7AF090728BFA0E80C5048BF5C
:100840000CC05DF804EB890028BF40F8042B08BFFA
:10085000704748BF20F8022B11F0804F18BF00F8F6
:10086000012B704770477047704700000048704781
:10087000301D0020704770477047704738B50446F8
:100880000A4600206946AFF30080002808BF38BD43
:1008900002460099204600F00FFB012038BD0120E0
:1008A00000F018BCF8B5AFF30080054600200C46F8
:1008B000102000BF0646A819A0420DD9324669464D
:1008C0000020AFF30080070008BF00F003FC009891
:1008D000A04218BF0546C419FFF7C8FF05600746C8
:1008E000F01D20F007004619284600F00AF8B4422F
:1008F00008BFF8BDA21B31463868BDE8F84000F0DB
:10090000DBBA00210160C0E9011070471020704778
:100910002DE9F0470D4699469246044600F1240819
:100920000168880604D5E06921F01001216000E02B
:100930000120A84201DD471B00E00027A1697A19C8
:1009400002EB0900081AA0612078C00602D42046F4
:10095000FFF702FD002608E0D4E901211AF806009D
:100960009047206A401C761C20624E45F4DB2078BC
:10097000C0060AD52046FFF7EFFC06E0D4E90121C6
:1009800030209047206A401C2062381EA7F10107E2
:10099000F4DC07E0D4E9012118F805009047206A4B
:1009A000401C2062281EA5F10105F3DC2046FFF75C
:1009B000E9FC2078000602D50220BDE8F08701207E
:1009C000FBE770472DE9FF4F0C461E464FF0FF37FF
:1009D0008BB0D2E90001DDF860800A908A46C1F34D
:1009E0000A5505B93D46002108464FF00000BAF10E
:1009F000000F00F4400005DA00EB80004FF44001E6
:100A000001EA50004FEA9059B9F1010F00DDB946F3
:100A10000A9850EA4A000ED044F61050A5F2FF356D
:100A200045432F14B8F1000F1ED07542291E1EDD5C
:100A3000C9F100021CE0B8F1010F4FF0000001D035
:100A4000302103E0F24305E02154401CB042FBDBBF
:100A500030460022002121540B99C1F80880C1E9D9
:100A600000200FB0BDE8F08FBD1B6D1CDEE74A46CD
:100A700000DA694206A800F0BFFA06AB93E8070067
:100A800003AB83E8070050460A9900F0EDFB8DE8C0
:100A90000700A0F500501F3800900398002D09DDD5
:100AA00042F21F014A46084403A90390684600F039
:100AB0004CFE08E0A0F500504A461F3803A90390F9
:100AC000684600F056FE8DE807000004000C03D0D5
:100AD0004FF0FF30410800E01046B8F1000F03D09E
:100AE0000022009215461EE0751E05D400F0FEF9A6
:100AF000303262556D1EF9D5B3460122084302D04B
:100B000000227F1C04E02078302801D100227F1EC3
:100B1000002A099786D01DE0112D07DA00F0E6F9CA
:100B2000303262556D1C50EA0102F5D1084302D003
:100B30000098C8B10EE00021681E05E0235C625CED
:100B400063542254401E491C8142F7DBAB46A81B6C
:100B5000401E0990002004F80B000B98099AC0F879
:100B60000880C0E9002B7CE711264FF0000859E708
:100B70002DE9F04F88460446D21D22F0070191B0BE
:100B8000D1E90001CDE90A0103F0B1FB02460B985F
:100B9000C00F01D02D2007E02068810701D52B2050
:100BA00002E0202101EAC000032A099001D0072AAF
:100BB00005DB03464146204600F0DEF90BE12078D4
:100BC000800601D5E06900E00620B8F1650F814696
:100BD00006D0B8F1660F18D0B8F1670F70D131E0C8
:100BE0000020B9F1110F009001DB112301E009F1A0
:100BF00001030AAA01A90CA8FFF7E4FEDDE90C70C5
:100C0000002609F10105834647E001204B4600908C
:100C10004FF000470AAA01A90CA8FFF7D3FEDDE9AF
:100C20000DB00C995D46002610B909F101000D18B0
:100C3000B9EB050003D4C0F1FF3609F10105A5EBBE
:100C400009002BE0B9F1010F01DA4FF00109002092
:100C5000B9F1110F0090484601DD112300E0034671
:100C60000AAA01A90CA8FFF7ADFEDDE90C704D46FC
:100C700000268346207800070AD4AB4500DA5D469B
:100C800001A8012D04DD411911F8011C302907D0FC
:100C90004F4502DA17F1040F04DA012082460FE013
:100CA0006D1EEEE7002F02DCED1B3E4403E0781CD6
:100CB000A84200DD7D1CB81B00F1010A4FF000477F
:100CC0002078000703D4AA4501DB4FF0FF3A00214A
:100CD000B7F1004F0DF143088DF8431024D00220E6
:100CE0002B23002F01DA7F422D230A21021EA0F1BF
:100CF000010000DC5FB197FBF1FC97FBF1F201FB17
:100D00001C7C17460CF1300C08F801CDEEE7A8F179
:100D1000010003702188090501D5452100E0652106
:100D2000A0F1010800F8011C09980FA9A1EB080720
:100D3000FF1D00B10120411901EBEA70A16938449F
:100D4000081A401EA0612078C00602D42046FFF792
:100D500003FB099828B1D4E901219047206A401C7F
:100D600020622078C00622D52046FFF7F5FA1EE063
:100D7000002E04DBB34502DD01A8805D00E03020D9
:100D8000D4E901219047206A401C2062761CAAF118
:100D900001005FEA000A0AD100F08AF8C068016821
:100DA000405CD4E901219047206A401C2062281E43
:100DB000A5F10105DCDC07E0D4E9012118F8010BFD
:100DC0009047206A401C2062381EA7F10107F3DC1F
:100DD0002046FFF7D7FA032011B043E601694A1C09
:100DE00002610878704700B58FB0CDE9013100216C
:100DF000059105497944CDE9031011466846FFF78E
:100E000037FB0FB000BD0000E5FFFFFF0A6802F8E6
:100E1000010B0A60704710B5436913B1AFF300804E
:100E200001E0FFF7C0FA012010BD127800F12401A3
:100E30000A7000224A700122EDE711684FF0FF327C
:100E4000E9E710B5203AC0F00B80B1E81850203A1D
:100E5000A0E81850B1E81850A0E81850BFF4F5AF5A
:100E60005FEA027C24BFB1E81850A0E8185044BFE4
:100E700018C918C0BDE810405FEA827C24BF51F851
:100E8000043B40F8043B08BF7047D20728BF31F845
:100E9000023B48BF11F8012B28BF20F8023B48BF96
:100EA00000F8012B7047000000487047281D002003
:100EB00000487047481D0020034640688C460028C3
:100EC00018BF88423CBF03464068F8D318681844EE
:100ED000884207D00CF1030020F00700001D411AE2
:100EE000521A0146081D0A60FFF7F9B930B5B0F192
:100EF0000A024FEA900E71F100034EEA817EB0EBD8
:100F00000E0061EB91014FEA101E4EEA017E10EBDC
:100F10000E0041EB11114FEA102E4EEA016E10EB5C
:100F20000E0041EB11214FEA104E4EEA014E10EB3C
:100F30000E0041EB1141401841F100014FEAD00091
:100F400040EA41704FEAD10110EB80054FEA81047D
:100F500044EA907444EB01046D1944EB0404521B01
:100F6000A3414FF0000348BF0A3200D530BD401CFA
:100F700041F1000130BD00002DE9F0411F4604465B
:100F800003260168072A01F4006004DB08B116A5F6
:100F900005E016A503E008B115A500E015A521F0B0
:100FA00010002060A069C01EA0610FB1401EA061AA
:100FB0002046FFF7D1F94FB1D4E9012138469047D7
:100FC000206A401C2062C01C206206E0206AFAE70A
:100FD000D4E9012115F8010B9047761EF8D220467E
:100FE000FFF7D0F9BDE8F0814E414E006E616E0012
:100FF000494E4600696E66002DE9F0478146164667
:101000008AB0334878440DC88DE80D0030487844E4
:10101000801C03AC0DC884E80D0041F69B300844E9
:10102000372190FBF1F290FBF1F5A5F1800501FB72
:1010300012041B3C02D56442012000E00020DFF8CE
:1010400090A080460027FA44AAF1BE0A0DE0E0070E
:1010500009D03246684607EB47010AEB810100F0F0
:1010600088FB8DE8070064107F1C002CEFD1184F1F
:101070007F44AC3F18E0E80714D007EB04100DF1F3
:10108000180A90E80E008AE80E00C068F04201D10C
:1010900098190890324606A903A800F06AFB03AB32
:1010A00083E807006D10641C002DE4D132466946C8
:1010B000B8F1000F03A802D000F047FB01E000F0F8
:1010C00058FBC9E90001C9F808200AB0BDE8F0875B
:1010D000DC57000010B500F039F8BDE8104000F012
:1010E0002FB870477546FFF7DFFEAE46050069462C
:1010F000534620F00700854618B020B5FFF7AEF83C
:10110000BDE820404FF000064FF000074FF0000808
:101110004FF0000B21F00701AC46ACE8C009ACE889
:10112000C009ACE8C009ACE8C0098D46704710B5ED
:101130000446AFF300802046BDE81040FFF779B8C1
:10114000002801D000F06AB87047000010B50128EF
:1011500005D0002103A000F067F8012010BD09A10F
:10116000F8E7000053494752544D454D3A204F751A
:1011700074206F662068656170206D656D6F72798F
:10118000000000003A2048656170206D656D6F7247
:101190007920636F72727570746564004FF0013C62
:1011A00050F8042B51F8043B9A4221D1A2EB0C03D6
:1011B000934313EACC1317D150F8042B51F8043B96
:1011C0009A4215D1A2EB0C03934313EACC130BD133
:1011D00050F8042B51F8043B9A4209D1A2EB0C03BE
:1011E000934313EACC13DBD04FF00000704700BFED
:1011F000D01A01BAB1FA81F101F0180122FA01F016
:10120000CB40C1F12001DBB2C0B2C01A2CFA01F30D
:10121000D11A914311EAC311E6D170470149182050
:10122000ABBEFEE72600020070B505460C460A205C
:1012300000E06D1C00F011F835B128780028F8D1D5
:1012400002E0641C00F009F814B120780028F8D1FD
:10125000BDE870400A20AFF3008008B569468DF8FC
:1012600000000320ABBE08BD5FEA400C08BF91F050
:10127000000F4FEA8C234FEAC12243EA51514FEA53
:101280001C5018BF00F5F0404FEA300018BF41F085
:1012900000415FEA6C5C00F02980BCF1FF3F08BFB1
:1012A00040F080407047130C06BF12044FF0100C42
:1012B0004FF0000C130E04BF12020CF1080C130FB8
:1012C00004BF12010CF1040C930F04BF92000CF147
:1012D000020CD30F04BF52000CF1010C11464FF069
:1012E0000002A0F11F00A0EB0C00704711F0004FAE
:1012F00008BF704731F000413FF4D5AF0B0C06BF7B
:1013000009044FF0100C4FF0000C0B0E04BF090243
:101310000CF1080C0B0F04BF09010CF1040C8B0F2E
:1013200004BF89000CF1020CCB0F04BF49000CF183
:10133000010CCCF12003A0EB0C0022FA03F302FA1B
:101340000CF241EA030100F10100704720F07F4CEC
:1013500080EA030023F07F47ACEB070303F57C53DF
:1013600000F0004003F1FF032DE980494FEA154BDF
:1013700009B44FEA144325EA0B4E24EA03480FF25E
:10138000042606EB132749083E785FEA320203FB86
:101390000667C7F5000707FB06F64FEA54374FEA22
:1013A000D64606F1020607FB066CCCF1005C4FEA5C
:1013B0001C472CEA074C07FB06F40CFB06F504EB74
:1013C00015464FEA961634BF00204FF000404FEA12
:1013D000D13706FB07FC4FEA1C4C0CFB0BF7D21B6A
:1013E00003FB0CF761EB07010CFB0EF7B0EB0740BA
:1013F00072EB17420CFB08F734BFA2EB0742B2EBCB
:10140000074261EB17414FEA0C444FEA910706FB94
:1014100007FC4FEA1C4C0CFB0BF7B0EBC74072EB20
:10142000573203FB0CF734BFA2EBC742B2EBC74203
:1014300061EB57310CFB0EF7B0EBC70072EB577244
:101440000CFB08F734BFA2EBC702B2EBC70261EB9B
:101450005771039F4FEA816141EA921104EBCC047A
:101460004FEAD1374FEA826206FB07FC42EA90124C
:101470004FEA80604FEA1C4C0CFB0BF7D21B03FBBE
:101480000CF761EB07010CFB0EF7B0EB074072EBBA
:1014900017420CFB08F734BFA2EB0742B2EB07423E
:1014A00061EB17414FEA8C554FEA910704EB9C24FE
:1014B00006FB07FC4FEA1C4C0CFB0BF7B0EBC740DC
:1014C00072EB573203FB0CF734BFA2EBC742B2EB0F
:1014D000C74261EB57310CFB0EF7B0EBC70072EB64
:1014E00057720CFB08F734BFA2EBC702B2EBC7027E
:1014F00061EB577115EB4C254FEA816141EA92117E
:101500004FEA82624FEAD13742EA901206FB07FCAB
:1015100044F100044FEA80604FEA1C4C0CFB0BF7CF
:10152000D21B03FB0CF761EB07010CFB0EF7B0EBD2
:10153000074072EB17420CFB08F734BFA2EB0742DF
:10154000B2EB074261EB174115EB1C154FEA8131F5
:1015500041EA92414FEA823242EA90424FEA8030B9
:101560004FEA0C7644F1000448EA03434EEA0B4884
:101570004FF0000EB2EB080C71EB030724BF62467C
:1015800039464EEB0E0E4FF0000B00185241494108
:101590004BEB0B0BB2EB080C71EB03077BF1000B71
:1015A00024BF624639464EEB0E0E4FF0000B00187A
:1015B000524149414BEB0B0BB2EB080C71EB0307AB
:1015C0007BF1000B24BF624639464EEB0E0E51EA0A
:1015D000020718BF46F0010616EB0E7655F1000221
:1015E00054F1000103D5BDE88901BDE80088BDE8DC
:1015F0008901BDE80048B619524141EB0101A3F150
:101600000103704780807F7E7D7C7B7A7978777656
:1016100076757473727171706F6E6E6D6C6C6B6ACF
:101620006A6968686766666564646363626161606D
:10163000605F5F5E5E5D5D5C5C5B5B5A5A595958EA
:101640005857575656555555545453535252525154
:10165000515050504F4F4F4E4E4D4D4D4C4C4C4BAA
:101660004B4B4A4A4A4949494848484747474746F1
:10167000464645454544444444434343434242422D
:1016800042414141002B26D4770021D01CB54FEABE
:10169000370703B44FF010004FF010014FF0000077
:1016A0000FBCBDE810400BF1010BBBF1010F08BFEF
:1016B0005FEA170722BF12F1010211F101014FF099
:1016C000004143F1000300F0004043EA000070478E
:1016D000F9D35708DAE746EA064613F1400F4FEA16
:1016E00016461FDD13F1200FDFBF16430A46002107
:1016F00020335B42C8D0C3F1200746EA064602FA0F
:1017000007F74FEA164646EA0706C3F1200722FA12
:1017100003F201FA07F721FA03F14FF0000342EA5E
:101720000702B1E746EA020646EA06464FEA1646CF
:1017300046EA0106BCBF46EA0646360C4FF00003F7
:101740004FF000024FF000019EE72DE9C04893469C
:1017500030B491E8380007C831EA400C48BF34EA99
:10176000430C03D5FFF7F2FDFFF78CFFF0BCBDE89B
:1017700000882DE9C048934630B491E8380007C886
:1017800010F0804F08BF13F0804F03D100F005F830
:10179000FFF778FFF0BCBDE8008820F07F4780EAC3
:1017A000030023F07F4C07EB0C03A3F57C5300F000
:1017B0000040A3F1FE0392F0000F00F0B38095F01B
:1017C000000F00F077802DE901494FEA11404FEA00
:1017D000144621EA004800FB06FC24EA064708FB01
:1017E00006F607FB08F800FB07F718EB06484CEB7A
:1017F000164C4FEA124B18EB07484FEA15464CEBD4
:10180000174022EA0B4E0BFB06FC25EA06470EFBAF
:1018100006F607FB0EFE0BFB07F71EEB064E4CEB26
:10182000164C4FF000061EEB074E4CEB174B18EB17
:101830000B0840F1000018EB0E0B58EB000840F1CC
:1018400000008F1A4FF000013CBFC943661B14BF54
:10185000B5EB040C00213CBFC943F61B4FEA17440B
:101860004EEA8E0E27EA04454FEA1C4704FB076246
:101870002CEA074C05FB07F70CFB05F604FB0CFCF8
:1018800016EB074642EB174216EB0C4642EB1C42A6
:101890001BEB060658EB0202414146EA9E0601D5C3
:1018A000BDE80189B619524141EB0101A3F10103E1
:1018B000BDE801894FEA14454FEA114724EA05467D
:1018C00021EA074C05FB07F406FB07F70CFB06F1C2
:1018D00005FB0CFC11EB074144EB17444FEA1247A0
:1018E00011EB0C4144EB1C4422EA074C05FB07F2C8
:1018F00006FB07F70CFB06F605FB0CFC16EB074690
:1019000042EB174216EB0C4642EB1C456A1854F1A9
:10191000000148BF7047B619524141EB0101A3F1E4
:101920000103704795F0000F37D04FEA11424FEA9C
:10193000144721EA024624EA074C02FB07F106FBA2
:1019400007F70CFB06F402FB0CFC14EB074441EB1D
:1019500017414FEA154714EB0C4441EB1C4125EAB3
:10196000074C02FB07F506FB07F70CFB06F602FB2C
:101970000CFC16EB074645EB174516EB0C4645EB02
:101980001C42121951F1000148BF7047B61952416B
:1019900041EB0101A3F1010370474FEA14454FEAFF
:1019A000114724EA054621EA074C05FB07F106FB2F
:1019B00007F70CFB06F24FF0000605FB0CFC12EBE0
:1019C000074241EB174112EB0C4251EB1C4148BF5F
:1019D0007047921841EB0101A3F10103704721B157
:1019E000826842F00102826003E0826822F0010214
:1019F0008260704710B504461248844208D1012124
:101A0000401501F0C5FC0021601501F0C1FC17E094
:101A10000D48844208D10121001501F0B9FC0021D4
:101A2000201501F0B5FC0BE00848844208D10121E3
:101A3000C80301F0ADFC00214FF4004001F0A8FC08
:101A400010BD00000024014000280140003C01407E
:101A5000014600208A6802F004020AB1012000E079
:101A6000002070470146C86C80B2704702460020D3
:101A700013680B400BB1012000E0002070470146C5
:101A800000208A6802F008020AB1012000E000206C
:101A90007047000030B502460020002350680F4C0C
:101AA00020400D790C6844EA05242043506090687A
:101AB0000B4C2040D1E902542C434D7944EA4504B3
:101AC00020439060D06A20F470000C7C641EE4B265
:101AD000234340EA0350D06230BD0000FFFEF0FF18
:101AE000FDF7F1FFF0B504460D4600200021092D59
:101AF00011DDE068A5F10A0606EB4607072606FA9F
:101B000007F18843A5F10A0606EB460603FA06F13B
:101B10000843E0600CE0206905EB4507072606FA5C
:101B200007F1884305EB450603FA06F108432061F7
:101B3000072A0FDA606B561E06EB86071F2606FA89
:101B400007F18843561E06EB860605FA06F10843A0
:101B5000606322E00D2A0FDA206BD61F06EB8607A2
:101B60001F2606FA07F18843D61F06EB860605FAFC
:101B700006F10843206310E0E06AA2F10D0606EBCF
:101B800086071F2606FA07F18843A2F10D0606EB29
:101B9000860605FA06F10843E062F0BD816841F06F
:101BA00008018160704721B1826842F4A00282601E
:101BB00003E0826822F4A00282607047816841F0ED
:101BC0000401816070472DE9F047054688461646B6
:101BD0002846FEF747FD84B22046E11704EB117159
:101BE0000911A4EB0111C1F11001CFB228193A4635
:101BF0003946FEF7E6FD2846FEF734FD84B231464D
:101C0000284602F099FC814622464146484600F0AB
:101C10006BF84846FEF763FBBDE8F08700B587B078
:101C200001214FF4017001F0A3FB4FF4004001F0DB
:101C300063FB0120ADF8040000208DF8070001A926
:101C4000174800F0FAF91748FFF7D4FE0020029079
:101C50008DF80C008DF80D004FF4602004900020EA
:101C6000059001208DF8180002A90E48FFF712FF19
:101C700001210C48FFF7B3FE0A48FFF78FFF00BFB2
:101C80000848FFF7FCFE0028FAD10648FFF796FF48
:101C900000BF0448FFF7DCFE0028FAD107B000BD02
:101CA000000801400024014010B50246002014E065
:101CB00000210FE0130103EB80030B44084CE35CAD
:101CC000084C04EB8104245C6340064C04EB810463
:101CD0002354491C0429EDDB401C0428E8DB10BD1B
:101CE000DA1B0020CA1B002030B50346002053E059
:101CF0001C782C4D05EB9404247801F8014B022A42
:101D00001ADD1C78A407A40E5D7844EA2514254D3D
:101D10002C5D01F8014B5C782407A40E9D7844EA01
:101D2000A514204D2C5D01F8014B9C7804F03F0474
:101D30002C5D01F8014B2CE0012A02D0022A27D1A8
:101D40000EE01C7804F00304164D05EB041424780F
:101D500001F8014B3D2401F8014B01F8014B17E05C
:101D60001C78A407A40E5D7844EA25140D4D2C5D63
:101D700001F8014B5C782407A40E9D7844EAA51471
:101D8000084D2C5D01F8014B3D2401F8014B00BFCB
:101D900000BFDB1CD21E001D002AA9DC00240C7031
:101DA00030BD0000A400002000BFFEE770B5002693
:101DB00000240DE0002508E005EB84001C49085CC8
:101DC0001C4901EB850108556D1C042DF4DB641CD6
:101DD000042CEFDB0020FFF767FF012609E001F08C
:101DE000EBFC01F0C7FC01F021F83046FFF75CFF87
:101DF000761C114800688642F1DB01F0DDFC01F041
:101E0000B9FC0D480068FFF74FFF00240DE00025E6
:101E100008E0084800EB8500005D05EB8401074AF7
:101E200050546D1C042DF4DB641C042CEFDB70BDDE
:101E30009A1B0020CA1B002098000020AA1B00202B
:101E400001684FF6FE72114001600021016041609F
:101E50008160C1604B49884208D14A4908394968C4
:101E600041F00F01474A083A51608AE04549143170
:101E7000884208D143490839496841F0F001414A94
:101E8000083A51607DE03F492831884208D13D49F8
:101E90000839496841F470613A4A083A516070E083
:101EA00038493C31884208D136490839496841F4FB
:101EB0007041344A083A516063E0324950318842F7
:101EC00008D130490839496841F470212D4A083A4F
:101ED000516056E02B496431884208D129490839BC
:101EE000496841F47001274A083A516049E02549A0
:101EF0007831884208D123490839496841F0706136
:101F0000204A083A51603CE01F49884206D1011F2F
:101F1000096841F00F01021F116032E01A491431C3
:101F2000884208D11849091F096841F0F001164A92
:101F3000121F116025E014492831884208D1124946
:101F4000091F096841F470610F4A121F116018E0FF
:101F50000D493C31884208D10B49091F096841F4F9
:101F60007041094A121F11600BE007495031884245
:101F700007D10549091F096841F47021024A121F5F
:101F800011607047080002400804024010B50022AA
:101F9000026847F6F0739A430C6A8B6823430C6916
:101FA00023434C6923438C692343CC6923434C6A04
:101FB00023438C6A23431A430260CB6843600B6857
:101FC00083604B68C36010BD704770B50346002442
:101FD000002010E00E5C451C4D5D46EA0526851C80
:101FE0004D5D46EA0546C51C4D5D46EA056543F86C
:101FF0002450641C001D9042ECD370BD70B50346A4
:1020000014460022002015E011F822501D5431F82A
:102010002250C5F30726451C5E5551F82250C5F3E2
:102020000746851C5E5551F822502D0EC61C9D5545
:10203000521C001DA042E7D370BD2DE9F0410246BD
:1020400000250026002000230024002791F803C06B
:102050000CF00F0591F803C00CF0100CBCF1000F50
:1020600003D091F802C04CEA050591F800C0BCF11C
:10207000000F31D0146800202BE04FF0010C0CFA57
:1020800000F3B1F800C00CEA03069E4220D18300A1
:102090004FF00F0C0CFA03F7BC4305FA03FC4CEAB3
:1020A000040491F803C0BCF1280F06D14FF0010CD5
:1020B0000CFA00FCC2F814C00AE091F803C0BCF1AD
:1020C000480F05D14FF0010C0CFA00FCC2F810C00B
:1020D000401C0828D1D31460B1F800C0BCF1FF0F38
:1020E00034DD546800202EE000F1080C4FF00108A8
:1020F00008FA0CF3B1F800C00CEA03069E4221D1A5
:1021000083004FF00F0C0CFA03F7BC4305FA03FCF5
:102110004CEA040491F803C0BCF1280F05D100F18A
:10212000080C08FA0CF8C2F8148091F803C0BCF14E
:10213000480F07D100F1080C4FF0010808FA0CF81D
:10214000C2F81080401C0828CED35460BDE8F0814E
:102150000246002093680B400BB1012000E00020F4
:102160007047416170470161704770B504460D4684
:102170002946204600F0E6FE70BD000010B504467A
:102180000723012221460948FFF7ACFC012107483B
:10219000FFF709FD00BF02210448FFF767FC002894
:1021A000F9D00248FFF75EFC10BD0000002401409A
:1021B0002DE9F04107460C460025002608E0384688
:1021C000FFF7DCFF0544022003F0EAFA701CC6B2F8
:1021D000A642F4DBB5FBF4F080B2BDE8F08100006C
:1021E000FEB52649D1F8860003F0D2FF0746244900
:1021F000384603F0D3FE0746044603F041FE054689
:102200001E4890F88A0022231A46CDE90051029018
:102210001CA12248FEF78AF81849D1F8810003F082
:10222000B7FF07461649384603F0B8FE074604468E
:1022300003F026FE0546114890F8850022231A4631
:10224000CDE90051029016A11B48FEF76FF80B492B
:10225000D1F8A00003F084FF07461849384603F080
:102260009DFE0746044603F00BFE05462A460B4634
:1022700013A11848FEF75AF8FEBD0000F60700202B
:102280000050C34725636C6F6E676974756465257C
:10229000633A252E35662025316300009C08002016
:1022A00025636C6174697475646525633A252E3500
:1022B0006620253163000000BA080020000020419C
:1022C000416C7469747564653A252E31666D202001
:1022D00020202000D808002000BFFEE70146CA17D2
:1022E00001EB92729210A1EB820292B9642091FBF1
:1022F000F0F200FB121050B94FF4C87091FBF0F2ED
:1023000000FB121008B9012070470020FCE70120F3
:10231000FAE70020F8E7000038B5002222E06D4817
:1023200010F822006C4901F82200012000EB820025
:102330006849085C012101EB8201674D6854022065
:1023400000EB82006349085C022101EB82016854C2
:10235000032000EB82005F49085C032101EB82014E
:102360006854521C5D4800688242D8DBA9E0002313
:1023700007E0501E03EB80005749085C0DF803008E
:102380005B1C042BF5DB5548006892FBF0F100FB69
:10239000112098BB9DF800409DF801008DF80000C9
:1023A0009DF802008DF801009DF803008DF80200F1
:1023B0008DF803409DF8000002F01EF98DF8000032
:1023C0009DF8010002F018F98DF801009DF8020057
:1023D00002F012F98DF802009DF8030002F00CF9EA
:1023E0008DF803003D48006892FBF0F03C49085C22
:1023F0009DF8001048408DF8000024E0FFE73748C2
:10240000006806281FDD3548006892FBF0F100FBEC
:102410001120042817D19DF8000002F0EDF88DF886
:1024200000009DF8010002F0E7F88DF801009DF82A
:10243000020002F0E1F88DF802009DF8030002F0BE
:10244000DBF88DF8030025480068101A002101EB25
:1024500080002149085C9DF800104840002101EBF4
:1024600082011D4D68541D480068101A012101EBBE
:1024700080002946085C9DF801104840012101EBCD
:102480008201685415480068101A022101EB80008F
:102490002946085C9DF802104840022101EB8201A8
:1024A00068540E480068101A032101EB8000294689
:1024B000085C9DF803104840032101EB8201685439
:1024C000521C08480068401C800090423FF74FAF04
:1024D00038BD0000061D0020DA1B00209C000020F3
:1024E00056660008980000202DE9FC4106460C467F
:1024F000082204F110016846FFF780FD208AC0F32E
:10250000C505382D02D2C5F1380001E0C5F17800CB
:1025100007463A460949204600F014FC082269465D
:10252000204600F00FFC102221463046FFF766FDE2
:1025300058212046FEF76FF9BDE8FC81F500002028
:1025400000210161002242610549016005494160A5
:102550000349C94381600349C943C1607047000012
:102560000123456789ABCDEF2DE9F04391B080465B
:102570008946D8F80040D8F80450D8F80860D8F850
:102580000C704022494601A8FFF71FFD05EA06002E
:1025900027EA0501084301990844FE490844044418
:1025A000E00140EA54642C4404EA050026EA0401F0
:1025B000084302990844F84908440744380340EAAC
:1025C0001757274407EA040025EA0701084303993F
:1025D0000844F24908440644700440EAD6363E44B2
:1025E00006EA070024EA0601084304990844EC4976
:1025F00008440544A80540EA9525354405EA060047
:1026000027EA0501084305990844E64908440444BB
:10261000E00140EA54642C4404EA050026EA04017F
:10262000084306990844E04908440744380340EA4F
:102630001757274407EA040025EA070108430799CA
:102640000844DA4908440644700440EAD6363E4459
:1026500006EA070024EA0601084308990844D44919
:1026600008440544A80540EA9525354405EA0600D6
:1026700027EA0501084309990844CE49084404445F
:10268000E00140EA54642C4404EA050026EA04010F
:1026900008430A990844C84908440744380340EAF3
:1026A0001757274407EA040025EA070108430B9956
:1026B0000844A0F524404F380644700440EAD6365A
:1026C0003E4406EA070024EA060108430C99084440
:1026D000BA4908440544A80540EA9525354405EA69
:1026E000060027EA050108430D990844B449084447
:1026F0000444E00140EA54642C4404EA050026EA5C
:10270000040108430E990844AE49084407443803BD
:1027100040EA1757274407EA040025EA070108435F
:102720000F990844A84908440644700440EAD63684
:102730003E4406EA070024EA0601084310990844CB
:10274000A24908440544A80540EA9525354405EA10
:10275000070026EA07010843029908449C490844F7
:102760000444600140EAD4642C4404EA060025EAEB
:10277000060108430799084496490844074478022B
:1027800040EAD757274407EA050024EA0501084331
:102790000C990844904908440644B00340EA964620
:1027A0003E4406EA040027EA04010843019908446C
:1027B0008A4908440544280540EA1535354405EAA8
:1027C000070026EA0701084306990844844908449B
:1027D0000444600140EAD4642C4404EA060025EA7B
:1027E000060108430B9908447E49084407447802CF
:1027F00040EAD757274407EA050024EA05010843C1
:1028000010990844784908440644B00340EA9646C3
:102810003E4406EA040027EA0401084305990844F7
:10282000724908440544280540EA1535354405EA4F
:10283000070026EA070108430A9908446C4908443E
:102840000444600140EAD4642C4404EA060025EA0A
:10285000060108430F990844664908440744780272
:1028600040EAD757274407EA050024EA0501084350
:1028700004990844604908440644B00340EA964677
:102880003E4406EA040027EA040108430999084483
:102890005A4908440544280540EA1535354405EAF7
:1028A000070026EA070108430E99084454490844E2
:1028B0000444600140EAD4642C4404EA060025EA9A
:1028C00006010843039908444E4908440744780226
:1028D00040EAD757274407EA050024EA05010843E0
:1028E00008990844484908440644B00340EA96461B
:1028F0003E4406EA040027EA040108430D9908440F
:10290000424908440544280540EA1535354485EA1E
:1029100006007840069908443D49084404442001D3
:1029200040EA14742C4484EA050070400999084474
:10293000384908440744F80240EA5757274487EAD1
:10294000040068400C9908443349084406443004A4
:1029500040EA16463E4486EA070060400F99084464
:102960002E4908440544E80540EA5525354485EAE2
:10297000060078400299084429490844044420018B
:1029800040EA14742C4484EA050070400599084418
:10299000244949E078A46AD756B7C7E8DB702024F9
:1029A000EECEBDC1AF0F7CF52AC68747134630A8CF
:1029B000019546FDD8988069AFF7448BBED75C89F6
:1029C0002211906B937198FD8E4379A62108B4492A
:1029D00062251EF640B340C0515A5E26AAC7B6E92A
:1029E0005D102FD65314440281E6A1D8C8FBD3E76B
:1029F000E6CDE121D60737C3870DD5F4ED145A454E
:102A000005E9E3A9F8A3EFFCD9026F678A4C2A8D88
:102A10004239FAFF81F6718722619D6D0C38E5FD20
:102A200044EABEA4A9CFDE4B08440744F80240EABA
:102A30005757274487EA0400684008990844A74983
:102A400008440644300440EA16463E4486EA07003D
:102A500060400B990844A24908440544E80540EA4F
:102A60005525354485EA060078400E9908449D496D
:102A700008440444200140EA14742C4484EA05000C
:102A8000704001990844984908440744F80240EA14
:102A90005757274487EA040068400499084493493B
:102AA00008440644300440EA16463E4486EA0700DD
:102AB0006040079908448E4908440544E80540EA07
:102AC0005525354485EA060078400A990844894925
:102AD00008440444200140EA14742C4484EA0500AC
:102AE00070400D990844844908440744F80240EABC
:102AF0005757274487EA04006840109908447F49E3
:102B000008440644300440EA16463E4486EA07007C
:102B10006040039908447A4908440544E80540EABE
:102B20005525354465EA0700704001990844754908
:102B300008440444A00140EA94642C4464EA06007A
:102B4000684008990844704908440744B80240EABC
:102B50009757274467EA050060400F9908446B497E
:102B600008440644F00340EA56463E4466EA040040
:102B7000784006990844664908440544680540EAD7
:102B8000D525354465EA070070400D990844614930
:102B900008440444A00140EA94642C4464EA06001A
:102BA0006840049908445C4908440744B80240EA74
:102BB0009757274467EA050060400B990844574936
:102BC00008440644F00340EA56463E4466EA0400E0
:102BD000784002990844524908440544680540EA8F
:102BE000D525354465EA07007040099908444D49E8
:102BF00008440444A00140EA94642C4464EA0600BA
:102C0000684010990844484908440744B80240EA1B
:102C10009757274467EA05006040079908444349ED
:102C200008440644F00340EA56463E4466EA04007F
:102C300078400E9908443E4908440544680540EA36
:102C4000D525354465EA070070400599084439499F
:102C500008440444A00140EA94642C4464EA060059
:102C600068400C990844344908440744B80240EAD3
:102C70009757274467EA05006040039908442F49A5
:102C800008440644F00340EA56463E4466EA04001F
:102C900078400A9908442A4908440544680540EAEE
:102CA000D5253544D8F800002044C8F80000D8F8ED
:102CB00004002844C8F80400D8F808003044C8F8D4
:102CC0000800D8F80C003844C8F80C00402101A8CE
:102CD000FDF7A1FD11B0BDE8F0830000604BBBF62D
:102CE00070BCBFBEC67E9B28FA27A1EA8530EFD410
:102CF000051D880439D0D4D9E599DBE6F87CA21FFC
:102D00006556ACC4442229F497FF2A43A72394AB09
:102D100039A093FCC3595B6592CC0C8F7DF4EFFF17
:102D2000D15D84854F7EA86FE0E62CFE144301A39D
:102D3000A111084E827E53F735F23ABDBBD2D72A95
:102D400091D386EB2DE9F047044688461546208A44
:102D5000C0F3C509206900EBC5002061B0EBC50FC9
:102D600002D26069401C6061606900EB557161616D
:102D7000C9F14007BD421BD304F1180101EB090062
:102D80003A464146FDF7D8FC04F118012046FFF70A
:102D9000EBFB3E4605E008EB06012046FFF7E4FBAF
:102DA000403606F13F00A842F5D34FF0000900E09D
:102DB0000026AA1B08EB060104F1180303EB090027
:102DC000FDF7BAFCBDE8F08770B598B005460E4631
:102DD00002A8FFF7B5FB3246294602A8FFF7B2FF6B
:102DE00002A96846FFF780FB0020044613E01DF8A7
:102DF00004000B4901EB201000780A4A02F8140085
:102E00001DF8040000F00F00095C6000401C115424
:102E1000601CC0B20446082CE9DB18B070BD00008D
:102E2000E50000205007002000BFFEE730B500207D
:102E300068E0364C235C245C344D2D1D2D5C6C40C9
:102E4000324D08352D5C6C40304D0C352D5C84EADC
:102E500005022E4C255C241D245C85EA0401CC0966
:102E600004EBC40404EB440484EA4104E1B2274CBB
:102E7000245C81EA02056C40244D2C542C1D245CFA
:102E800008352D5C84EA0501CC0904EBC40404EB8D
:102E9000440484EA4104E1B21C4C241D245C81EA10
:102EA00002056540194C241D2554241D245C174D32
:102EB0000C352D5C84EA0501CC0904EBC40404EB59
:102EC000440484EA4104E1B2104C0834245C81EAF1
:102ED00002056C400D4D08352C542C1D245C84EAF1
:102EE0000301CC0904EBC40404EB440484EA410468
:102EF000E1B22C1D245C81EA02056C40034D0C35C7
:102F00002C54401C042894DB30BD0000CA1B002058
:102F10000246134610E010782A2805D010782028A1
:102F200002DB10787A2801DDFF20704710782C280A
:102F300001D1481EC1B2521C0029ECD1D01AC0B236
:102F4000F3E700002DE9F04F85B0044688467EA1E6
:102F50004046FDF751FB074601213846FFF7D8FFF1
:102F60000646FF2E23D0B81904A900F0FEF88246C9
:102F70009DF810100A2000F0EDF8BAFBF0F542F2CF
:102F80001070B5FBF0F0C1B27E2001556420B5FB96
:102F9000F0F06421B0FBF1F201FB12017F2001553A
:102FA0006420B5FBF0F100FB115180200155032195
:102FB0003846FFF7ADFF0646FF2E45D0B81904A9E5
:102FC00000F0D3F805469DF81000801CC1B20A201D
:102FD00000F0C0F8B5FBF0F044F8810F9DF8100048
:102FE000801CC1B20A2000F0B5F8B5FBF0F100FB7F
:102FF000115A504603F0CCF881469DF81000C0F1FC
:103000000500C1B20A2000F0A5F8009003F0C0F856
:103010008346494603F0D0F882464D4902F0BEFF90
:10302000052102900A2000F095F8216800FB01FAC2
:10303000504603F0ADF80190029902F04DFF039065
:1030400003F06EF844F8810904213846FFF760FF69
:10305000064605213846FFF75BFF0646FF2E45D0A2
:10306000B81904A900F081F805469DF81000801CED
:10307000C1B20A2000F06EF8B5FBF0F044F8860FFC
:103080009DF81000801CC1B20A2000F063F8B5FB67
:10309000F0F100FB115A504603F07AF881469DF892
:1030A0001000C0F10500C1B20A2000F053F80090F2
:1030B00003F06EF88346494603F07EF882462449C1
:1030C00002F06CFF052102900A2000F043F821680D
:1030D00000FB01FA504603F05BF80190029902F000
:1030E000FBFE039003F01CF844F8860906213846DD
:1030F000FFF70EFF064609213846FFF709FF06468F
:10310000FF2E1ED0B81904A900F02FF8054642F290
:103110001070B5FBF0F0C1B27D2001556420B5FB05
:10312000F0F06421B0FBF1F201FB12017C200155AB
:103130006420B5FBF0F100FB115000F5FA60A4F833
:103140007A0005B0BDE8F08F24474E524D43000091
:103150000000704210B50246012000E050430B1EF3
:10316000A1F10104E1B2F9D110BD2DE9F34F81B015
:1031700007463C4600200090834681460026804654
:1031800028E020782D2802D148F00208641C20781D
:103190002C2802D020782A2800D11CE020782E2864
:1031A00003D148F00108641C09E02078392802DCCA
:1031B0002078302803DA4FF0000900260BE008F0F1
:1031C000010010B1701CC6B203E009F1010000F06B
:1031D000FF09641CD5E700BF08F0020000B17F1CA6
:1031E00000250EE0A9F10100401BC1B20A20FFF743
:1031F000B1FF795D3039009A00FB01200090681C16
:10320000C5B24D45EEDB052E00DD052602980670A1
:1032100000250EE0701E401BC1B20A20FFF79AFF86
:1032200009F101012944795C303900FB01BB681CBC
:10323000C5B2B542EEDB31460A20FFF78BFF00999D
:1032400001FB00BA08F0020008B1CAF1000A5046BA
:10325000BDE8FE8F7047000070B5002100230F22EB
:10326000C47804B3154C246804F4E064C4F5E06445
:10327000210AC1F10403CA40447804FA03F18478B6
:103280001440214309010E4C0678A155047804F03E
:103290001F050124AC4005786D11AD0005F1E02556
:1032A000C5F8004109E0047804F01F050124AC4092
:1032B000044D0678761145F8264070BD0CED00E00F
:1032C00000E400E080E100E002490143024A1160AD
:1032D000704700000000FA050CED00E000200349F3
:1032E00008600349C1F88401704700008001224250
:1032F000000022427047000001460020034A506847
:1033000020F4404008435060704700000010024025
:1033100029B1064A52690243044B5A6104E0034A48
:1033200052698243014B5A6170470000001002400D
:1033300029B1064AD2690243044BDA6104E0034A28
:10334000D2698243014BDA617047000000100240ED
:1033500029B1064A12690243044B1A6104E0034A88
:1033600012698243014B1A6170470000001002404D
:1033700029B1064A92690243044B9A6104E0034A68
:1033800092698243014B9A6170470000001002402D
:1033900029B1064AD2680243044BDA6004E0034ACA
:1033A000D2688243014BDA6070470000001002408F
:1033B00030B500210022002400232D4D6D6805F05A
:1033C0000C0121B1042905D0082923D105E0294D9C
:1033D000056022E0284D05601FE0254D6D6805F46D
:1033E0007012234D6D6805F48034022505EB92427E
:1033F0001CB9224D554305600BE01D4D6D6805F469
:1034000000351DB11E4D5543056002E01A4D554370
:10341000056002E0174D056000BF00BF144D6D68E8
:1034200005F0F0010909174D6B5C0568DD4045604A
:103430000F4D6D6805F4E061090A124D6B5C45683B
:10344000DD4085600A4D6D6805F46051C90A0D4D77
:103450006B5C4568DD40C560054D6D6805F4404115
:10346000890B094D6B5CC568B5FBF3F5056130BD93
:103470000010024000127A00001BB70000093D0056
:10348000808D5B00570000206700002002490988FA
:103490008143014A118070470428004070B500261E
:1034A0000024002500F07AF806463848B6FBF0F410
:1034B00037480088A0423CD035490C8040F2B275B4
:1034C00010E02846FEF70AFF40B1B4F5B77F02D3FB
:1034D000A4F5B77404E0681C85B206E0A4F26D148C
:1034E000681C85B2B4F5B67FEBD800BF294885804B
:1034F000002516E027498888FEF7F0FE30B1012D3F
:1035000004D11D2C01D31D3C09E00CE02248405D94
:10351000A04203D82048405D241A00E003E0681C64
:1035200085B21C2CE6D200BF681C1A498871601C49
:10353000C8711648B6FBF0F100FB11644FF46160EE
:10354000B4FBF0F0134908704FF46160B4FBF0F184
:1035500000FB11403C21B0FBF1F00E4948704FF4E4
:103560006160B4FBF0F100FB11403C21B0FBF1F2D3
:1035700001FB1200074988700B46DA79997998881F
:1035800000F028F803490872002070BD8051010046
:103590006C000020480D00204A6400080021034808
:1035A0000188001F008841EA004070471C28004045
:1035B00001460020064A12880A40D0B2044A121F6F
:1035C00012880A4012B108B1012000E000207047C3
:1035D00004280040F0B503460C461546642093FBD2
:1035E000F0F0C6B2642093FBF0F700FB1730C1B2D5
:1035F000132E02DD01F16400C1B20846CF1701EBC2
:10360000977701EBA707BAB2072092FBF0F700FB10
:10361000172082B25719601EDFF82CC01CF800007A
:10362000384482B2CF1701EB9777BF10A1EB870721
:103630001FB9032C01DA501E82B2072092FBF0F76B
:1036400000FB1720C0B2F0BD3E64000810B5012099
:10365000FFF7AEFF08B1FFF721FF0220FFF7A8FF39
:1036600010B10220FFF712FF0520FFF70FFF00F057
:1036700001F810BD00BF0348008800F020000028BA
:10368000F9D0704704280040704710B500F002F8E8
:1036900010BD00000CB50020019000903348006878
:1036A00040F480303149086000BF3048006800F4C1
:1036B000003000900198401C0190009818B90198C2
:1036C000B0F5A06FF1D12948006800F4003010B1C6
:1036D0000120009001E0002000900098012843D1D3
:1036E0002348006840F0100021490860084600683F
:1036F00020F0030008600846006840F002000860FF
:103700001A484068194948600846406848600846B9
:10371000406840F4806048600846406820F47C10AF
:1037200048600846406840F48810486008460068D1
:1037300040F08070086000BF0C48006800F0007026
:103740000028F9D00948406820F003000749486084
:103750000846406840F00200486000BF03484068E7
:1037600000F00C000828F9D10CBD00000010024048
:10377000002002400F49087949790E4A117111461B
:103780008A794A71CA798A71C871087A897A094A2C
:10379000117211468872487ACA7A4A72C872087BD6
:1037A000C97B044A117311468A7BCA734A7B8A73A8
:1037B00048737047CA1B002000B500220FE00023A9
:1037C0000AE0084901EB8201C85C00F015FF0549D9
:1037D00001EB8201C8545B1C042BF2DB521C042A4F
:1037E000EDDB00BDCA1B00207047000010B5134878
:1037F000006840F00100114908600846406810491F
:1038000008400E494860084600680E4908400B49C8
:1038100008600846006820F4802008600846406878
:1038200020F4FE0048604FF41F008860FFF72DFF72
:103830004FF000600449086010BD00000010024015
:103840000000FFF8FFFFF6FE08ED00E010B50024D1
:103850000121880700F07EF9012818D10121800795
:1038600000F075F80A48006820B109480068401E59
:1038700007490860002408E0064850F82400401C6E
:10388000044941F82400601C84B20C2CF4DB10BD08
:1038900070000020540D002010B50121084800F0F0
:1038A00059F960B10748008840F400400549088094
:1038B0000121034800F04BF8002000F031F810BD62
:1038C00000080040740000207FB505460C46012129
:1038D0000420FFF72DFDADF80450ADF800400020A6
:1038E000ADF80600ADF8020069460C4800F04EF94C
:1038F00001221146094800F03EF91E208DF80C0007
:1039000001208DF80D0002208DF80E0001208DF8A9
:103910000F0003A8FFF7A0FC7FBD000000080040D7
:1039200010B5044644B10021064800F02DF90121EC
:10393000044800F00FF803E00021024800F00AF804
:1039400010BD000000080040CA4302827047CA430D
:103950000282704721B1028842F00102028004E035
:1039600002884FF6FE731A400280704710B5044675
:103970006848844208D10121C014FFF709FD0021E5
:10398000E014FFF705FDC4E0B4F1804F08D1012138
:103990000846FFF7DDFC00210120FFF7D9FCB8E065
:1039A0005D48844208D101210220FFF7D1FC0021AB
:1039B0000220FFF7CDFCACE05848844208D1012139
:1039C0000420FFF7C5FC00210420FFF7C1FCA0E0A4
:1039D0005348844208D101210820FFF7B9FC002197
:1039E0000820FFF7B5FC94E04E48844208D101213D
:1039F0001020FFF7ADFC00211020FFF7A9FC88E0A4
:103A00004948844208D101212020FFF7A1FC002170
:103A10002020FFF79DFC7CE04448844208D101212E
:103A20004014FFF7B5FC00216014FFF7B1FC70E013
:103A30003F48844209D10121C804FFF7A9FC0021B5
:103A40004FF40020FFF7A4FC63E03A48844209D118
:103A500001210805FFF79CFC00214FF48010FFF7BF
:103A600097FC56E03448844209D101214805FFF70C
:103A70008FFC00214FF40010FFF78AFC49E02F482B
:103A8000844208D101214020FFF762FC0021402040
:103A9000FFF75EFC3DE02A48844208D101218020E6
:103AA000FFF756FC00218020FFF752FC31E025484B
:103AB000844208D101218015FFF74AFC0021A0159E
:103AC000FFF746FC25E02048844209D10121080483
:103AD000FFF75EFC00214FF48030FFF759FC18E03F
:103AE0001A48844209D101214804FFF751FC002102
:103AF0004FF40030FFF74CFC0BE01548844208D12E
:103B000001218804FFF744FC00214FF48020FFF7D7
:103B10003FFC10BD002C01400004004000080040A4
:103B2000000C004000100040001400400034014030
:103B3000004C01400050014000540140001800407A
:103B4000001C0040002000400040014000440140B3
:103B50000048014030B50246002000230024158AA9
:103B600005EA0103958905EA010413B10CB10120AE
:103B700000E0002030BD1AB183890B43838102E04D
:103B800083898B4383817047818470470022028838
:103B90001D4B98420ED01D4B98420BD0B0F1804F78
:103BA00008D01B4B984205D01A4B984202D01A4BB2
:103BB000984204D14FF68F731A404B881A43174B23
:103BC000984207D0164B984204D04FF6FF431A4054
:103BD000CB881A4302808B8883850B8803850A4B28
:103BE00098420BD0094B984208D00E4B984205D012
:103BF0000D4B984202D00D4B984201D10B7A0386AF
:103C00000123838270470000002C014000340140F2
:103C10000004004000080040000C0040001000407C
:103C200000140040004001400044014000480140B1
:103C300070B58CB006460C46154601210846FFF7C4
:103C400067FB3046FEF7FCF80194029510200390C4
:103C50000020049005908020069000200790089096
:103C600009904FF480500A9000200B9001A9304633
:103C7000FEF78CF90CB070BD10B5002440F2255150
:103C80001E4800F0E4F958B340F225511B4800F0FB
:103C90005FF91A4800F020FBC4B20021072001F0B0
:103CA00089FD17480088B0F5007F0BDA14480188B9
:103CB0000088401C124A10801248445401201249C6
:103CC00008700DE040F2022110480068FCF781FD09
:103CD0004FF400710B48FCF77CFD00200849088078
:103CE00040F22771054800F0B2F928B1002240F2F5
:103CF0002771024800F0D5F910BD000000380140DE
:103D0000840000208A1300208A0000207800002010
:103D100010B5002440F225512C4800F098F90028F5
:103D200047D040F22551294800F012F9002108201F
:103D300001F040FD26480078D0B9244800F0CCFAC4
:103D4000C4B224480088B0F5007F08DA2148018811
:103D50000088401C1F4A10801F48445429E04FF43B
:103D600000711D48FCF735FD00201A49088020E04D
:103D70001748007802281CD1144800F0ADFAC4B2EC
:103D800014480088B0F5007F0BDA124801880088DB
:103D9000401C104A10801048445401200C490870FF
:103DA00007E04FF400710C48FCF713FD00200949AF
:103DB000088040F22771054800F049F928B1002237
:103DC00040F22771014800F06CF910BD004400403A
:103DD0008B000020860000208A15002010B50024EA
:103DE00040F225511C4800F032F9F8B140F225515B
:103DF000194800F0ADF80021092001F0DBFC17485C
:103E0000007898B9144800F067FAC4B214480088E2
:103E1000B0F5007F0BDA124801880088401C104A78
:103E200010801048445401200C49087007E04FF4FA
:103E300000710C48FCF7CDFC00200949088040F2D5
:103E40002771054800F003F928B1002240F22771DC
:103E5000014800F026F910BD004800408C00002009
:103E6000880000208A17002010B586B00446012182
:103E70000820FFF77DFA01218804FFF759FA2F483F
:103E800000F08AF84FF48060ADF8100003208DF840
:103E9000120018208DF8130004A92948FEF7CDF868
:103EA0004FF40060ADF8100004208DF8130004A951
:103EB0002348FEF7C2F800940020ADF80400ADF8E6
:103EC0000600ADF80800ADF80C000C20ADF80A00B3
:103ED00069461A4800F00AF901228021174800F0CB
:103EE00052F8184A1549091D1748FFF7A1FE01218C
:103EF000124800F03CF8012240F225510F4800F032
:103F0000D0F827208DF8140002208DF8150003202A
:103F10008DF8160001208DF8170005A8FFF79CF911
:103F200041F61F4140F2E730FFF7CEFC0020074981
:103F30000880FFF7F5FC06B010BD00000048004007
:103F4000000C0140880D0020800002407400002019
:103F500010B50022002340F66A14A14200D100BF30
:103F60000A1201249440A3B2DC43048010BD21B1A5
:103F7000828942F40052828104E082894DF6FF7307
:103F80001A40828170471AB1838A0B43838202E010
:103F9000838A8B438382704710B50446204884424D
:103FA00009D101218803FFF7F3F900214FF4804084
:103FB000FFF7EEF932E01B48844209D101214804A1
:103FC000FFF7C6F900214FF40030FFF7C1F925E0F3
:103FD0001548844209D101218804FFF7B9F900216D
:103FE0004FF48020FFF7B4F918E01048844209D15B
:103FF0000121C804FFF7ACF900214FF40020FFF7BE
:10400000A7F90BE00A48844208D101210805FFF70F
:104010009FF900214FF48010FFF79AF910BD0000BE
:10402000003801400044004000480040004C00407F
:104030000050004002460020B1F5007F00D100BFD3
:1040400013880B400BB1012000E00020704770B5D1
:104050000246002400230025002040F66A16B142E3
:1040600000D100BFC1F3421501F01F03012606FA7B
:1040700003F3012D02D19689334006E0022D02D1CF
:10408000168A334001E0968A33400C12012606FA64
:1040900004F41688344013B10CB1012000E0002074
:1040A00070BDF0B50346002400260025002040F630
:1040B0006A17B94200D100BF1846C1F3421401F09B
:1040C0001F06012707FA06F5012C01D10C3004E088
:1040D000022C01D1103000E014301AB107682F43D0
:1040E000076002E00768AF430760F0BD2DE9F047C5
:1040F00086B005460E460024A24600BFA146002712
:10410000B08900B100BF2F462C8A4CF6FF700440E6
:10411000F08804432C82AC894EF6F3100440B0883A
:1041200031890843718908430443AC81AC8A4FF656
:10413000FF400440B0890443AC8201A8FFF738F97E
:104140001F48874202D1DDF810A001E0DDF80CA085
:10415000A88900F4004040B10AEBCA0000EB0A1045
:1041600031684900B0FBF1F807E00AEBCA0000EB48
:104170000A1031688900B0FBF1F86420B8FBF0F058
:1041800004012009642101FB1089A88900F4004082
:1041900040B1322000EBC900B0FBF1F000F00700A5
:1041A000044308E0322000EB09106421B0FBF1F079
:1041B00000F00F0004432C8106B0BDE8F08700003A
:1041C000003801400FB470B58AB0064610A80190BF
:1041D00040213046FFF72EFF73E00F9800785C28EF
:1041E0001CD10F98401C0F9000786E2809D07228BF
:1041F0000FD10D21304600F074F80F98401C0F903D
:104200000BE00A21304600F06CF80F98401C0F902C
:1042100003E00F98401C0F9000BF4BE00F98007810
:10422000252840D10F98401C0F900078642818D0A2
:10423000732833D1019810C801900BE021783046E3
:1042400000F04FF800BF40213046FFF7F3FE002892
:10425000F9D0641C20780028F0D10F98401C0F90F2
:1042600020E0019820C801902A461AA102A8FCF774
:104270005DF802AC0BE02178304600F032F800BF68
:1042800040213046FFF7D6FE0028F9D0641C207884
:104290000028F0D10F98401C0F9003E00F98401CAD
:1042A0000F9000BF06E00F9810F8011B0F903046EA
:1042B00000F017F800BF40213046FFF7BBFE002892
:1042C000F9D00F980078002887D10AB070BC5DF84B
:1042D00014FB00002564000001468888C0F3080034
:1042E0007047C1F308028280704700BFFEE74900B3
:1042F00050EAC12018BF04204A0D18BF40F0010049
:1043000040F2FF72B2EB515F08BF40F0020001289B
:1043100008BF0520704730380A2801D201207047B5
:104320000020704710B500F05AF800F018F800F0BF
:1043300069F90123002208214FF4E13001F04CFA21
:104340004FF4E13001F08EFA4FF41650FFF78CFD78
:104350002921C82001F0FCF9FDF760FC10BD08B56B
:104360004FF4E060FEF7B0FF1C208DF80000002045
:104370008DF8010002208DF8020001208DF8030065
:104380006846FEF769FF25208DF8000001208DF8B2
:1043900001008DF802008DF803006846FEF75CFF0F
:1043A00026208DF8000001208DF8010002208DF8F4
:1043B000020001208DF803006846FEF74DFF27201C
:1043C0008DF8000001208DF8010003208DF8020017
:1043D00001208DF803006846FEF73EFF08BD10B5CA
:1043E00001210846FEF7A4FF01214804FEF7A0FFC3
:1043F00001218804FEF79CFF01210420FEF7B8FF8D
:1044000001210820FEF7B4FF01211020FEF7B0FFC4
:1044100001212020FEF7ACFF01218803FEF7A8FF51
:1044200010BD000070B500260024002500BF0AE082
:1044300040210948FDF78CFE10B9681CC5B200E0A8
:104440000025601CC4B20A2CF2DB0A2D01DB00201F
:1044500070BD0120FCE70000001001402DE9F04193
:10446000C1F30A52A2F2FF362F4A304B0D460446E2
:10447000142E2FDA002E12DA01F04CFA0022134625
:1044800001F0D2FB4CD2002DBCBF4FF00045002400
:1044900046DB55EA040018BF254D19D140E0DFF88E
:1044A00094C02CFA06F705EA070C5CEA040C08BF76
:1044B000BDE8F08101F02EFA0022134601F0B4FBB2
:1044C0002ED2002D03DD4FF48010F0400544BD4393
:1044D000002425E0332EC8BFBDE8F081A6F1140CFE
:1044E0004FF0FF3727FA0CF73C4208BFBDE8F081D8
:1044F00001F0D0FB0022134601F096FB10D2002DF4
:104500000DDD142E08BF6D1C09D0C6F13400012149
:1045100001FA00F02044A04238BF6D1C0446BC43A1
:1045200029462046BDE8F0819C7500883CE4377E32
:104530000000F03FFFFF0F002DE9FF5F8046894636
:1045400027490868C11700EBD1614911254A11605C
:1045500010460068801D244908604046FCF782F838
:104560000746BB46F91707EB1171081101F0B5FAC0
:10457000CDE90001FFF772FFCDE9020101F07EFAFB
:1045800006467001FBF77CFE824671015046FCF73F
:1045900020F900251DE000240AE019F80400134961
:1045A000085504EB051018F8000011490855641C63
:1045B0000C480068B4EB800FEFDBFDF7ADFEFDF7B4
:1045C000F5FB102101FB05A00A460A49FCF7B4F8E7
:1045D0006D1CB542DFDB504604B0BDE8F09F000023
:1045E000A00000209C00002098000020061D002054
:1045F0009A1B0020AA1B002001460148405C70471E
:104600005665000808B54FF40070ADF8000018209A
:104610008DF8030003208DF8020069465048FDF72D
:104620000CFD4FF48060ADF8000004208DF803000D
:1046300003208DF8020069464948FDF7FEFC04207E
:10464000ADF8000018208DF8030003208DF802005B
:1046500069464348FDF7F1FC0820ADF8000004204E
:104660008DF8030003208DF8020069463C48FDF7F1
:10467000E4FC4FF48060ADF8000018208DF80300D2
:1046800003208DF8020069463648FDF7D6FC4FF44A
:104690000060ADF8000004208DF8030003208DF8C1
:1046A000020069462F48FDF7C8FC0120ADF8000064
:1046B00003208DF8020010208DF803006946294878
:1046C000FDF7BBFC0220ADF8000003208DF80200CE
:1046D00014208DF8030069462248FDF7AEFC402007
:1046E000ADF8000003208DF8020048208DF803008B
:1046F00069461D48FDF7A1FC3020ADF800000320FD
:104700008DF8020048208DF8030069461448FDF733
:1047100094FC0320ADF800008DF8020010208DF805
:10472000030069461048FDF788FC0820ADF800003A
:1047300003208DF8020010208DF8030069460A4816
:10474000FDF77BFC1020ADF8000003208DF802007F
:1047500010208DF8030069460348FDF76EFC08BD84
:1047600000080140000C01400010014070B50446F3
:10477000002521460248FBF73FFF0546284670BD4D
:104780008A15002030B5ADF5017D4FF4007101A808
:10479000FCF741F80025B14800780A2876D2DFE816
:1047A00000F00511316283A3D6F9F7F600F0B6F9EF
:1047B0004FF47A7000F0F4FFA8480078401CA74935
:1047C000087046E142F210734FF44872A4A1A5A00C
:1047D00000F0A6F9044644B1A0480078401C9F4967
:1047E00008700020A14908700BE0A0480078401C28
:1047F0009E49087008460078052802DD0020974988
:10480000087026E142F210734FF4487294A198A008
:1048100000F086F90446CCB198A12046FBF7ECFEE7
:1048200040B18E480078401C8C49087000208F49A8
:10483000087017E094A12046FBF7DEFE90B104203B
:10484000864908700020894908700BE08748007885
:10485000401C8649087008460078052802DD0020C3
:104860007E490870F5E041F288334FF448727CA12C
:1048700089A000F055F904464CB178480078401CF6
:10488000764908700020794908700CE0E0E077482C
:104890000078401C7549087008460078052802DD3C
:1048A00000206E490870D4E041F288334FF448721A
:1048B00075A16FA000F034F9044644B16748007850
:1048C000401C664908700020684908700BE0674882
:1048D0000078401C6549087008460078052802DD0C
:1048E00000205E490870B4E04FF47A7332225CA174
:1048F0006CA000F015F90446E4B121466D48FFF7BD
:1049000061FC6DA12046FBF777FE0546102205F1FC
:104910000C016C48FBF710FF6A4A6BA16548FFF772
:1049200051FC4E480078401C4C49087000204F490B
:1049300008700BE04D480078401C4C490870084650
:104940000078052802DD00204449087081E041F22A
:1049500088334FF448724CA145A000F0E1F80446BA
:1049600044B13E480078401C3C49087000203F4953
:1049700008700BE03D480078401C3C490870084630
:104980000078052802DD00203449087061E05BE012
:104990002DE0FFE750A04B4B51A256A1009001A87B
:1049A000FBF7C4FC01AA48A14248FFF70BFC4FF4F7
:1049B000FA634FF448722AA101A800F0B1F8044646
:1049C00044B126480078401C24490870002027493B
:1049D00008700BE025480078401C24490870084600
:1049E0000078052802DD00201C49087031E03AA05B
:1049F000344B42A23FA1009001A8FBF797FC01AA0B
:104A000043A12C48FFF7DEFB4FF4FA634FF44872E2
:104A100013A101A800F084F8044644B10F480078BF
:104A2000401C0E4908700020104908700BE00F4828
:104A30000078401C0D49087008460078052802DD02
:104A400000200649087004E0FF200449087000E0D7
:104A500000BF00BF0DF5017D30BD000091000020BA
:104A60004F4B000041540D0A000000009000002050
:104A700041542B5354415455530D0A004D51545435
:104A800020524541445900004D51545420434F4E4B
:104A90004E454354204F4B0041542B5354415254E4
:104AA0000D0A000041542B434C49454E5449443FA4
:104AB0000D0A0000003801402B434C49454E544933
:104AC000443A20008A1B00206C6F636B5F69643D71
:104AD00025730D0A000000002C320D0A00000000B2
:104AE00041542B5355425343524942453D62656CF4
:104AF0006C2F0000257325732573000041542B5340
:104B000055425343524942453D6C6F636B2F000041
:104B10006C6F636B3D25730D0A0000007047000049
:104B20002DE9F04104460D4616461F464FF0010898
:104B300000210B2000F03EFE3CE04FF400712048C5
:104B4000FBF747FE00201F4908801F4908702146D7
:104B50001E48FFF737FB304600F022FE18491C487C
:104B6000FFF730FB0120184908702846FFF7FEFDCB
:104B7000A8B14FF000080020134908704FF40072EC
:104B80000F494846FBF7D8FD4FF400710C48FBF77E
:104B900020FE00200B4908804846BDE8F0813946D8
:104BA0000B2000F007FE28B94FF00008002006494E
:104BB0000870F2E7B8F1000FBFD100BFEDE70000C9
:104BC0008A150020860000208B0000200044004051
:104BD0000038014010B501210348FDF7C4FA022155
:104BE0000148FDF7BEFA10BD0010014010B50121CB
:104BF0000348FDF7B6FA02210148FDF7B4FA10BDEB
:104C00000010014010B501210348FDF7AAFA022166
:104C10000148FDF7A6FA10BD0010014086B000BFA4
:104C200000BF00BF00BFFFF77DFBFBA1FE48FFF701
:104C3000C9FAFDE306E0FFF7A5FDFC480078FF2870
:104C400000D100E0F7E700BF00F0ECFD00F02AFE25
:104C50001021F748FEF7B8F80A210020FDF7A8FA5E
:104C6000F4490880098840F6E44201FB02F0C117CC
:104C700000EB1151C1F30F31EE4A1180104600884C
:104C800058214843142190FBF1F011460880084652
:104C90000088A0F598508838642148434FF4166185
:104CA00090FBF1F0E44908800846008814287CDA7B
:104CB000084600880A2878DDE0480078002874D18A
:104CC000DFA0DB4BE0A2E6A10090E748FBF72EFB5C
:104CD000E54AE6A1D448FFF775FA00234FF496722F
:104CE000E5A1E148FFF71CFF0446002C38D04FF443
:104CF0000071E248FBF76DFD4FF40071E048FBF7EF
:104D000068FDE0A02221E0A30A46CDE90010E0A161
:104D1000DA48FBF70BFBD94AE0A1C348FFF752FA88
:104D2000E34AE4A1C048FFF74DFAD54AE4A1BE48E2
:104D3000FFF748FA1421E648FBF74BFD3120D04934
:104D40000870E349087000234FF49672E1A1E0482F
:104D5000FFF7E6FE04464FF40071C348FBF739FD48
:104D6000B54800880A283BDAB4480078012837D1D2
:104D70000020B2490870D8A0AD4BB3A2D8A10090D2
:104D8000B948FBF7D3FAB84AD7A1A748FFF71AFAF0
:104D900000234FF49672B8A1B348FFF7C1FE044652
:104DA0001CB14FF40071B54800E019E0FBF711FDAC
:104DB0004FF40071B248FBF70CFDB2A02221B2A360
:104DC0000A46CDE90010B2A1AC48FBF7AFFA0023C8
:104DD0004FF49672BFA1AA48FFF7A2FE044600BF97
:104DE000C6A1CA48FBF708FCC94908609049C848F1
:104DF0000068FBF701FCC74908600C22BFA1C4484A
:104E00000068FBF74EFC002856D1C3A18648FFF787
:104E1000D9F90021042000F0CDFC0021032000F08E
:104E2000C9FC1021BF48FDF793F920B12021BD48EE
:104E3000FDF78EF980BB4FF40071BB48FBF7C9FC4E
:104E40004FF400718D48FBF7C4FCB1480168203174
:104E5000B548FBF7E3FB0120B4490870B24800787D
:104E600031280CD11021AF48FDF772F918B9012093
:104E7000AF4908701BE00020AD49087017E0AA4850
:104E8000007832280DD12021A648FDF761F920B91C
:104E90000120A84908700AE00EE00020A54908702A
:104EA00005E0A1480078302801D1FEF717FA4FF449
:104EB00000719648FBF78DFC9D48007801287CD155
:104EC0004FF47A61042000F075FC40B901209A4942
:104ED0000870FFF77FFE99A15348FFF773F99CA173
:104EE0005148FFF76FF910218E48FDF731F958B995
:104EF00020218C48FDF72CF9012805D1FFF776FE1B
:104F000096A14948FFF75EF910218648FDF720F980
:104F100001284FD120218348FDF71AF9002849D1F3
:104F200092A14148FFF74EF9002081490870FFF730
:104F300069FE43A03E4B91A249A100909548FBF722
:104F4000F5F9944A94A13848FFF73CF900234FF44F
:104F5000967249A18F48FFF7E3FD044654B34FF41E
:104F600000714648FBF735FC4FF400714448FBF7ED
:104F700030FC8FA022218FA2CDE90212CDE90410CE
:104F80008BA08DA30A46CDE900108CA13B48FBF70E
:104F9000CDF93A4A41A12448FFF714F933204C498E
:104FA000087000234FF496724AA14948FFF7B8FDF4
:104FB000044600BF10215B4800E02BE0FDF7C8F875
:104FC000002827D120215748FDF7C2F8012821D118
:104FD0005948007801281DD10020574908705449CC
:104FE0000870FFF70FFE16A0114B64A21CA10090E1
:104FF0006848FBF79BF9674A67A10B48FFF7E2F89F
:1050000000234FF496721CA16248FFF789FD044605
:1050100004B1DFE010E10000756172743120697342
:10502000206F6B0D0A000000003801409100002045
:105030008A1B00202C0000202E00002030000020C1
:105040002C312C320D0A000041542B5055424C4952
:1050500053483D6C6F636B646174612F0000000006
:105060002573257325730000830700207373737302
:105070003D25730D0A0000003E0000005005002091
:105080003803002032300000626174746572790068
:105090007B2563257325633A25737D0065787072DF
:1050A000657373546578743D25730D0A0000000024
:1050B000500700206165734B65793D25730D0A002B
:1050C000636970686572546578743D25730D0A00D4
:1050D000340D00204F4B00002C33362C320D0A00CB
:1050E000257325732500000077616E677A686F6EFF
:1050F0006779613D25730D0A00000000746F7069C7
:10510000633A206C6F636B2F0000000034090020AD
:1051100034000020380000206C6F636B20646174E1
:10512000610D0A0000080140380500202900002018
:105130004A0000204E000020480000204C6F636BA6
:105140005F4F70656E2074696D65720D0A00000016
:105150004C6F636B5F4F70656E0D0A0041414120DB
:105160006C6F636B5F6F70656E0D0A00414141208B
:105170006C6F636B5F73746F700D0A0041542B503A
:1051800055424C4953483D6C6F636B6261636B2FB2
:1051900000000000600700205075626C6973684C65
:1051A0006F636B4261636B6275663D25730D0A0028
:1051B000310000006F6B0000636D64007B25632588
:1051C0007325633A25732C2563257325633A25736C
:1051D0007D0000004FF40071FD48FBF7FAFA4FF430
:1051E0000071FC48FBF7F5FAAFF23C002221AFF268
:1051F0003C02CDE90212CDE90410AFF24C00AFF24F
:1052000048030A46CDE90010AFF25001F048FBF721
:105210008DF8EF4AAFF27C11EF48FEF7D3FF332051
:10522000EE49087000234FF49672AFF25811EB4824
:10523000FFF776FC044600BFE948007801287DD1DD
:105240004FF47A61032000F0B5FA40B9FFF7CEFCC5
:105250000120E4490870E4A1DF48FEF7B3FFE7A1AD
:10526000DD48FEF7AFFF1021E948FCF771FF012888
:105270000AD12021E648FCF76BFF28B9FFF7AAFC0A
:10528000E4A1D548FEF79EFF1021E148FCF760FF3E
:1052900000285CD12021DE48FCF75AFF012856D1B6
:1052A0000020CF490870FFF7ADFCDFA1CA48FEF728
:1052B00089FFAFF27420E04BAFF24012AFF26021F1
:1052C0000090DE48FBF732F8DC4AAFF23411C248F6
:1052D000FEF778FF00234FF49672AFF26421D748AF
:1052E000FFF71EFC044654B34FF40071B848FBF7B7
:1052F00070FA4FF40071B748FBF76BFAD0A0222187
:10530000AFF25012CDE90212CDE90410CDA0AFF2F8
:1053100058130A46CDE90010AFF26011AC48FBF714
:1053200005F8AB4AAFF28C21AB48FEF74BFF3520B6
:10533000AA49087000234FF4967201E069E006E084
:10534000AFF27021A548FFF7EBFB044600BF102128
:10535000AF48FCF7FDFE01285BD12021AC48FCF7EB
:10536000F7FE002855D19F480078012851D1002030
:105370009C4908709A490870FFF744FCAFF240302E
:10538000AD4BAFF20822AFF228310090AB48FAF7EC
:10539000CDFFAA4AAFF200218F48FEF713FF00238A
:1053A0004FF49672AFF23031A448FFF7B9FB0446D0
:1053B0007CB34FF400718648FBF70BFA4FF4007191
:1053C0008448FBF706FA9EA02221AFF21822CDE90D
:1053D0000212CDE904109BA0AFF224230A46CDE9C6
:1053E0000010AFF228217A48FAF7A0FF784AAFF20E
:1053F00054317948FEF7E6FE3520784908700023DD
:105400004FF49672AFF234317448FFF789FB0446CB
:1054100000BF8DA19048FBF7EFF8904908608649DE
:105420008E480068FBF7E8F88D4908600C2200E020
:105430007DE185A189480068FBF733F9A8B989485F
:10544000007890B988A16448FEF7BCFE0120854928
:10545000087008218648FCF786FE4FF4FA7000F0C9
:105460009FF908218248FCF77CFE7E4800780128DD
:1054700002D100207B49087010216548FCF768FEC6
:1054800001281BD120216248FCF762FE012815D1BA
:105490007848007890B9012077490870082174484D
:1054A000FCF761FE642000F07BF908217048FCF7EE
:1054B00058FE4FF4C87000F073F903E008216C48FF
:1054C000FCF74FFE6DA16448FBF796F8634908604E
:1054D000FEF7A8FF50B96CA13F48FEF773FE00210C
:1054E000032000F067F901203D4908704EF6602165
:1054F000052000F05FF958BBAFF2BC404E4BAFF255
:10550000B842AFF2A44100906448FAF70FFF634A33
:10551000AFF2A8413048FEF755FE00234FF49672D3
:10552000AFF2AC415D48FFF7FBFA044684B130208E
:105530002A49087000234FF49672AFF26841274859
:10554000FFF7EEFA04464FF400715448FBF741F9B7
:105550005348007801283AD110214548FCF703FE52
:1055600050480078012832D100204E4908704E4939
:105570004E48FCF7FAFDFCF733FE4C48D0F88100AA
:1055800028B34A48D0F8860008B34FF40071104899
:10559000FBF71FF930207D21454A464BCDE900211C
:1055A00002907B2244A10A48FAF7C0FE45A0224B94
:1055B000AFF26C52AFF2585100904448FAF7B6FE81
:1055C00000234FF49672AFF25051344880E0A5E0CA
:1055D000500500203803002000380140340D002021
:1055E0004E000020490000204C6F636B5F436C6FDE
:1055F00073652074696D65720D0A00004242422095
:105600004C6F636B5F436C6F73650D0A00000000A5
:1056100000080140424242206C6F636B5F636C6F15
:1056200073650D0A00000000424242206C6F636BFC
:105630005F73746F700D0A008A1B002060070020E2
:105640003000000032000000746F7069633A20621D
:10565000656C6C2F0000000034090020340000202D
:10566000380000202800002062656C6C0D0A0000E4
:1056700000100140290000202A0000204D51545400
:1056800020434C4F53450000627574746F6E5F6722
:1056900065745F76616C756500000000830700200B
:1056A000560000208C0000208A170020F6070020FA
:1056B000BA0800209C080020256325732C2573253B
:1056C000630000002C36342C320D0A00A60700209F
:1056D000FFF726FA0446D4B14FF400711548FBF7E2
:1056E00078F8154A13491548FCF76DFA3820144923
:1056F000087000234FF49672AFF228611048FFF74C
:105700000FFA04464FF400710E48FBF762F81021BF
:105710000D48FCF726FD00200C4908704EF660216C
:10572000022000F047F810B9012008490870FFF77F
:1057300081BA0000380300205007002050050020E7
:10574000340D002083070020001001405600002087
:10575000FEB504460D464FF47A76F006FEF706F9DC
:105760000020ADF80200ADF80600ADF80440ADF839
:1057700000506946F006FEF709FA01218807FEF796
:10578000E3F80021F006FEF7FFF901221146900729
:10579000FEF7F1F901218807FEF7DCF8FEBD0000F5
:1057A0000349086000BF024909680029FBD170471E
:1057B0007000002010B502460023064850F8220071
:1057C000884204D30020034C44F8220000E0012367
:1057D000D8B210BD540D00202DE9FF4107460C46FC
:1057E00015461E460097ADF80440ADF80660ADF8CA
:1057F00008500020ADF80C000C20ADF80A006946F6
:105800000748FEF773FC012240F225510448FEF7D9
:1058100048FC01210248FEF7AAFBBDE8FF81000019
:105820000038014010B528210720FFF7C3FF78B9E1
:1058300008490948FEF7C6FC06490848FEF7C2FCBD
:105840004FF400710348FAF7C4FF002004490880B0
:1058500010BD00008A1300200044004000380140C1
:10586000840000201FB5044600940020ADF8040019
:10587000ADF80600ADF80800ADF80C000C20ADF84E
:105880000A0069460648FEF731FC012240F2255124
:105890000348FEF706FC01210148FEF768FB1FBD27
:1058A0000044004010B528210820FFF783FF88B985
:1058B00009490A48FEF786FC4FF400720649084879
:1058C000FAF73AFF4FF400710348FAF782FF00201D
:1058D0000449088010BD00008A15002000380140EE
:1058E000340900208600002010B500290AD008786D
:1058F000002807D005487844FBF750FC002801D069
:10590000002010BD0248784410BD0000260F0000A2
:105910001E0F000010B591EA030F48BF83F000434B
:1059200000F1CC81841A71EB030C05D2121943EB00
:105930000C03001B61EB0C01DFF824E14FEA11546A
:10594000A4EB135C1EEA430F18BF9EEA445F73D0BA
:1059500023EA0E03DCF1200E21EA045143F4801304
:1059600032D322FA0CFE10EB0E0023FA0CFE41EBB0
:105970000E01CCF1200E03FA0EFE10EB0E0051F1D9
:105980000001B1F5801FCCF1200E32D201EB0451A1
:1059900012FA0EF2BDE8104058BF7047401C38BFE5
:1059A0005FEA420218BF7047002814BF20F00100D0
:1059B00041F100014FEA410313F5001F38BF704762
:1059C000A1F1C04100F02AB9012A43EB0302ACF176
:1059D000200CDCF11F0E32BF4FF0000E23FA0CF347
:1059E00010EB030041EB0451B4EB115FD0D0A1EBFD
:1059F000045101F5801149085FEA300001EB0451C0
:105A00000ED350F1000038BF12FA0EFE08D1BDE8E7
:105A10001040C9E7401C38BF5FEA4202CAD1C3E761
:105A2000BDE810404FEA410313F5001F38BF70472F
:105A3000A1F1C04100F0F2B89EEA445F08D011EA3B
:105A40005E0FBDE8104004BF01F000410020704728
:105A5000BDE8104070B500F093F800BF64FBBE3E97
:105A60000000E0FF491058BFC1F140415B1058BF32
:105A7000C3F140438B42EFF3008070474FEA41038C
:105A80004FEA5353A3F58063D3F11E03C8BFD3F18C
:105A9000210C0CDD4FF0004242EAC12242EA505292
:105AA00032FA03FC8CEAE17CACEBE1707047102B1E
:105AB000C4BF0020704703F5787CBCF1FF3F04D0E1
:105AC0006FF0004282EA2100704770B500F058F88C
:105AD0004992248000207047F2E710F0004248BF4E
