:020000040800F2
:10000000F0120020DD010008BB0A0008790A000890
:10001000B70A0008D5070008AB1A00080000000066
:10002000000000000000000000000000BD0E0008FD
:100030006109000800000000410B0008A90F00083A
:10004000F7010008F7010008F7010008810E000819
:10005000F7010008F7010008F7010008F7010008A0
:10006000F7010008F7010008F7010008F701000890
:10007000F7010008F7010008F7010008F701000880
:10008000F7010008F7010008F7010008F701000870
:10009000F7010008F7010008F7010008F701000860
:1000A000F7010008F7010008F7010008F701000850
:1000B0000D100008F701000859100008F7010008AA
:1000C000F7010008F7010008F7010008F701000830
:1000D000F701000839140008D11400089D15000824
:1000E000F7010008F7010008F7010008F701000810
:1000F000F7010008F7010008F7010008F701000800
:10010000F7010008F7010008F7010008F7010008EF
:10011000F7010008F7010008F7010008F7010008DF
:10012000F7010008F7010008F7010008F7010008CF
:1001300000F002F800F042F80AA090E8000C8244B7
:100140008344AAF10107DA4501D100F037F8AFF294
:10015000090EBAE80F0013F0010F18BFFB1A43F0A5
:1001600001031847D0220000F0220000103A24BFFB
:1001700078C878C1FAD8520724BF30C830C144BF0C
:1001800004680C607047000000230024002500264E
:10019000103A28BF78C1FBD8520728BF30C148BFEA
:1001A0000B607047642900F07980732900F0A18208
:1001B000002070471FB51FBD10B510BD00F0D5FA67
:1001C0001146FFF7F7FF02F02BF800F0F3FA03B443
:1001D000FFF7F2FF03BC00F0F7FA00000948804780
:1001E00009480047FEE7FEE7FEE7FEE7FEE7FEE719
:1001F000FEE7FEE7FEE7FEE704480549054A064B31
:1002000070470000AD0F000831010008F00C00201D
:10021000F0120020F00E0020F00E00200FB41CB5EC
:10022000084B06AA7B4469460090059800F037FA0F
:1002300004460020694600F045FA20461CBC5DF8E3
:1002400014FB00009D04000070B50C460546012A11
:1002500005D02878800600D5EA69002302E0012352
:1002600005E05B1C934202D2E05C0028F9D1A8694A
:10027000E618C01AA861286A184428622846AFF315
:10028000008004E0D5E9012114F8010B9047B44245
:10029000F8D32846AFF3008070BD00002DE9F0418F
:1002A0000646002410687529314616A510D0AFF314
:1002B0000080002802DA404213A507E031688A076F
:1002C00001D512A502E0490704D511A5012401E0DA
:1002D000AFF3008000210A2206F1240709E0B0FBF9
:1002E000F2FCB0FBF2F302FB1C00303078541846ED
:1002F000491C0028F3D123462A463046BDE8F04188
:1003000000F06FB9000000002D0000002B0000007D
:10031000200000002DE9F05F894604464FF0000AF6
:10032000DFF874B1FB44C0F820A02046E16888479C
:10033000002874D0252806D0D4E901219047206AEE
:10034000401C2062F1E700265F462046E1688847AE
:100350002028054607DB312D05D2781910F8200C2E
:1003600008B10643F1E7B00701D526F00406C4F84A
:100370001CA00027C4F818A02A2D09D0284601F097
:1003800096FB38B304EB8708303DC8F8185019E0E5
:1003900059F8041B204604EB87029161E168884705
:1003A000012F054618D1E069002820DA26F0200642
:1003B0001DE0D8F8180000EB800005EB4000303855
:1003C000C8F818002046E1688847054601F06FFB31
:1003D0000028EED1012F0AD02E2D08D12046E16849
:1003E00088477F1C0546022F46F02006C4DBA06923
:1003F000002803DA404246F00106A061F00701D070
:1004000026F010066C2D0BD0682D09D04C2D39D05C
:100410006A2D35D0742D35D07A2D33D016E038E0E2
:10042000E1682F4620468847B842054609D16C2F1F
:1004300026D04FF48060E168064320468847054691
:1004400004E06C2F1AD04FF4807006430DB3A5F171
:100450004100192802D8203546F400664A4629464C
:10046000204626604E46FFF79DFE80B101280BD046
:10047000F61D26F0070000F1080956E74020E4E7E2
:100480008020D8E70020D6E706F104094DE728468A
:1004900052E7206ABDE8F09FF820000030B505461D
:1004A0000B462A4613F8014B12F8010B08B1A04283
:1004B000F8D01CB1002802D06D1CF1E7284630BDF1
:1004C000032A40F2308010F0030C00F0158011F880
:1004D000013BBCF1020F624498BF11F801CB00F858
:1004E000013B38BF11F8013BA2F1040298BF00F8AC
:1004F00001CB38BF00F8013B11F0030300F0FD8091
:10050000083AC0F0088051F8043B083A51F804CB8F
:10051000A0E80810F5E7121D5CBF51F8043B40F855
:10052000043BAFF30080D20724BF11F8013B11F860
:1005300001CB48BF11F8012B24BF00F8013B00F8A4
:1005400001CB48BF00F8012B70474FF0000204298F
:10055000C0F0128010F0030C00F01B80CCF1040CF2
:10056000BCF1020F18BF00F8012BA8BF20F8022B26
:10057000A1EB0C0100F00DB85FEAC17C24BF00F8CC
:10058000012B00F8012B48BF00F8012B70474FF0FA
:10059000000200B5134694469646203922BFA0E8D3
:1005A0000C50A0E80C50B1F12001BFF4F7AF0907DF
:1005B00028BFA0E80C5048BF0CC05DF804EB8900D0
:1005C00028BF40F8042B08BF704748BF20F8022B13
:1005D00011F0804F18BF00F8012B7047704770472B
:1005E00070472DE9F0470D4699469246044600F1C2
:1005F00024080168880604D5E06921F01001216013
:1006000000E00120A84201DD471B00E00027A169AE
:100610007A1902EB0900081AA0612078C00602D4FA
:100620002046AFF30080002608E0D4E901211AF843
:1006300006009047206A401C761C20624E45F4DB81
:100640002078C0060AD52046AFF3008006E0D4E942
:10065000012130209047206A401C2062381EA7F1FB
:100660000107F4DC07E0D4E9012118F80500904700
:10067000206A401C2062281EA5F10105F3DC2046FB
:10068000AFF300802078000602D50220BDE8F08795
:100690000120FBE701694A1C02610878704700B538
:1006A0008FB0CDE901310021059105497944CDE9AB
:1006B000031011466846FFF72DFE0FB000BD000085
:1006C000E5FFFFFF0A6802F8010B0A60704710B5EA
:1006D000436913B1AFF3008001E0FFF7B5FD0120DE
:1006E00010BD127800F124010A7000224A70012224
:1006F000EDE711684FF0FF32E9E710B5203AC0F09E
:100700000B80B1E81850203AA0E81850B1E8185012
:10071000A0E81850BFF4F5AF5FEA027C24BFB1E84F
:100720001850A0E8185044BF18C918C0BDE81040C0
:100730005FEA827C24BF51F8043B40F8043B08BFC9
:100740007047D20728BF31F8023B48BF11F8012B90
:1007500028BF20F8023B48BF00F8012B704700007B
:10076000004870478C0C002070477546FFF7F8FF73
:10077000AE4605006946534620F00700854618B08E
:1007800020B5FFF739FDBDE820404FF000064FF0DF
:1007900000074FF000084FF0000B21F00701AC46B6
:1007A000ACE8C009ACE8C009ACE8C009ACE8C009D5
:1007B0008D46704710B50446AFF300802046BDE873
:1007C0001040FFF704BD000001491820ABBEFEE752
:1007D0002600020000BFFEE701684FF6FE721140DE
:1007E00001600021016041608160C1604B49884225
:1007F00008D14A490839496841F00F01474A083A87
:1008000051608AE045491431884208D1434908398A
:10081000496841F0F001414A083A51607DE03F49A2
:100820002831884208D13D490839496841F470614E
:100830003A4A083A516070E038493C31884208D160
:1008400036490839496841F47041344A083A5160E0
:1008500063E032495031884208D13049083949684B
:1008600041F470212D4A083A516056E02B49643119
:10087000884208D129490839496841F47001274A5A
:10088000083A516049E025497831884208D1234926
:100890000839496841F07061204A083A51603CE0EB
:1008A0001F49884206D1011F096841F00F01021F4C
:1008B000116032E01A491431884208D11849091FE1
:1008C000096841F0F001164A121F116025E0144931
:1008D0002831884208D11249091F096841F4706122
:1008E0000F4A121F116018E00D493C31884208D1AF
:1008F0000B49091F096841F47041094A121F116030
:100900000BE007495031884207D10549091F0968A2
:1009100041F47021024A121F116070470800024022
:100920000804024010B50022026847F6F0739A43AB
:100930000C6A8B6823430C6923434C6923438C69FD
:100940002343CC6923434C6A23438C6A23431A43D1
:100950000260CB6843600B6883604B68C36010BD66
:1009600070472DE9F04102460025002600200023B3
:100970000024002791F803C00CF00F0591F803C084
:100980000CF0100CBCF1000F03D091F802C04CEA3F
:10099000050591F800C0BCF1000F31D014680020AB
:1009A0002BE04FF0010C0CFA00F3B1F800C00CEA98
:1009B00003069E4220D183004FF00F0C0CFA03F780
:1009C000BC4305FA03FC4CEA040491F803C0BCF1F3
:1009D000280F06D14FF0010C0CFA00FCC2F814C02D
:1009E0000AE091F803C0BCF1480F05D14FF0010CAB
:1009F0000CFA00FCC2F810C0401C0828D1D31460C7
:100A0000B1F800C0BCF1FF0F34DD546800202EE0C7
:100A100000F1080C4FF0010808FA0CF3B1F800C01F
:100A20000CEA03069E4221D183004FF00F0C0CFA12
:100A300003F7BC4305FA03FC4CEA040491F803C035
:100A4000BCF1280F05D100F1080C08FA0CF8C2F827
:100A5000148091F803C0BCF1480F07D100F1080CD5
:100A60004FF0010808FA0CF8C2F81080401C082862
:100A7000CED35460BDE8F08100BFFEE70146CA173F
:100A800001EB92729210A1EB820292B9642091FB69
:100A9000F0F200FB121050B94FF4C87091FBF0F265
:100AA00000FB121008B9012070470020FCE701206C
:100AB000FAE70020F8E700BFFEE7704770B50021B5
:100AC00000230F22C47804B3154C246804F4E064B6
:100AD000C4F5E064210AC1F10403CA40447804FA71
:100AE00003F184781440214309010E4C0678A15586
:100AF000047804F01F050124AC4005786D11AD00A9
:100B000005F1E025C5F8004109E0047804F01F056F
:100B10000124AC40044D0678761145F8264070BD9E
:100B20000CED00E000E400E080E100E00249014358
:100B3000024A1160704700000000FA050CED00E069
:100B40007047000029B1064A52690243044B5A61BA
:100B500004E0034A52698243014B5A617047000026
:100B60000010024029B1064AD2690243044BDA61FF
:100B700004E0034AD2698243014BDA617047000006
:100B80000010024029B1064A12690243044B1A615F
:100B900004E0034A12698243014B1A617047000066
:100BA0000010024029B1064A92690243044B9A613F
:100BB00004E0034A92698243014B9A617047000046
:100BC0000010024029B1064AD2680243044BDA60A1
:100BD00004E0034AD2688243014BDA6070470000A8
:100BE0000010024030B500210022002400232D4DCA
:100BF0006D6805F00C0121B1042905D0082923D125
:100C000005E0294D056022E0284D05601FE0254DD7
:100C10006D6805F47012234D6D6805F4803402256B
:100C200005EB92421CB9224D554305600BE01D4D6A
:100C30006D6805F400351DB11E4D5543056002E099
:100C40001A4D5543056002E0174D056000BF00BF17
:100C5000144D6D6805F0F0010909174D6B5C0568CE
:100C6000DD4045600F4D6D6805F4E061090A124DE5
:100C70006B5C4568DD4085600A4D6D6805F4605128
:100C8000C90A0D4D6B5C4568DD40C560054D6D685A
:100C900005F44041890B094D6B5CC568B5FBF3F564
:100CA000056130BD0010024000127A00001BB70041
:100CB00000093D00808D5B00000000201000002036
:100CC000024909888143014A118070470428004085
:100CD00070B500260024002500F07AF80646384852
:100CE000B6FBF0F437480088A0423CD035490C8070
:100CF00040F2B27510E02846FFF7C0FE40B1B4F5EF
:100D0000B77F02D3A4F5B77404E0681C85B206E08F
:100D1000A4F26D14681C85B2B4F5B67FEBD800BFA1
:100D200029488580002516E027498888FFF7A6FE18
:100D300030B1012D04D11D2C01D31D3C09E00CE084
:100D40002248405DA04203D82048405D241A00E0BC
:100D500003E0681C85B21C2CE6D200BF681C1A494F
:100D60008871601CC8711648B6FBF0F100FB116475
:100D70004FF46160B4FBF0F0134908704FF4616008
:100D8000B4FBF0F100FB11403C21B0FBF1F00E4947
:100D900048704FF46160B4FBF0F100FB11403C215E
:100DA000B0FBF1F201FB1200074988700B46DA79BB
:100DB0009979988800F028F803490872002070BDDE
:100DC000805101001400002040000020142400087D
:100DD000002103480188001F008841EA0040704755
:100DE0001C28004001460020064A12880A40D0B262
:100DF000044A121F12880A4012B108B1012000E013
:100E00000020704704280040F0B503460C46154604
:100E1000642093FBF0F0C6B2642093FBF0F700FB74
:100E20001730C1B2132E02DD01F16400C1B20846D1
:100E3000CF1701EB977701EBA707BAB2072092FB18
:100E4000F0F700FB172082B25719601EDFF82CC0A4
:100E50001CF80000384482B2CF1701EB9777BF101F
:100E6000A1EB87071FB9032C01DA501E82B20720BD
:100E700092FBF0F700FB1720C0B2F0BD0824000879
:100E800010B50120FFF7AEFF08B1FFF721FF0220E8
:100E9000FFF7A8FF10B10220FFF712FF0520FFF7B0
:100EA0000FFF00F001F810BD00BF0348008800F0FC
:100EB00020000028F9D0704704280040704710B582
:100EC00000F002F810BD00000CB500200190009069
:100ED0003348006840F480303149086000BF304832
:100EE000006800F4003000900198401C01900098C8
:100EF00018B90198B0F5A06FF1D12948006800F445
:100F0000003010B10120009001E000200090009816
:100F1000012843D12348006840F0100021490860AF
:100F20000846006820F0030008600846006840F0AA
:100F3000020008601A48406819494860084640683D
:100F400048600846406840F4806048600846406851
:100F500020F47C1048600846406840F4E81048607F
:100F60000846006840F08070086000BF0C480068C8
:100F700000F000700028F9D00948406820F0030014
:100F8000074948600846406840F00200486000BFDA
:100F90000348406800F00C000828F9D10CBD00009F
:100FA00000100240002002407047000010B51348B6
:100FB000006840F001001149086008464068104987
:100FC00008400E494860084600680E4908400B4931
:100FD00008600846006820F48020086008464068E1
:100FE00020F4FE0048604FF41F008860FFF767FFA1
:100FF0004FF000600449086010BD0000001002407E
:101000000000FFF8FFFFF6FE08ED00E010B5002439
:101010000121880700F07EF9012818D101218007FD
:1010200000F075F80A48006820B109480068401EC1
:1010300007490860002408E0064850F82400401CD6
:10104000044941F82400601C84B20A2CF4DB10BD72
:10105000180000204C00002010B50121084800F0C5
:1010600059F960B10748008840F4004005490880FC
:101070000121034800F04BF8002000F031F810BDCA
:10108000000800401C0000207FB505460C460121E9
:101090000420FFF767FDADF80450ADF800400020D4
:1010A000ADF80600ADF8020069460C4800F04EF9B4
:1010B00001221146094800F03EF91E208DF80C006F
:1010C00001208DF80D0002208DF80E0001208DF812
:1010D0000F0003A8FFF7F2FC7FBD000000080040EE
:1010E00010B5044644B10021064800F02DF9012155
:1010F000044800F00FF803E00021024800F00AF86D
:1011000010BD000000080040CA4302827047CA4375
:101110000282704721B1028842F00102028004E09D
:1011200002884FF6FE731A400280704710B50446DD
:101130006848844208D10121C014FFF743FD002113
:10114000E014FFF73FFDC4E0B4F1804F08D1012166
:101150000846FFF717FD00210120FFF713FDB8E057
:101160005D48844208D101210220FFF70BFD0021D8
:101170000220FFF707FDACE05848844208D1012166
:101180000420FFF7FFFC00210420FFF7FBFCA0E098
:101190005348844208D101210820FFF7F3FC0021C5
:1011A0000820FFF7EFFC94E04E48844208D101216B
:1011B0001020FFF7E7FC00211020FFF7E3FC88E098
:1011C0004948844208D101212020FFF7DBFC00219F
:1011D0002020FFF7D7FC7CE04448844208D101215D
:1011E0004014FFF7EFFC00216014FFF7EBFC70E008
:1011F0003F48844209D10121C804FFF7E3FC0021E4
:101200004FF40020FFF7DEFC63E03A48844209D146
:1012100001210805FFF7D6FC00214FF48010FFF7ED
:10122000D1FC56E03448844209D101214805FFF73A
:10123000C9FC00214FF40010FFF7C4FC49E02F481F
:10124000844208D101214020FFF79CFC002140206E
:10125000FFF798FC3DE02A48844208D10121802014
:10126000FFF790FC00218020FFF78CFC31E025483F
:10127000844208D101218015FFF784FC0021A015CC
:10128000FFF780FC25E02048844209D101210804B1
:10129000FFF798FC00214FF48030FFF793FC18E033
:1012A0001A48844209D101214804FFF78BFC002130
:1012B0004FF40030FFF786FC0BE01548844208D15C
:1012C00001218804FFF77EFC00214FF48020FFF706
:1012D00079FC10BD002C01400004004000080040D3
:1012E000000C004000100040001400400034014099
:1012F000004C0140005001400054014000180040E3
:10130000001C00400020004000400140004401401B
:101310000048014030B50246002000230024158A11
:1013200005EA0103958905EA010413B10CB1012016
:1013300000E0002030BD1AB183890B43838102E0B5
:1013400083898B43838170478184704700220288A0
:101350001D4B98420ED01D4B98420BD0B0F1804FE0
:1013600008D01B4B984205D01A4B984202D01A4B1A
:10137000984204D14FF68F731A404B881A43174B8B
:10138000984207D0164B984204D04FF6FF431A40BC
:10139000CB881A4302808B8883850B8803850A4B90
:1013A00098420BD0094B984208D00E4B984205D07A
:1013B0000D4B984202D00D4B984201D10B7A038617
:1013C0000123838270470000002C0140003401405B
:1013D0000004004000080040000C004000100040E5
:1013E000001400400040014000440140004801401A
:1013F00070B58CB006460C46154601210846FFF72D
:10140000A1FB3046FFF7E8F9019402951020039004
:1014100000200490059080200690002007900890FE
:1014200009904FF480500A9000200B9001A930469B
:10143000FFF778FA0CB070BD10B5002440F22551CA
:101440001E4800F0E4F958B340F225511B4800F063
:101450005FF91A4800F020FBC4B20021052000F01B
:1014600041FF17480088B0F5007F0BDA1448018867
:101470000088401C124A108012484454012012492E
:1014800008700DE040F2022110480068FFF75DF897
:101490004FF400710B48FFF758F800200849088006
:1014A00040F22771054800F0B2F928B1002240F25D
:1014B0002771024800F0D5F910BD00000038014046
:1014C0002C0000207A0600203000002020000020A0
:1014D00010B5002440F225512C4800F098F900285E
:1014E00047D040F22551294800F012F9002106208A
:1014F00000F0F8FE26480078D0B9244800F0CCFA75
:10150000C4B224480088B0F5007F08DA2148018879
:101510000088401C1F4A10801F48445429E04FF4A3
:1015200000711D48FFF711F800201A49088020E0DB
:101530001748007802281CD1144800F0ADFAC4B254
:1015400014480088B0F5007F0BDA12480188008843
:10155000401C104A10801048445401200C49087067
:1015600007E04FF400710C48FEF7EFFF0020094937
:10157000088040F22771054800F049F928B100229F
:1015800040F22771014800F06CF910BD00440040A2
:10159000310000202E0000207A0800201CB5002415
:1015A00000200090019040F225511C4800F02FF9D6
:1015B000F8B140F22551194800F0AAF8184800780F
:1015C000B8B9164800F068FAC4B216480068008836
:1015D000B0F5007F0EDA13480068018811480068F2
:1015E0000088401C0F4A126810800E480068801C5A
:1015F000445405E040F202210A480068FEF7A5FFC6
:1016000040F22771054800F002F928B1002240F2AB
:101610002771024800F025F91CBD00000048004079
:10162000320000202800002010B586B004460121B9
:101630000820FFF7B7FA01218804FFF793FA2F4833
:1016400000F08AF84FF48060ADF8100003208DF8A8
:10165000120018208DF8130004A92948FFF781F91A
:101660004FF40060ADF8100004208DF8130004A9B9
:101670002348FFF776F900940020ADF80400ADF898
:101680000600ADF80800ADF80C000C20ADF80A001B
:1016900069461A4800F00AF901228021174800F033
:1016A00052F8184A1549091D1748FFF7A1FE0121F4
:1016B000124800F03CF8012240F225510F4800F09A
:1016C000D0F827208DF8140002208DF81500032093
:1016D0008DF8160001208DF8170005A8FFF7EEF928
:1016E00041F61F4140F2E730FFF7CEFC00200749EA
:1016F0000880FFF7F5FC06B010BD00000048004070
:10170000000C014078000020800002401C000020F6
:1017100010B50022002340F66A14A14200D100BF98
:101720000A1201249440A3B2DC43048010BD21B10D
:10173000828942F40052828104E082894DF6FF736F
:101740001A40828170471AB1838A0B43838202E078
:10175000838A8B438382704710B5044620488442B5
:1017600009D101218803FFF72DFA00214FF48040B1
:10177000FFF728FA32E01B48844209D101214804CE
:10178000FFF700FA00214FF40030FFF7FBF925E0E6
:101790001548844209D101218804FFF7F3F900219B
:1017A0004FF48020FFF7EEF918E01048844209D189
:1017B0000121C804FFF7E6F900214FF40020FFF7EC
:1017C000E1F90BE00A48844208D101210805FFF73E
:1017D000D9F900214FF48010FFF7D4F910BD0000B3
:1017E000003801400044004000480040004C0040E8
:1017F0000050004002460020B1F5007F00D100BF3C
:1018000013880B400BB1012000E00020704770B539
:101810000246002400230025002040F66A16B1424B
:1018200000D100BFC1F3421501F01F03012606FAE3
:1018300003F3012D02D19689334006E0022D02D137
:10184000168A334001E0968A33400C12012606FACC
:1018500004F41688344013B10CB1012000E00020DC
:1018600070BDF0B50346002400260025002040F698
:101870006A17B94200D100BF1846C1F3421401F003
:101880001F06012707FA06F5012C01D10C3004E0F0
:10189000022C01D1103000E014301AB107682F4338
:1018A000076002E00768AF430760F0BD2DE9F0472D
:1018B00086B005460E460024A24600BFA14600277A
:1018C000B08900B100BF2F462C8A4CF6FF7004404F
:1018D000F08804432C82AC894EF6F3100440B088A3
:1018E00031890843718908430443AC81AC8A4FF6BF
:1018F000FF400440B0890443AC8201A8FFF772F9AD
:101900001F48874202D1DDF810A001E0DDF80CA0ED
:10191000A88900F4004040B10AEBCA0000EB0A10AD
:1019200031684900B0FBF1F807E00AEBCA0000EBB0
:101930000A1031688900B0FBF1F86420B8FBF0F0C0
:1019400004012009642101FB1089A88900F40040EA
:1019500040B1322000EBC900B0FBF1F000F007000D
:10196000044308E0322000EB09106421B0FBF1F0E1
:1019700000F00F0004432C8106B0BDE8F0870000A2
:10198000003801400FB470B58AB0064610A8019027
:1019900040213046FFF72EFF73E00F9800785C2857
:1019A0001CD10F98401C0F9000786E2809D0722827
:1019B0000FD10D21304600F074F80F98401C0F90A5
:1019C0000BE00A21304600F06CF80F98401C0F9095
:1019D00003E00F98401C0F9000BF4BE00F98007879
:1019E000252840D10F98401C0F900078642818D00B
:1019F000732833D1019810C801900BE0217830464C
:101A000000F04FF800BF40213046FFF7F3FE0028FA
:101A1000F9D0641C20780028F0D10F98401C0F905A
:101A200020E0019820C801902A461AA102A8FEF7DA
:101A3000F5FB02AC0BE02178304600F032F800BF35
:101A400040213046FFF7D6FE0028F9D0641C2078EC
:101A50000028F0D10F98401C0F9003E00F98401C15
:101A60000F9000BF06E00F9810F8011B0F90304652
:101A700000F017F800BF40213046FFF7BBFE0028FA
:101A8000F9D00F980078002887D10AB070BC5DF8B3
:101A900014FB00002564000001468888C0F308009C
:101AA0007047C1F308028280704700BFFEE73038FC
:101AB0000A2801D2012070470020704710B500F0BD
:101AC00058F800F016F800F077F8012300220821FA
:101AD0004FF4E13000F018FC4FF4E13000F05AFC14
:101AE0004FF41650FFF7A0FD2821C82000F0C8FBD6
:101AF00010BD08B54FF4E060FFF718F81C208DF812
:101B0000000000208DF8010002208DF80200012065
:101B10008DF803006846FEF7D1FF25208DF8000000
:101B200001208DF801008DF802008DF80300684651
:101B3000FEF7C4FF26208DF8000001208DF801007B
:101B400002208DF8020001208DF803006846FEF7A0
:101B5000B5FF27208DF8000001208DF8010003203B
:101B60008DF8020001208DF803006846FEF7A6FFFD
:101B700008BD10B501210846FEF7F4FF0121480415
:101B8000FEF7F0FF01218804FEF7ECFF012104209D
:101B9000FFF708F801210820FFF704F801211020C1
:101BA000FFF700F801212020FEF7FCFF0121880348
:101BB000FEF7F8FF10BD000008B54FF40070ADF857
:101BC000000018208DF8030003208DF802006946FC
:101BD0004A48FEF7C6FE4FF48060ADF800000420CE
:101BE0008DF8030003208DF8020069464348FEF794
:101BF000B8FE0420ADF8000018208DF80300032083
:101C00008DF8020069463D48FEF7ABFE0820ADF8AE
:101C1000000004208DF8030003208DF802006946BF
:101C20003648FEF79EFE4FF48060ADF800001820A5
:101C30008DF8030003208DF8020069463048FEF756
:101C400090FE4FF40060ADF8000004208DF8030012
:101C500003208DF8020069462948FEF782FE012024
:101C6000ADF8000003208DF8020010208DF803006D
:101C700069462348FEF775FE0220ADF800000320F8
:101C80008DF8020014208DF8030069461C48FEF709
:101C900068FE4020ADF8000003208DF802001020FF
:101CA0008DF8030069461748FEF75BFE3020ADF85B
:101CB000000003208DF8020010208DF80300694613
:101CC0000E48FEF74EFE0320ADF800008DF802002E
:101CD00010208DF8030069460A48FEF742FE0820EE
:101CE000ADF8000003208DF8020010208DF80300ED
:101CF00069460448FEF735FE08BD000000080140B3
:101D0000000C01400010014070B50446002521463A
:101D10000248FEF7C3FB0546284670BD7A0800203E
:101D200030B5ADF5017D4FF4007101A8FEF72FFC31
:101D30000025CD4800780B2877D2DFE800F00612A6
:101D4000326384A4D7FBF9F8F70000F005FA4FF4EA
:101D50007A7000F0BDFAC4480078401CC24908708F
:101D60007EE142F210734FF44872C0A1C0A000F0AF
:101D7000F5F9044644B1BC480078401CBA490870E3
:101D80000020BD4908700BE0BB480078401CBA49F0
:101D9000087008460078052802DD0020B249087066
:101DA0005EE141F288334FF44872B0A1B3A000F075
:101DB000D5F90446CCB1B4A12046FEF76FFB40B183
:101DC000A9480078401CA84908700020AA4908705A
:101DD00017E0B2A12046FEF761FB90B10420A249B2
:101DE00008700020A44908700BE0A3480078401C4C
:101DF000A149087008460078052802DD00209A49AC
:101E000008702DE141F288334FF4487297A1AAA0DF
:101E100000F0A4F904464CB193480078401C924964
:101E200008700020944908700CE018E1924800788E
:101E3000401C9149087008460078052802DD002002
:101E4000894908700CE141F288334FF4487293A13C
:101E50008AA000F083F9044644B183480078401C0E
:101E6000814908700020844908700BE0824800789E
:101E7000401C8149087008460078052802DD0020D2
:101E800079490870ECE04FF47A73322277A18DA083
:101E900000F064F90446E4B121468E48FFF772FD74
:101EA0008DA12046FEF7FAFA0546102205F10C0135
:101EB0008C48FEF705FB8B4A8BA18648FFF762FD35
:101EC00069480078401C6849087000206A49087019
:101ED0000BE069480078401C6749087008460078A4
:101EE000052802DD002060490870B9E041F288331E
:101EF0004FF4487269A161A000F030F9044644B182
:101F000059480078401C5849087000205A49087008
:101F10000BE059480078401C574908700846007883
:101F2000052802DD00205049087099E096E05BE04A
:101F30002DE0FFE770A06B4B71A276A1009001A885
:101F4000FEF76CF901AA68A16248FFF71BFD4FF488
:101F5000FA634FF4487245A101A800F0FFF8044667
:101F600044B141480078401C3F4908700020424974
:101F700008700BE040480078401C3F490870084654
:101F80000078052802DD00203749087068E05AA073
:101F9000544B62A25FA1009001A8FEF73FF901AA8D
:101FA00063A14C48FFF7EEFC4FF4FA634FF448721C
:101FB0002EA101A800F0D2F8044644B12A480078C6
:101FC000401C2949087000202B4908700BE02A4862
:101FD0000078401C2849087008460078052802DD72
:101FE0000020214908703BE002205449087008464F
:101FF000027853A13748FFF7C5FC4FF47A733222B9
:102000001AA130A000F0AAF80446D4B12146314804
:10201000FFF7B8FC30A12046FEF740FA0546102233
:1020200005F10C012F48FEF74BFA2E4A2EA1294844
:10203000FFF7A8FCFF200C49087000200E4908702B
:102040000BE00D480078401C0B49087008460078EA
:10205000052802DD00200449087001E000E000BF0F
:1020600000BF0DF5017D30BD370000204F4B000053
:1020700041540D0A000000003600002041542B534B
:1020800054415455530D0A002B5354415455533A5F
:10209000204D515454205245414459002B53544132
:1020A0005455533A204D51545420434F4E4E4543BE
:1020B00054204F4B0000000041542B5354415254C4
:1020C0000D0A000041542B434C49454E5449443FAE
:1020D0000D0A0000003801402B434C49454E54493D
:1020E000443A20007A0C00206C6F636B5F69643D9A
:1020F00025730D0A000000002C320D0A00000000BC
:1021000041542B5355425343524942453D62656CFD
:102110006C2F0000257325732573000041542B5349
:1021200055425343524942453D6C6F636B2F00004B
:102130006C6F636B3D25730D0A00000031000020B9
:102140007573617274325F72785F737461747573E2
:10215000203D2025640D0A00704700002DE9F04164
:10216000ADF5007D04460D4616461F464FF00108AA
:102170004FF400716846FEF70AFA0021092000F0CA
:10218000B1F83EE04FF400712048FEF7DEF9002080
:102190001F4908801F49087021461F48FFF7F2FBBE
:1021A000304600F095F819491C48FFF7EBFB012079
:1021B000184908702846FFF7A7FDB8B14FF000088E
:1021C0000020144908704FF4007210496846FEF769
:1021D00077F94FF400710D48FEF7B7F900200C496C
:1021E000088068460DF5007DBDE8F081394609207C
:1021F00000F078F828B94FF0010800200549087070
:10220000F0E7B8F1010FBDD000BFEBE77A0800207E
:102210002E00002031000020004400400038014022
:1022200000BF00BFFFF74AFC0BA10F48FFF7AAFB56
:102230000EA10D48FFF7A6FB0DE006E0FFF770FDCD
:102240000E480078FF2800D100E0F7E700BF00F05B
:1022500081F800F0BFF8F0E775617274312069739E
:10226000206F6B0D0A0000000038014077616E6737
:102270007A686F6E6779610D0A00000037000020F0
:10228000FEB504460D464FF47A76F006FEF74EFF93
:102290000020ADF80200ADF80600ADF80440ADF83E
:1022A00000506946F006FFF751F801218807FEF754
:1022B0002BFF0021F006FFF747F801221146900797
:1022C000FFF739F801218807FEF724FFFEBD000063
:1022D0000349086000BF024909680029FBD1704723
:1022E0001800002010B502460023064850F82200CE
:1022F000884204D30020034C44F8220000E001236C
:10230000D8B210BD4C0000202DE9FF4107460C4615
:1023100015461E460097ADF80440ADF80660ADF8CE
:1023200008500020ADF80C000C20ADF80A006946FA
:102330000748FFF7BBFA012240F225510448FFF796
:1023400090FA01210248FFF7F2F9BDE8FF81000091
:102350000038014010B528210520FFF7C3FF78B9E8
:1023600008490948FFF70EFB06490848FFF70AFB32
:102370004FF400710348FEF7E8F800200449088094
:1023800010BD00007A0600200044004000380140E3
:102390002C0000201FB5044600940020ADF8040076
:1023A000ADF80600ADF80800ADF80C000C20ADF853
:1023B0000A0069460648FFF779FA012240F22551E2
:1023C0000348FFF74EFA01210148FFF7B0F91FBD9E
:1023D0000044004010B528210620FFF783FF58B9BC
:1023E00006490748FFF7CEFA4FF400710348FEF79D
:1023F000ACF800200349088010BD00007A080020D6
:10240000003801402E0000200003030601040602EC
:10241000050003051F1C1F1E1F1E1F1F1E1F1E1F42
:10242000040000080000000000000002000100009D
:1024300010000000542400080000002040000000AC
:102440006C0100089424000840000020B012000035
:1024500088010008000000000102030401020304D7
:10246000060708090204060800000000000000003A
:102470000000000078040020780400207804002088
:10248000000000000000000000000000000000004C
:042490000001000047
:0400000508000131BD
:00000001FF
