:020000040800F2
:10000000A81D0020E101000845180008C30E0008E3
:1000100041180008310B00086728000800000000A4
:10002000000000000000000000000000791C000833
:10003000BD0C000800000000E5180008651D000860
:10004000FB010008FB010008FB0100083D1C000843
:10005000FB010008FB010008FB010008FB01000890
:10006000FB010008FB010008FB010008FB01000880
:10007000FB010008FB010008FB010008FB01000870
:10008000FB010008FB010008FB010008FB01000860
:10009000FB010008FB010008FB010008FB01000850
:1000A000FB010008FB010008FB010008FB01000840
:1000B000C91D0008FB010008151E0008FB0100080F
:1000C000FB010008FB010008FB010008FB01000820
:1000D000FB010008F52100088D22000859230008C3
:1000E000FB010008FB010008FB010008FB01000800
:1000F000FB010008FB010008FB010008FB010008F0
:10010000FB010008FB010008FB010008FB010008DF
:10011000FB010008FB010008FB010008FB010008CF
:10012000FB010008FB010008FB010008FB010008BF
:1001300000F002F800F045F80AA090E8000C8244B4
:100140008344AAF10107DA4501D100F03AF8AFF291
:10015000090EBAE80F0013F0010F18BFFB1A43F0A5
:10016000010318477438000094380000103A24BF87
:1001700078C878C1FAD8520724BF30C830C144BF0C
:1001800004680C607047000000230024002500264E
:10019000103A28BF78C1FBD8520728BF30C148BFEA
:1001A0000B607047642900F07B80632900F00B83AB
:1001B000732900F01083002070471FB51FBD10B5D4
:1001C00010BD00F044FB1146FFF7F7FF02F028FFD7
:1001D00000F062FB03B4FFF7F2FF03BC00F066FB24
:1001E0000948804709480047FEE7FEE7FEE7FEE7CB
:1001F000FEE7FEE7FEE7FEE7FEE7FEE70448054907
:10020000054A064B70470000691D000831010008CF
:10021000A8170020A81D0020A8190020A819002058
:100220000FB41CB5084B06AA7B446946009005989C
:1002300000F0A7FA04460020694600F0B5FA20460F
:100240001CBC5DF814FB00007D05000070B50C4679
:100250000546012A05D02878800600D5EA690023E2
:1002600002E0012305E05B1C934202D2E05C00281F
:10027000F9D1A869E618C01AA861286A184428624A
:100280002846AFF3008004E0D5E9012114F8010B02
:100290009047B442F8D32846AFF3008070BD000009
:1002A0002DE9F0410646002410687529314616A54F
:1002B00010D0AFF30080002802DA404213A507E017
:1002C00031688A0701D512A502E0490704D511A5B6
:1002D000012401E0AFF3008000210A2206F1240787
:1002E00009E0B0FBF2FCB0FBF2F302FB1C00303083
:1002F00078541846491C0028F3D123462A46304634
:10030000BDE8F04100F0DEB9000000002D00000063
:100310002B000000200000002DE9F05F8946044614
:100320004FF0000ADFF874B1FB44C0F820A020466B
:10033000E1688847002874D0252806D0D4E9012137
:100340009047206A401C2062F1E700265F46204665
:10035000E16888472028054607DB312D05D278194A
:1003600010F8200C08B10643F1E7B00701D526F0DC
:100370000406C4F81CA00027C4F818A02A2D09D030
:10038000284602F072FA38B304EB8708303DC8F80B
:10039000185019E059F8041B204604EB87029161BC
:1003A000E1688847012F054618D1E069002820DA66
:1003B00026F020061DE0D8F8180000EB800005EBC1
:1003C00040003038C8F818002046E16888470546E4
:1003D00002F04BFA0028EED1012F0AD02E2D08D1C1
:1003E0002046E16888477F1C0546022F46F020061C
:1003F000C4DBA069002803DA404246F00106A06190
:10040000F00701D026F010066C2D0BD0682D09D016
:100410004C2D39D06A2D35D0742D35D07A2D33D06E
:1004200016E038E0E1682F4620468847B842054686
:1004300009D16C2F26D04FF48060E1680643204636
:100440008847054604E06C2F1AD04FF480700643AD
:100450000DB3A5F14100192802D8203546F40066F5
:100460004A462946204626604E46FFF79BFE80B14D
:1004700001280BD0F61D26F0070000F1080956E709
:100480004020E4E78020D8E70020D6E706F1040901
:100490004DE7284652E7206ABDE8F09F98360000F5
:1004A00030B505460B462A4613F8014B12F8010BEE
:1004B00008B1A042F8D01CB1002802D06D1CF1E7B1
:1004C000284630BD40EA0103024630B59B0710D1F3
:1004D0004FF0013400E008C208C91D1B9D4315EA16
:1004E000C41FF8D013F0FF0102F8011B0DD01B0A46
:1004F000F8E711F8013B002B02F8013B05D011F899
:10050000013B002B02F8013BF3D130BD40EA01036F
:1005100070B59B072ED14FF00136042A2AD308C8A4
:1005200010C99D1B9D43121F15EAC61517D0D8B2DE
:10053000E1B2401A50EA056110D198B2A1B2401A56
:1005400050EA05410AD123F07F4024F07F41401A50
:1005500050EA052102D1180EA0EB146070BDA34231
:10056000DBD018BA21BA884201D9012070BD4FF002
:10057000FF3070BD0AB9002070BD10F8013B11F8C2
:10058000014B63B1A3420AD1521E08D010F8013BBF
:1005900011F8014B1BB1A34201D1521EEDD1181B22
:1005A00070BD032A40F2308010F0030C00F015807B
:1005B00011F8013BBCF1020F624498BF11F801CB66
:1005C00000F8013B38BF11F8013BA2F1040298BFCB
:1005D00000F801CB38BF00F8013B11F0030300F035
:1005E000FE80083AC0F0088051F8043B083A51F800
:1005F00004CBA0E80810F5E7121D5CBF51F8043BDE
:1006000040F8043BAFF30080D20724BF11F8013B50
:1006100011F801CB48BF11F8012B24BF00F8013BB2
:1006200000F801CB48BF00F8012B70474FF00002E3
:100630000429C0F0128010F0030C00F01B80CCF1F4
:10064000040CBCF1020F18BF00F8012BA8BF20F862
:10065000022BA1EB0C0100F00DB85FEAC17C24BFB6
:1006600000F8012B00F8012B48BF00F8012B704760
:100670004FF0000200B5134694469646203922BF3B
:10068000A0E80C50A0E80C50B1F12001BFF4F7AF86
:10069000090728BFA0E80C5048BF0CC05DF804EB68
:1006A000890028BF40F8042B08BF704748BF20F8D6
:1006B000022B11F0804F18BF00F8012B70477047D4
:1006C000704770472DE9F0470D469946924604461B
:1006D00000F124080168880604D5E06921F01001C2
:1006E000216000E00120A84201DD471B00E0002757
:1006F000A1697A1902EB0900081AA0612078C006E6
:1007000002D42046AFF30080002608E0D4E901219E
:100710001AF806009047206A401C761C20624E455D
:10072000F4DB2078C0060AD52046AFF3008006E04F
:10073000D4E9012130209047206A401C2062381EF5
:10074000A7F10107F4DC07E0D4E9012118F805005E
:100750009047206A401C2062281EA5F10105F3DCA9
:100760002046AFF300802078000602D50220BDE8C5
:10077000F0870120FBE7000001694A1C026108784C
:10078000704700B58FB0CDE90131002105910549D1
:100790007944CDE9031011466846FFF7BDFD0FB05F
:1007A00000BD0000E5FFFFFF0A6802F8010B0A60C8
:1007B000704710B5436913B1AFF3008001E0FFF754
:1007C00045FD012010BD127800F124010A700022BD
:1007D0004A700122EDE711684FF0FF32E9E710B5EA
:1007E000203AC0F00B80B1E81850203AA0E8185029
:1007F000B1E81850A0E81850BFF4F5AF5FEA027CEA
:1008000024BFB1E81850A0E8185044BF18C918C058
:10081000BDE810405FEA827C24BF51F8043B40F8F9
:10082000043B08BF7047D20728BF31F8023B48BFDE
:1008300011F8012B28BF20F8023B48BF00F8012B1C
:100840007047000000487047441700207047754605
:10085000FFF7F8FFAE4605006946534620F0070053
:10086000854618B020B5FFF7C9FCBDE820404FF021
:1008700000064FF000074FF000084FF0000B21F08A
:100880000701AC46ACE8C009ACE8C009ACE8C00957
:10089000ACE8C0098D46704710B50446AFF3008040
:1008A0002046BDE81040FFF795BC00000149182024
:1008B000ABBEFEE72600020021B1826842F00102D1
:1008C000826003E0826822F00102826070470000CB
:1008D00010B504461248844208D10121401501F0A8
:1008E0004FF80021601501F04BF817E00D488442E5
:1008F00008D10121001501F043F80021201501F075
:100900003FF80BE00848844208D10121C80301F0F8
:1009100037F800214FF4004001F032F810BD00001C
:100920000024014000280140003C01400146002015
:100930008A6802F004020AB1012000E0002070473A
:100940000146C86C80B270470246002013680B4015
:100950000BB1012000E000207047014600208A68AA
:1009600002F008020AB1012000E0002070470000F8
:1009700030B502460020002350680F4C20400D790E
:100980000C6844EA05242043506090680B4C2040DA
:10099000D1E902542C434D7944EA45042043906048
:1009A000D06A20F470000C7C641EE4B2234340EA59
:1009B0000350D06230BD0000FFFEF0FFFDF7F1FFF5
:1009C000F0B504460D4600200021092D11DDE06838
:1009D000A5F10A0606EB4607072606FA07F1884343
:1009E000A5F10A0606EB460603FA06F10843E060A5
:1009F0000CE0206905EB4507072606FA07F1884356
:100A000005EB450603FA06F108432061072A0FDAD1
:100A1000606B561E06EB86071F2606FA07F1884311
:100A2000561E06EB860605FA06F10843606322E0CF
:100A30000D2A0FDA206BD61F06EB86071F2606FA53
:100A400007F18843D61F06EB860605FA06F1084330
:100A5000206310E0E06AA2F10D0606EB86071F2670
:100A600006FA07F18843A2F10D0606EB860605FAA1
:100A700006F10843E062F0BD816841F00801816041
:100A8000704721B1826842F4A002826003E082686C
:100A900022F4A00282607047816841F00401816005
:100AA0007047000000B587B001214FF4017000F0DD
:100AB00057FF4FF4004000F017FF0120ADF804008D
:100AC00000208DF8070001A9174800F030F91748F9
:100AD000FFF7FEFE002002908DF80C008DF80D004F
:100AE0004FF4602004900020059001208DF818003C
:100AF00002A90E48FFF73CFF01210C48FFF7DCFE7E
:100B00000A48FFF7B9FF00BF0848FFF726FF002893
:100B1000FAD10648FFF7C0FF00BF0448FFF706FF01
:100B20000028FAD107B000BD0008014000240140B0
:100B300000BFFEE701684FF6FE7211400160002120
:100B4000016041608160C1604B49884208D14A49D7
:100B50000839496841F00F01474A083A51608AE074
:100B600045491431884208D143490839496841F060
:100B7000F001414A083A51607DE03F4928318842FE
:100B800008D13D490839496841F470613A4A083A48
:100B9000516070E038493C31884208D13649083903
:100BA000496841F47041344A083A516063E032497F
:100BB0005031884208D130490839496841F47021E0
:100BC0002D4A083A516056E02B496431884208D1D9
:100BD00029490839496841F47001274A083A5160A7
:100BE00049E025497831884208D1234908394968C4
:100BF00041F07061204A083A51603CE01F49884248
:100C000006D1011F096841F00F01021F116032E097
:100C10001A491431884208D11849091F096841F05E
:100C2000F001164A121F116025E01449283188424C
:100C300008D11249091F096841F470610F4A121F57
:100C4000116018E00D493C31884208D10B49091F59
:100C5000096841F47041094A121F11600BE007490D
:100C60005031884207D10549091F096841F47021B4
:100C7000024A121F11607047080002400804024037
:100C800010B50022026847F6F0739A430C6A8B682D
:100C900023430C6923434C6923438C692343CC6968
:100CA00023434C6A23438C6A23431A430260CB6874
:100CB00043600B6883604B68C36010BD704770B5BC
:100CC00003460024002010E00E5C451C4D5D46EA02
:100CD0000526851C4D5D46EA0546C51C4D5D46EA68
:100CE000056543F82450641C001D9042ECD370BD90
:100CF00070B5034614460022002015E011F822507A
:100D00001D5431F82250C5F30726451C5E5551F895
:100D10002250C5F30746851C5E5551F822502D0E12
:100D2000C61C9D55521C001DA042E7D370BD2DE985
:100D3000F041024600250026002000230024002761
:100D400091F803C00CF00F0591F803C00CF0100CE3
:100D5000BCF1000F03D091F802C04CEA050591F8F0
:100D600000C0BCF1000F31D0146800202BE04FF020
:100D7000010C0CFA00F3B1F800C00CEA03069E4225
:100D800020D183004FF00F0C0CFA03F7BC4305FA97
:100D900003FC4CEA040491F803C0BCF1280F06D10F
:100DA0004FF0010C0CFA00FCC2F814C00AE091F8F4
:100DB00003C0BCF1480F05D14FF0010C0CFA00FC48
:100DC000C2F810C0401C0828D1D31460B1F800C08C
:100DD000BCF1FF0F34DD546800202EE000F1080C58
:100DE0004FF0010808FA0CF3B1F800C00CEA030652
:100DF0009E4221D183004FF00F0C0CFA03F7BC4345
:100E000005FA03FC4CEA040491F803C0BCF1280F76
:100E100005D100F1080C08FA0CF8C2F8148091F81A
:100E200003C0BCF1480F07D100F1080C4FF00108D6
:100E300008FA0CF8C2F81080401C0828CED3546081
:100E4000BDE8F0810246002093680B400BB1012001
:100E500000E0002070474161704701617047000069
:100E600010B504460723012221460948FFF7A8FDD3
:100E700001210748FFF705FE00BF02210448FFF7E4
:100E800063FD0028F9D00248FFF75AFD10BD0000AD
:100E9000002401402DE9F04107460C4600250026BC
:100EA00008E03846FFF7DCFF0544022002F0DAFCD8
:100EB000701CC6B2A642F4DBB5FBF4F080B2BDE80C
:100EC000F08100BFFEE70146CA1701EB9272921053
:100ED000A1EB820292B9642091FBF0F200FB1210A8
:100EE00050B94FF4C87091FBF0F200FB121008B932
:100EF000012070470020FCE70120FAE70020F8E716
:100F00002DE9FC4106460C46082204F11001684612
:100F1000FFF7EEFE208AC0F3C505382D02D2C5F1D9
:100F2000380001E0C5F1780007463A4609492046F5
:100F300000F014FC08226946204600F00FFC102245
:100F400021463046FFF7D4FE58212046FFF790FB9C
:100F5000BDE8FC81A2000020002101610022426165
:100F600005490160054941600349C943816003495E
:100F7000C943C160704700000123456789ABCDEFCD
:100F80002DE9F04391B080468946D8F80040D8F862
:100F90000450D8F80860D8F80C704022494601A8DF
:100FA000FFF78DFE05EA060027EA050108430199CF
:100FB0000844FE4908440444E00140EA54642C44D7
:100FC00004EA050026EA0401084302990844F849A6
:100FD00008440744380340EA1757274407EA040047
:100FE00025EA0701084303990844F24908440644E6
:100FF000700440EAD6363E4406EA070024EA0601B9
:10100000084304990844EC4908440544A80540EA0B
:101010009525354405EA060027EA050108430599A8
:101020000844E64908440444E00140EA54642C447E
:1010300004EA050026EA0401084306990844E04949
:1010400008440744380340EA1757274407EA0400D6
:1010500025EA0701084307990844DA490844064489
:10106000700440EAD6363E4406EA070024EA060148
:10107000084308990844D44908440544A80540EAAF
:101080009525354405EA060027EA05010843099934
:101090000844CE4908440444E00140EA54642C4426
:1010A00004EA050026EA040108430A990844C849ED
:1010B00008440744380340EA1757274407EA040066
:1010C00025EA070108430B990844A0F524404F384E
:1010D0000644700440EAD6363E4406EA070024EA95
:1010E000060108430C990844BA4908440544A80578
:1010F00040EA9525354405EA060027EA050108433C
:101100000D990844B44908440444E00140EA546499
:101110002C4404EA050026EA040108430E99084419
:10112000AE4908440744380340EA1757274407EA02
:10113000040025EA070108430F990844A849084418
:101140000644700440EAD6363E4406EA070024EA24
:101150000601084310990844A24908440544A8051B
:1011600040EA9525354405EA070026EA07010843C9
:10117000029908449C4908440444600140EAD4644C
:101180002C4404EA060025EA0601084307990844AE
:10119000964908440744780240EAD757274407EAAB
:1011A000050024EA050108430C99084490490844C5
:1011B0000644B00340EA96463E4406EA040027EAA5
:1011C00004010843019908448A4908440544280554
:1011D00040EA1535354405EA070026EA07010843C9
:1011E00006990844844908440444600140EAD464F0
:1011F0002C4404EA060025EA060108430B9908443A
:101200007E4908440744780240EAD757274407EA52
:10121000050024EA05010843109908447849084468
:101220000644B00340EA96463E4406EA040027EA34
:1012300004010843059908447249084405442805F7
:1012400040EA1535354405EA070026EA0701084358
:101250000A9908446C4908440444600140EAD46493
:101260002C4404EA060025EA060108430F990844C5
:10127000664908440744780240EAD757274407EAFA
:10128000050024EA0501084304990844604908441C
:101290000644B00340EA96463E4406EA040027EAC4
:1012A00004010843099908445A490844054428059B
:1012B00040EA1535354405EA070026EA07010843E8
:1012C0000E990844544908440444600140EAD46437
:1012D0002C4404EA060025EA060108430399084461
:1012E0004E4908440744780240EAD757274407EAA2
:1012F000050024EA050108430899084448490844C0
:101300000644B00340EA96463E4406EA040027EA53
:10131000040108430D99084442490844054428053E
:1013200040EA1535354485EA0600784006990844B8
:101330003D4908440444200140EA14742C4484EAE2
:101340000500704009990844384908440744F802E8
:1013500040EA5757274487EA040068400C9908443C
:10136000334908440644300440EA16463E4486EABF
:10137000070060400F9908442E4908440544E805D9
:1013800040EA5525354485EA06007840029908442C
:10139000294908440444200140EA14742C4484EA96
:1013A0000500704005990844244949E078A46AD7AB
:1013B00056B7C7E8DB702024EECEBDC1AF0F7CF579
:1013C0002AC68747134630A8019546FDD8988069FC
:1013D000AFF7448BBED75C892211906B937198FD57
:1013E0008E4379A62108B44962251EF640B340C059
:1013F000515A5E26AAC7B6E95D102FD6531444028F
:1014000081E6A1D8C8FBD3E7E6CDE121D60737C3F3
:10141000870DD5F4ED145A4505E9E3A9F8A3EFFCCF
:10142000D9026F678A4C2A8D4239FAFF81F671879B
:1014300022619D6D0C38E5FD44EABEA4A9CFDE4BC8
:1014400008440744F80240EA5757274487EA040053
:10145000684008990844A74908440644300440EA13
:1014600016463E4486EA070060400B990844A249AC
:1014700008440544E80540EA5525354485EA060058
:1014800078400E9908449D4908440444200140EAEC
:1014900014742C4484EA050070400199084498496A
:1014A00008440744F80240EA5757274487EA0400F3
:1014B000684004990844934908440644300440EACB
:1014C00016463E4486EA07006040079908448E4964
:1014D00008440544E80540EA5525354485EA0600F8
:1014E00078400A990844894908440444200140EAA4
:1014F00014742C4484EA050070400D990844844912
:1015000008440744F80240EA5757274487EA040092
:101510006840109908447F4908440644300440EA72
:1015200016463E4486EA07006040039908447A491B
:1015300008440544E80540EA5525354465EA0700B6
:10154000704001990844754908440444A00140EAE8
:1015500094642C4464EA0600684008990844704981
:1015600008440744B80240EA9757274467EA050051
:1015700060400F9908446B4908440644F00340EA70
:1015800056463E4466EA0400784006990844664997
:1015900008440544680540EAD525354465EA070056
:1015A00070400D990844614908440444A00140EA90
:1015B00094642C4464EA06006840049908445C4939
:1015C00008440744B80240EA9757274467EA0500F1
:1015D00060400B990844574908440644F00340EA28
:1015E00056463E4466EA040078400299084452494F
:1015F00008440544680540EAD525354465EA0700F6
:101600007040099908444D4908440444A00140EA47
:1016100094642C4464EA06006840109908444849E0
:1016200008440744B80240EA9757274467EA050090
:10163000604007990844434908440644F00340EADF
:1016400056463E4466EA040078400E9908443E49F6
:1016500008440544680540EAD525354465EA070095
:10166000704005990844394908440444A00140EAFF
:1016700094642C4464EA060068400C990844344998
:1016800008440744B80240EA9757274467EA050030
:101690006040039908442F4908440644F00340EA97
:1016A00056463E4466EA040078400A9908442A49AE
:1016B00008440544680540EAD5253544D8F80000BB
:1016C0002044C8F80000D8F804002844C8F80400F2
:1016D000D8F808003044C8F80800D8F80C0038449E
:1016E000C8F80C00402101A8FEF7C2FF11B0BDE808
:1016F000F0830000604BBBF670BCBFBEC67E9B286B
:10170000FA27A1EA8530EFD4051D880439D0D4D951
:10171000E599DBE6F87CA21F6556ACC4442229F4A7
:1017200097FF2A43A72394AB39A093FCC3595B6569
:1017300092CC0C8F7DF4EFFFD15D84854F7EA86F36
:10174000E0E62CFE144301A3A111084E827E53F75C
:1017500035F23ABDBBD2D72A91D386EB2DE9F047BB
:10176000044688461546208AC0F3C509206900EB67
:10177000C5002061B0EBC50F02D26069401C6061FA
:10178000606900EB55716161C9F14007BD421BD32F
:1017900004F1180101EB09003A464146FEF701FF4A
:1017A00004F118012046FFF7EBFB3E4605E008EB8D
:1017B00006012046FFF7E4FB403606F13F00A84251
:1017C000F5D34FF0000900E00026AA1B08EB060144
:1017D00004F1180303EB0900FEF7E3FEBDE8F08710
:1017E00070B598B005460E4602A8FFF7B5FB324625
:1017F000294602A8FFF7B2FF02A96846FFF780FB5F
:101800000020044613E01DF804000B4901EB2010F2
:1018100000780A4A02F814001DF8040000F00F00D6
:10182000095C6000401C1154601CC0B20446082CC6
:10183000E9DB18B070BD000092000020FC0600201B
:1018400000BFFEE77047000070B5002100230F22A3
:10185000C47804B3154C246804F4E064C4F5E0646F
:10186000210AC1F10403CA40447804FA03F18478E0
:101870001440214309010E4C0678A155047804F068
:101880001F050124AC4005786D11AD0005F1E02580
:10189000C5F8004109E0047804F01F050124AC40BC
:1018A000044D0678761145F8264070BD0CED00E039
:1018B00000E400E080E100E002490143024A1160D7
:1018C000704700000000FA050CED00E0002003491D
:1018D00008600349C1F8840170470000800122427A
:1018E000000022427047000001460020034A506871
:1018F00020F4404008435060704700000010024050
:1019000029B1064A52690243044B5A6104E0034A72
:1019100052698243014B5A61704700000010024037
:1019200029B1064AD2690243044BDA6104E0034A52
:10193000D2698243014BDA61704700000010024017
:1019400029B1064A12690243044B1A6104E0034AB2
:1019500012698243014B1A61704700000010024077
:1019600029B1064A92690243044B9A6104E0034A92
:1019700092698243014B9A61704700000010024057
:1019800029B1064AD2680243044BDA6004E0034AF4
:10199000D2688243014BDA607047000000100240B9
:1019A00030B500210022002400232D4D6D6805F084
:1019B0000C0121B1042905D0082923D105E0294DC6
:1019C000056022E0284D05601FE0254D6D6805F497
:1019D0007012234D6D6805F48034022505EB9242A8
:1019E0001CB9224D554305600BE01D4D6D6805F493
:1019F00000351DB11E4D5543056002E01A4D55439B
:101A0000056002E0174D056000BF00BF144D6D6812
:101A100005F0F0010909174D6B5C0568DD40456074
:101A20000F4D6D6805F4E061090A124D6B5C456865
:101A3000DD4085600A4D6D6805F46051C90A0D4DA1
:101A40006B5C4568DD40C560054D6D6805F440413F
:101A5000890B094D6B5CC568B5FBF3F5056130BDBD
:101A60000010024000127A00001BB70000093D0080
:101A7000808D5B005400002064000020024909882A
:101A80008143014A118070470428004070B5002648
:101A90000024002500F07AF806463848B6FBF0F43A
:101AA00037480088A0423CD035490C8040F2B275DE
:101AB00010E02846FFF707FA40B1B4F5B77F02D32C
:101AC000A4F5B77404E0681C85B206E0A4F26D14B6
:101AD000681C85B2B4F5B67FEBD800BF2948858075
:101AE000002516E027498888FFF7EDF930B1012D70
:101AF00004D11D2C01D31D3C09E00CE02248405DBF
:101B0000A04203D82048405D241A00E003E0681C8E
:101B100085B21C2CE6D200BF681C1A498871601C73
:101B2000C8711648B6FBF0F100FB11644FF4616018
:101B3000B4FBF0F0134908704FF46160B4FBF0F1AE
:101B400000FB11403C21B0FBF1F00E4948704FF40E
:101B50006160B4FBF0F100FB11403C21B0FBF1F2FD
:101B600001FB1200074988700B46DA799979988849
:101B700000F028F803490872002070BD8051010070
:101B800068000020F40A0020B8390008002103484A
:101B90000188001F008841EA004070471C2800406F
:101BA00001460020064A12880A40D0B2044A121F99
:101BB00012880A4012B108B1012000E000207047ED
:101BC00004280040F0B503460C461546642093FBFC
:101BD000F0F0C6B2642093FBF0F700FB1730C1B2FF
:101BE000132E02DD01F16400C1B20846CF1701EBEC
:101BF000977701EBA707BAB2072092FBF0F700FB3B
:101C0000172082B25719601EDFF82CC01CF80000A4
:101C1000384482B2CF1701EB9777BF10A1EB87074B
:101C20001FB9032C01DA501E82B2072092FBF0F795
:101C300000FB1720C0B2F0BDAC39000810B5012080
:101C4000FFF7AEFF08B1FFF721FF0220FFF7A8FF63
:101C500010B10220FFF712FF0520FFF70FFF00F081
:101C600001F810BD00BF0348008800F020000028E4
:101C7000F9D0704704280040704710B500F002F812
:101C800010BD00000CB500200190009033480068A2
:101C900040F480303149086000BF3048006800F4EB
:101CA000003000900198401C0190009818B90198EC
:101CB000B0F5A06FF1D12948006800F4003010B1F0
:101CC0000120009001E0002000900098012843D1FD
:101CD0002348006840F01000214908600846006869
:101CE00020F0030008600846006840F00200086029
:101CF0001A484068194948600846406848600846E4
:101D0000406840F4806048600846406820F47C10D9
:101D100048600846406840F4E8104860084600689B
:101D200040F08070086000BF0C48006800F0007050
:101D30000028F9D00948406820F0030007494860AE
:101D40000846406840F00200486000BF0348406811
:101D500000F00C000828F9D10CBD00000010024072
:101D6000002002407047000010B51348006840F0A2
:101D700001001149086008464068104908400E49B2
:101D80004860084600680E4908400B49086008464C
:101D9000006820F4802008600846406820F4FE00B7
:101DA00048604FF41F008860FFF767FF4FF0006046
:101DB0000449086010BD0000001002400000FFF858
:101DC000FFFFF6FE08ED00E010B5002401218807B2
:101DD00000F07EF9012818D10121800700F075F884
:101DE0000A48006820B109480068401E0749086099
:101DF000002408E0064850F82400401C044941F83B
:101E00002400601C84B20C2CF4DB10BD6C0000209C
:101E1000000B002010B50121084800F059F960B10D
:101E20000748008840F40040054908800121034824
:101E300000F04BF8002000F031F810BD0008004021
:101E4000700000207FB505460C4601210420FFF7F5
:101E500067FDADF80450ADF800400020ADF8060075
:101E6000ADF8020069460C4800F04EF90122114617
:101E7000094800F03EF91E208DF80C0001208DF875
:101E80000D0002208DF80E0001208DF80F0003A830
:101E9000FFF7DAFC7FBD00000008004010B50446E3
:101EA00044B10021064800F02DF90121044800F05A
:101EB0000FF803E00021024800F00AF810BD00000E
:101EC00000080040CA4302827047CA43028270473A
:101ED00021B1028842F00102028004E002884FF63C
:101EE000FE731A400280704710B504466848844269
:101EF00008D10121C014FFF743FD0021E014FFF7D2
:101F00003FFDC4E0B4F1804F08D101210846FFF73E
:101F100017FD00210120FFF713FDB8E05D48844262
:101F200008D101210220FFF70BFD00210220FFF75D
:101F300007FDACE05848844208D101210420FFF796
:101F4000FFFC00210420FFF7FBFCA0E05348844283
:101F500008D101210820FFF7F3FC00210820FFF73A
:101F6000EFFC94E04E48844208D101211020FFF795
:101F7000E7FC00211020FFF7E3FC88E04948844299
:101F800008D101212020FFF7DBFC00212020FFF7F2
:101F9000D7FC7CE04448844208D101214014FFF77B
:101FA000EFFC00216014FFF7EBFC70E03F48844237
:101FB00009D10121C804FFF7E3FC00214FF4002000
:101FC000FFF7DEFC63E03A48844209D101210805AD
:101FD000FFF7D6FC00214FF48010FFF7D1FC56E04C
:101FE0003448844209D101214805FFF7C9FC00218A
:101FF0004FF40010FFF7C4FC49E02F48844208D199
:1020000001214020FFF79CFC00214020FFF798FCB5
:102010003DE02A48844208D101218020FFF790FC4E
:1020200000218020FFF78CFC31E02548844208D154
:1020300001218015FFF784FC0021A015FFF780FC2B
:1020400025E02048844209D101210804FFF798FCCB
:1020500000214FF48030FFF793FC18E01A488442C7
:1020600009D101214804FFF78BFC00214FF4003017
:10207000FFF786FC0BE01548844208D10121880453
:10208000FFF77EFC00214FF48020FFF779FC10BDA4
:10209000002C01400004004000080040000C0040FB
:1020A000001000400014004000340140004C01408A
:1020B000005001400054014000180040001C004046
:1020C0000020004000400140004401400048014021
:1020D00030B50246002000230024158A05EA0103DA
:1020E000958905EA010413B10CB1012000E000203C
:1020F00030BD1AB183890B43838102E083898B430E
:102100008381704781847047002202881D4B98426A
:102110000ED01D4B98420BD0B0F1804F08D01B4B16
:10212000984205D01A4B984202D01A4B984204D1DB
:102130004FF68F731A404B881A43174B984207D0BB
:10214000164B984204D04FF6FF431A40CB881A43EF
:1021500002808B8883850B8803850A4B98420BD0BD
:10216000094B984208D00E4B984205D00D4B98422F
:1021700002D00D4B984201D10B7A03860123838252
:1021800070470000002C0140003401400004004072
:1021900000080040000C0040001000400014004007
:1021A00000400140004401400048014070B58CB03F
:1021B00006460C46154601210846FFF7A1FB3046AE
:1021C000FEF7B8FC019402951020039000200490C3
:1021D00005908020069000200790089009904FF409
:1021E00080500A9000200B9001A93046FEF748FD70
:1021F0000CB070BD10B5002440F225511E4800F00F
:10220000E4F958B340F225511B4800F05FF91A4831
:1022100000F020FBC4B20021072001F02DFB17487D
:102220000088B0F5007F0BDA144801880088401C54
:10223000124A1080124844540120124908700DE0DF
:1022400040F2022110480068FEF7F0F94FF40071E7
:102250000B48FEF7EBF900200849088040F227718F
:10226000054800F0B2F928B1002240F22771024877
:1022700000F0D5F910BD00000038014080000020BA
:1022800032110020840000207400002010B50024CA
:1022900040F225512C4800F098F9002847D040F230
:1022A0002551294800F012F90021082001F0E4FA34
:1022B00026480078D0B9244800F0CCFAC4B22448AB
:1022C0000088B0F5007F08DA214801880088401CAA
:1022D0001F4A10801F48445429E04FF400711D48E4
:1022E000FEF7A4F900201A49088020E0174800787A
:1022F00002281CD1144800F0ADFAC4B2144800887A
:10230000B0F5007F0BDA124801880088401C104AA3
:1023100010801048445401200C49087007E04FF425
:1023200000710C48FEF782F900200949088040F24C
:102330002771054800F049F928B1002240F22771C1
:10234000014800F06CF910BD0044004085000020F9
:1023500082000020321300201CB5002400200090D1
:10236000019040F225511C4800F02FF9F8B140F2DD
:102370002551194800F0AAF818480078B8B916484D
:1023800000F068FAC4B2164800680088B0F5007F13
:102390000EDA134800680188114800680088401C64
:1023A0000F4A126810800E480068801C445405E0F3
:1023B00040F202210A480068FEF738F940F227711E
:1023C000054800F002F928B1002240F227710248C6
:1023D00000F025F91CBD00000048004086000020E8
:1023E0007C00002010B586B0044601210820FFF7CC
:1023F000B7FA01218804FFF793FA2F4800F08AF812
:102400004FF48060ADF8100003208DF81200182002
:102410008DF8130004A92948FEF789FC4FF40060E9
:10242000ADF8100004208DF8130004A92348FEF72E
:102430007EFC00940020ADF80400ADF80600ADF875
:102440000800ADF80C000C20ADF80A0069461A48E7
:1024500000F00AF901228021174800F052F8184ACA
:102460001549091D1748FFF7A1FE0121124800F088
:102470003CF8012240F225510F4800F0D0F8272007
:102480008DF8140002208DF8150003208DF8160039
:1024900001208DF8170005A8FFF7D6F941F61F4176
:1024A00040F2E730FFF7CEFC002007490880FFF735
:1024B000F5FC06B010BD000000480040000C0140D3
:1024C000300B0020800002407000002010B5002278
:1024D000002340F66A14A14200D100BF0A12012471
:1024E0009440A3B2DC43048010BD21B1828942F440
:1024F0000052828104E082894DF6FF731A40828186
:1025000070471AB1838A0B43838202E0838A8B432C
:102510008382704710B504462048844209D10121C6
:102520008803FFF72DFA00214FF48040FFF728FAC7
:1025300032E01B48844209D101214804FFF700FA28
:1025400000214FF40030FFF7FBF925E015488442E5
:1025500009D101218804FFF7F3F900214FF480200D
:10256000FFF7EEF918E01048844209D10121C804B0
:10257000FFF7E6F900214FF40020FFF7E1F90BE047
:102580000A48844208D101210805FFF7D9F9002142
:102590004FF48010FFF7D4F910BD0000003801405F
:1025A0000044004000480040004C00400050004003
:1025B00002460020B1F5007F00D100BF13880B4018
:1025C0000BB1012000E00020704770B502460024E6
:1025D00000230025002040F66A16B14200D100BF5A
:1025E000C1F3421501F01F03012606FA03F3012D82
:1025F00002D19689334006E0022D02D1168A33407B
:1026000001E0968A33400C12012606FA04F416887B
:10261000344013B10CB1012000E0002070BDF0B5D2
:102620000346002400260025002040F66A17B94220
:1026300000D100BF1846C1F3421401F01F06012764
:1026400007FA06F5012C01D10C3004E0022C01D16F
:10265000103000E014301AB107682F43076002E021
:102660000768AF430760F0BD2DE9F04786B0054627
:102670000E460024A24600BFA1460027B08900B143
:1026800000BF2F462C8A4CF6FF700440F0880443AC
:102690002C82AC894EF6F3100440B088318908438F
:1026A000718908430443AC81AC8A4FF6FF40044073
:1026B000B0890443AC8201A8FFF772F91F48874232
:1026C00002D1DDF810A001E0DDF80CA0A88900F42B
:1026D000004040B10AEBCA0000EB0A103168490023
:1026E000B0FBF1F807E00AEBCA0000EB0A10316812
:1026F0008900B0FBF1F86420B8FBF0F00401200978
:10270000642101FB1089A88900F4004040B1322007
:1027100000EBC900B0FBF1F000F00700044308E053
:10272000322000EB09106421B0FBF1F000F00F0043
:1027300004432C8106B0BDE8F0870000003801405A
:102740000FB470B58AB0064610A8019040213046FB
:10275000FFF72EFF73E00F9800785C281CD10F98CC
:10276000401C0F9000786E2809D072280FD10D21DF
:10277000304600F074F80F98401C0F900BE00A21CF
:10278000304600F06CF80F98401C0F9003E00F9853
:10279000401C0F9000BF4BE00F980078252840D1D7
:1027A0000F98401C0F900078642818D0732833D1FC
:1027B000019810C801900BE02178304600F04FF8E6
:1027C00000BF40213046FFF7F3FE0028F9D0641C1B
:1027D00020780028F0D10F98401C0F9020E001983D
:1027E00020C801902A461AA102A8FDF719FD02ACE3
:1027F0000BE02178304600F032F800BF402130462F
:10280000FFF7D6FE0028F9D0641C20780028F0D10C
:102810000F98401C0F9003E00F98401C0F9000BFD2
:1028200006E00F9810F8011B0F90304600F017F8E3
:1028300000BF40213046FFF7BBFE0028F9D00F98BB
:102840000078002887D10AB070BC5DF814FB000046
:102850002564000001468888C0F308007047C1F372
:1028600008028280704700BFFEE730380A2801D294
:10287000012070470020704710B500F05AF800F0B2
:1028800018F800F079F80123002208214FF4E13014
:1028900001F004F84FF4E13001F046F84FF416501F
:1028A000FFF7A0FD2821C82000F0B4FFFEF7FAF8DA
:1028B00010BD08B54FF4E060FEF7FEFF1C208DF858
:1028C000000000208DF8010002208DF80200012098
:1028D0008DF803006846FEF7B7FF25208DF800004D
:1028E00001208DF801008DF802008DF80300684684
:1028F000FEF7AAFF26208DF8000001208DF80100C8
:1029000002208DF8020001208DF803006846FEF7D2
:102910009BFF27208DF8000001208DF80100032087
:102920008DF8020001208DF803006846FEF78CFF49
:1029300008BD10B501210846FEF7F2FF0121480449
:10294000FEF7EEFF01218804FEF7EAFF01210420D3
:10295000FFF706F801210820FFF702F801211020F7
:10296000FEF7FEFF01212020FEF7FAFF0121880378
:10297000FEF7F6FF10BD000008B54FF40070ADF88B
:10298000000018208DF8030003208DF8020069462E
:102990004A48FEF7CCF94FF48060ADF800000420FF
:1029A0008DF8030003208DF8020069464348FEF7C6
:1029B000BEF90420ADF8000018208DF803000320B4
:1029C0008DF8020069463D48FEF7B1F90820ADF8E0
:1029D000000004208DF8030003208DF802006946F2
:1029E0003648FEF7A4F94FF48060ADF800001820D7
:1029F0008DF8030003208DF8020069463048FEF789
:102A000096F94FF40060ADF8000004208DF8030043
:102A100003208DF8020069462948FEF788F9012055
:102A2000ADF8000003208DF8020010208DF803009F
:102A300069462348FEF77BF90220ADF80000032029
:102A40008DF8020014208DF8030069461C48FEF73B
:102A50006EF94020ADF8000003208DF802004820F8
:102A60008DF8030069461748FEF761F93020ADF88C
:102A7000000003208DF8020048208DF8030069460D
:102A80000E48FEF754F90320ADF800008DF802005F
:102A900010208DF8030069460A48FEF748F908201F
:102AA000ADF8000003208DF8020010208DF803001F
:102AB00069460448FEF73BF908BD000000080140E4
:102AC000000C01400010014070B50446002521466D
:102AD0000248FDF7E5FC0546284670BD321300208C
:102AE00030B5ADF5017D4FF4007101A8FDF7C0FDD3
:102AF0000025CD4800780B2877D2DFE800F00612D9
:102B0000326384A4D7FBF9F8F70000F009FA4FF418
:102B10007A7000F0A7FEC4480078401CC2490870D3
:102B20007EE142F210734FF44872C0A1C0A000F0E1
:102B3000F9F9044644B1BC480078401CBA49087011
:102B40000020BD4908700BE0BB480078401CBA4922
:102B5000087008460078052802DD0020B249087098
:102B60005EE142F210734FF44872B0A1B3A000F0DE
:102B7000D9F90446CCB1B4A12046FDF791FC40B18F
:102B8000A9480078401CA84908700020AA4908708C
:102B900017E0B0A12046FDF783FC90B10420A249C4
:102BA00008700020A44908700BE0A3480078401C7E
:102BB000A149087008460078052802DD00209A49DE
:102BC00008702DE141F288334FF4487297A1A5A017
:102BD00000F0A8F904464CB193480078401C924993
:102BE00008700020944908700CE018E192480078C1
:102BF000401C9149087008460078052802DD002035
:102C0000894908700CE141F288334FF4487298A169
:102C10008AA000F087F9044644B183480078401C3C
:102C2000814908700020844908700BE082480078D0
:102C3000401C8149087008460078052802DD002004
:102C400079490870ECE04FF47A73322277A18FA0B3
:102C500000F068F90446E4B121469048FFF770FDA2
:102C60008FA12046FDF71CFC0546102205F10C0142
:102C70008E48FDF796FC8D4A8DA18848FFF760FDD0
:102C800069480078401C6849087000206A4908704B
:102C90000BE069480078401C6749087008460078D6
:102CA000052802DD002060490870B9E041F2883350
:102CB0004FF448726EA161A000F034F9044644B1AB
:102CC00059480078401C5849087000205A4908703B
:102CD0000BE059480078401C5749087008460078B6
:102CE000052802DD00205049087099E096E05BE07D
:102CF0002DE0FFE772A06D4B73A278A1009001A8B0
:102D0000FDF78EFA01AA6AA16448FFF719FD4FF496
:102D1000FA634FF4487245A101A800F003F9044694
:102D200044B141480078401C3F49087000204249A6
:102D300008700BE040480078401C3F490870084686
:102D40000078052802DD00203749087068E05CA0A3
:102D5000564B64A261A1009001A8FDF761FA01AA97
:102D600065A14E48FFF7ECFC4FF4FA634FF448724C
:102D70002EA101A800F0D6F8044644B12A480078F4
:102D8000401C2949087000202B4908700BE02A4894
:102D90000078401C2849087008460078052802DDA4
:102DA0000020214908703BE002205649087008467F
:102DB000027855A13948FFF7C3FC4FF47A733222E9
:102DC0001AA132A000F0AEF80446D4B1214633482F
:102DD000FFF7B6FC32A12046FDF762FB0546102244
:102DE00005F10C013148FDF7DCFB304A30A12B48DE
:102DF000FFF7A6FCFF200C49087000200E49087060
:102E00000BE00D480078401C0B490870084600781C
:102E1000052802DD00200449087001E000E000BF41
:102E200000BF0DF5017D30BD8B0000204F4B000031
:102E300041540D0A000000008A00002041542B5329
:102E400054415455530D0A004D515454205245419C
:102E5000445900004D51545420434F4E4E45435465
:102E6000204F4B0041542B53544152540D0A000043
:102E70002B5354415455533A204D51545420434FF1
:102E80004E4E454354204F4B0000000041542B430D
:102E90004C49454E5449443F0D0A0000003801405A
:102EA0002B434C49454E5449443A200032170020E8
:102EB0006C6F636B5F69643D25730D0A0000000051
:102EC0002C320D0A0000000041542B53554253434D
:102ED000524942453D62656C6C2F00002573257395
:102EE0002573000041542B535542534352494245E8
:102EF0003D6C6F636B2F00006C6F636B3D25730D32
:102F00000A000000850000207573617274325F72E0
:102F1000785F737461747573203D2025640D0A0019
:102F2000704700002DE9F04104460D4616461F4645
:102F30004FF0010800210B2000F09EFC3CE04FF414
:102F400000712048FDF772FB00201F4908801F49CF
:102F5000087021461E48FFF7F3FB304600F082FC64
:102F600018491C48FFF7ECFB012018490870284657
:102F7000FFF7AAFDA8B14FF0000800201349087020
:102F80004FF400720F494846FDF70BFB4FF40071F8
:102F90000C48FDF74BFB00200B4908804846BDE874
:102FA000F08139460B2000F067FC28B94FF000088B
:102FB000002006490870F2E7B8F1000FBFD100BF4A
:102FC000EDE7000032130020820000208500002081
:102FD000004400400038014010B501210348FDF7CE
:102FE0003CFF02210148FDF736FF10BD00100140F3
:102FF00010B501210348FDF72EFF02210148FDF71E
:103000002CFF10BD0010014010B501210348FDF751
:1030100022FF02210148FDF71EFF10BD00100140F4
:1030200086B000BF00BFFFF727FCFBA1FE48FFF7FB
:1030300087FBFEA1FC48FFF783FBADE306E0FFF74B
:103040004FFDFE480078FF2800D100E0F7E700BF01
:1030500000F04AFC00F088FC1021F948FEF7C0FBA4
:103060000A210020FDF716FFF6490880098840F67E
:10307000E44201FB02F0C11700EB1151C1F30F3123
:10308000F04A11801046008858214843142190FBD3
:10309000F1F01146088008460088A0F5985088385D
:1030A000642148434FF4166190FBF1F0E649088033
:1030B000E649002000F0E0FB00287DD1E4A0E04BD1
:1030C000E5A2EBA10090EC48FDF7AAF8EA4AEBA1D3
:1030D000D548FFF735FB00234FF49672EAA1E64886
:1030E000FFF720FF0446002C38D04FF40071E7486A
:1030F000FDF79CFA4FF40071E548FDF797FAE5A05B
:103100002221E5A30A46CDE90010E5A1DF48FDF73D
:1031100087F8DE4AE5A1C448FFF712FBE84AE9A1B7
:10312000C148FFF70DFBDA4AE9A1BF48FFF708FBEA
:103130001421EB48FDF77AFA3120D5490870E849A7
:10314000087000234FF49672E6A1E548FFF7EAFE07
:1031500004464FF40071C848FDF768FABA48008881
:103160000A283BDAE0480078012837D10020DE4900
:103170000870DEA0B24BB8A2DEA10090BE48FDF7F9
:103180004FF8BD4ADDA1A848FFF7DAFA00234FF453
:103190009672BDA1B848FFF7C5FE044664B14FF46E
:1031A0000071BA48FDF742FA4FF40071B848FDF7D4
:1031B0003DFAB8A0222100E010E0B7A30A46CDE90D
:1031C0000010B7A1B148FDF72BF800234FF4967219
:1031D000C4A1AF48FFF7A6FE044600BFCCA1D0486B
:1031E000FDF75EF9CF4908609549CE480068FDF7C4
:1031F00057F9CD4908600C22C5A1CA480068FDF7FF
:1032000085F9002857D1C9A18748FFF799FA1021FD
:10321000C848FDF717FE28B12021C648FDF712FE69
:10322000002848D14FF40071C348FDF7FFF94FF46F
:1032300000719648FDF7FAF9BA4801682031BE4896
:10324000FDF740F90120BD490870BB4800783128DE
:1032500013D11021B748FDF7F5FD50B90120B84949
:1032600008700021042000F007FB0120B549087018
:103270001CE00020B249087018E0AF4800783228FE
:103280000ED12021AB48FDF7DDFD28B90120AE4964
:103290000870AE49087009E00020AB49087005E0ED
:1032A000A5480078302801D1FEF710FB4FF40071DB
:1032B0009B48FDF7BBF9A6A19948FDF7F1F899499C
:1032C00008605F4997480068FDF7EAF8964908608A
:1032D0000C229FA193480068FDF718F9A8B9A048EF
:1032E000007890B99FA15048FFF72AFA01209C4925
:1032F000087008219D48FDF7B0FD4FF4FA7000F00A
:10330000B1FA08219948FDF7A6FD954800780128F3
:1033100002D100209249087089480078012879D1AB
:1033200040F6B831042000F0A7FA78B9102181489E
:10333000FDF788FD20B120217E48FDF783FD28B9E7
:1033400001208149087000207D49087088A1364815
:10335000FFF7F6F910217748FDF774FD58B92021E1
:103360007448FDF76FFD012805D1FFF741FE83A1E9
:103370002D48FFF7E5F910216E48FDF763FD0128A0
:10338000CDD120216B48FDF75DFD0028C7D17FA17D
:103390002548FFF7D5F9002069490870FFF734FE8A
:1033A0002BA0274B7DA232A100908248FCF738FF6A
:1033B000804A81A11C48FFF7C3F900234FF496729D
:1033C00031A17C48FFF7AEFD04461CB34FF40071F9
:1033D0002E48FDF72BF94FF400712D48FDF726F923
:1033E0007BA022217BA2CDE90212CDE9041078A0B6
:1033F00079A30A46CDE9001078A12448FCF710FF14
:10340000224A2AA10848FFF79BF933203449087063
:103410000023EFE0F7E000007561727431206973FA
:10342000206F6B0D0A0000000038014077616E6765
:103430007A686F6E6779610D0A0000008B000020CA
:10344000321700202C0000202E000020A086010052
:103450002C312C320D0A000041542B5055424C495E
:1034600053483D6C6F636B646174612F0000000012
:1034700025732573257300002F0700207373737362
:103480003D25730D0A0000003E000000FC040020F2
:10349000E4020020323000006261747465727900C9
:1034A0007B2563257325633A25737D0065787072EB
:1034B000657373546578743D25730D0A0000000030
:1034C000FC0600206165734B65793D25730D0A008C
:1034D000636970686572546578743D25730D0A00E0
:1034E000E00A00204F4B0000300000202C33362C27
:1034F000320D0A00257325732500000077616E6781
:103500007A686F6E6779613D25730D0A00000000CF
:10351000746F7069633A206C6F636B2F000000005A
:10352000E008002034000020380000206C6F636B3E
:103530000D0A000000080140E404002029000020DA
:1035400048000020490000204C0000204D000020D1
:10355000746F7069633A2062656C6C2F0000000024
:103560002800002062656C6C0D0A0000001001400C
:103570004C6F636B5F4F70656E0D0A0041414120D7
:103580006C6F636B5F6F70656E0D0A004141412087
:103590006C6F636B5F73746F700D0A0041542B5036
:1035A00055424C4953483D6C6F636B6261636B2FAE
:1035B000000000000C0700205075626C6973684CB5
:1035C0006F636B4261636B6275663D25730D0A0024
:1035D000310000006F6B0000636D64007B25632584
:1035E0007325633A25732C2563257325633A257368
:1035F0007D0000004FF49672AFF218116748FFF794
:1036000091FC044600BF66480078012879D141F258
:103610008831032000F030F962A16748FFF790F885
:1036200010216648FDF70EFC01280AD120216348CD
:10363000FDF708FC28B9FFF7CFFC61A15E48FFF752
:103640007FF810215D48FDF7FDFB002859D12021AE
:103650005A48FDF7F7FB012853D100205049087064
:10366000FFF7D2FC5BA15448FFF76AF8AFF22020C5
:103670005C4BAFF2D802AFF2082100905A48FCF739
:10368000CFFD594AAFF2D0014B48FFF759F800235C
:103690004FF49672AFF210215348FFF743FC0446F3
:1036A0007CB34FF400715148FCF7C0FF4FF4007138
:1036B0004F48FCF7BBFF4FA02221AFF2E802CDE953
:1036C0000212CDE904104CA0AFF2F4030A46CDE992
:1036D0000010AFF2F8014548FCF7A2FD434AAFF2F3
:1036E00034213548FFF72CF835202C490870002389
:1036F0004FF49672AFF214212848FFF713FC0446EA
:1037000000BF10212D48FDF79DFB012809D1202184
:103710002A48FDF797FB012803D138A12648FFF777
:103720000FF840213748FDF78DFB18B936A1224824
:10373000FFF706F84EF66021002000F09DF858BB18
:10374000AFF2F420274BAFF2F022AFF2DC21009071
:103750002F48FCF765FD2E4AAFF2E0211648FEF730
:10376000EFFF00234FF49672AFF2E4212848FFF7F1
:10377000D9FB044684B130200849087000234FF477
:103780009672AFF2A0210548FFF7CCFB04464FF438
:1037900000711F48FCF74AFF50E40000E00A0020D7
:1037A0004C000020424242204C6F636B5F436C6FC1
:1037B00073650D0A00000000003801400008014058
:1037C000424242206C6F636B5F636C6F73650D0ADE
:1037D00000000000424242206C6F636B5F73746FA5
:1037E000700D0A00321700200C070020FC04002096
:1037F000E4020020300000003200000064646464D1
:10380000640D0A000010014062626262620D0A00EB
:103810002F070020FEB504460D464FF47A76F006D9
:10382000FEF762FB0020ADF80200ADF80600ADF82F
:103830000440ADF800506946F006FEF765FC012132
:103840008807FEF73FFB0021F006FEF75BFC012234
:1038500011469007FEF74DFC01218807FEF738FB63
:10386000FEBD00000349086000BF02490968002945
:10387000FBD170476C00002010B5024600230648BB
:1038800050F82200884204D30020034C44F8220060
:1038900000E00123D8B210BD000B00202DE9FF414C
:1038A00007460C4615461E460097ADF80440ADF895
:1038B0000660ADF808500020ADF80C000C20ADF803
:1038C0000A0069460748FEF7CFFE012240F2255163
:1038D0000448FEF7A4FE01210248FEF706FEBDE8FB
:1038E000FF8100000038014010B528210720FFF7B4
:1038F000C3FF78B908490948FEF722FF064908487E
:10390000FEF71EFF4FF400710348FCF78FFE002006
:103910000449088010BD000032110020004400401E
:1039200000380140800000201FB5044600940020AC
:10393000ADF80400ADF80600ADF80800ADF80C00D5
:103940000C20ADF80A0069460648FEF78DFE0122FC
:1039500040F225510348FEF762FE01210148FEF7BF
:10396000C4FD1FBD0044004010B528210820FFF70A
:1039700083FF88B909490A48FEF7E2FE4FF4007256
:1039800006490848FCF70DFE4FF400710348FCF7A8
:103990004DFE00200449088010BD000032130020B5
:1039A00000380140E00800208200002000030306E8
:1039B00001040602050003051F1C1F1E1F1E1F1FFA
:1039C0001E1F1E1F0400000800000000000000026F
:1039D0000001000010000000F8390008000000207D
:1039E000E40000006C010008DC3A0008E40000205C
:1039F000C41C000088010008000000000000000056
:103A000000000000000000000000000000000000B6
:103A100000000000000000000000000000000000A6
:103A20000000000000000000000000000000000096
:103A30000000000000000000000000000000000086
:103A40000000000000000000040001010000000070
:103A50000102030401020304060708090204060820
:103A6000000000000000000000000000300F0020F7
:103A7000300F0020300F0020000000000000000088
:103A80000000000000000000000130313233343506
:103A90003637383961626364656680000000000073
:103AA0000000000000000000000000000000000016
:103AB0000000000000000000000000000000000006
:103AC00000000000000000000000000000000000F6
:0C3AD000000000000000000000000000EA
:0400000508000131BD
:00000001FF
