:020000040800F2
:10000000B8180020DD0100080D0A0008050A0008E4
:10001000090A0008E9080008171500080000000098
:100020000000000000000000000000000D0C0008AF
:10003000ED08000800000000950A0008F90C00080F
:10004000F7010008F7010008F7010008F7010008B0
:10005000F7010008F7010008F7010008F7010008A0
:10006000F7010008F7010008F7010008F701000890
:10007000F7010008F7010008F7010008F701000880
:10008000F7010008F7010008F7010008F701000870
:10009000F7010008F7010008F7010008F701000860
:1000A000F7010008F7010008F7010008F701000850
:1000B0005D0D0008F7010008F7010008F7010008CE
:1000C000F7010008F7010008F7010008F701000830
:1000D000F70100089110000815110008A11100088F
:1000E000F7010008F7010008F7010008F701000810
:1000F000F7010008F7010008F7010008F701000800
:10010000F7010008F7010008F7010008F7010008EF
:10011000F7010008F7010008F7010008F7010008DF
:10012000F7010008F7010008F7010008F7010008CF
:1001300000F002F800F042F80AA090E8000C8244B7
:100140008344AAF10107DA4501D100F037F8AFF294
:10015000090EBAE80F0013F0010F18BFFB1A43F0A5
:1001600001031847941B0000B41B0000103A24BF81
:1001700078C878C1FAD8520724BF30C830C144BF0C
:1001800004680C607047000000230024002500264E
:10019000103A28BF78C1FBD8520728BF30C148BFEA
:1001A0000B607047642900F07980732900F0978212
:1001B000002070471FB51FBD10B510BD00F099FAA3
:1001C0001146FFF7F7FF01F089FC00F0B7FA03B41E
:1001D000FFF7F2FF03BC00F0BBFA000009488047BC
:1001E00009480047FEE7FEE7FEE7FEE7FEE7FEE719
:1001F000FEE7FEE7FEE7FEE704480549054A064B31
:1002000070470000FD0C000831010008B812002002
:10021000B8180020B8140020B81400200FB41CB582
:10022000084B06AA7B4469460090059800F02DFA19
:1002300004460020694600F03BFA20461CBC5DF8ED
:1002400014FB00008904000070B50C460546012A25
:1002500005D02878800600D5EA69002302E0012352
:1002600005E05B1C934202D2E05C0028F9D1A8694A
:10027000E618C01AA861286A184428622846AFF315
:10028000008004E0D5E9012114F8010B9047B44245
:10029000F8D32846AFF3008070BD00002DE9F0418F
:1002A0000646002410687529314616A510D0AFF314
:1002B0000080002802DA404213A507E031688A076F
:1002C00001D512A502E0490704D511A5012401E0DA
:1002D000AFF3008000210A2206F1240709E0B0FBF9
:1002E000F2FCB0FBF2F302FB1C00303078541846ED
:1002F000491C0028F3D123462A463046BDE8F04188
:1003000000F064B9000000002D0000002B00000088
:10031000200000002DE9F0474FF0000A894604460E
:10032000C0F820A02046E1688847002876D025281C
:1003300006D0D4E901219047206A401C2062F1E7F1
:10034000E168204600258847C4F81CA0064600271F
:10035000C4F818A02A2E09D0304601F0DEF838B3D0
:1003600004EB8708303EC8F8186019E059F8041B00
:10037000204604EB87029161E1688847012F064619
:1003800018D1E069002820DA25F020051DE0D8F812
:10039000180000EB800006EB40003038C8F8180069
:1003A0002046E1688847064601F0B7F80028EED1FC
:1003B000012F0AD02E2E08D12046E16888477F1CE5
:1003C0000646022F45F02005C4DBA069002803DAA9
:1003D000404245F00105A061E80701D025F0100575
:1003E000B6B1A6F14100192802D8203645F40065BF
:1003F0004A463146204625604D46FFF7D3FE58B1A8
:10040000012806D0ED1D25F0070000F1080989E755
:1004100004E005F1040985E730468AE7206ABDE873
:10042000F08730B505460B462A4613F8014B12F803
:10043000010B08B1A042F8D01CB1002802D06D1CFD
:10044000F1E7284630BD032A40F2308010F0030C5B
:1004500000F0158011F8013BBCF1020F624498BF17
:1004600011F801CB00F8013B38BF11F8013BA2F1B4
:10047000040298BF00F801CB38BF00F8013B11F02F
:10048000030300F02580083AC0F0088051F8043BCF
:10049000083A51F804CBA0E80810F5E7121D5CBF3C
:1004A00051F8043B40F8043BAFF30080D20724BF6F
:1004B00011F8013B11F801CB48BF11F8012B24BF03
:1004C00000F8013B00F801CB48BF00F8012B704752
:1004D00010B5203AC0F00B80B1E81850203AA0E8DF
:1004E0001850B1E81850A0E81850BFF4F5AF5FEA13
:1004F000027C24BFB1E81850A0E8185044BF18C9C6
:1005000018C0BDE810405FEA827C24BF51F8043B6C
:1005100040F8043B08BF7047D20728BF31F8023BC0
:1005200048BF11F8012B28BF20F8023B48BF00F854
:10053000012B70474FF000020429C0F0128010F028
:10054000030C00F01B80CCF1040CBCF1020F18BFAF
:1005500000F8012BA8BF20F8022BA1EB0C0100F042
:100560000DB85FEAC17C24BF00F8012B00F8012B15
:1005700048BF00F8012B70474FF0000200B513464A
:1005800094469646203922BFA0E80C50A0E80C50B3
:10059000B1F12001BFF4F7AF090728BFA0E80C5064
:1005A00048BF0CC05DF804EB890028BF40F8042B5D
:1005B00008BF704748BF20F8022B11F0804F18BFCA
:1005C00000F8012B70477047704770472DE9F047DE
:1005D0000D4699469246044600F1240801688806B3
:1005E00004D5E06921F01001216000E00120A8425B
:1005F00001DD471B00E00027A1697A1902EB090021
:10060000081AA0612078C00602D42046AFF300800B
:10061000002608E0D4E901211AF806009047206A74
:10062000401C761C20624E45F4DB2078C0060AD5BB
:100630002046AFF3008006E0D4E901213020904746
:10064000206A401C2062381EA7F10107F4DC07E095
:10065000D4E9012118F805009047206A401C206267
:10066000281EA5F10105F3DC2046AFF300802078B9
:10067000000602D50220BDE8F0870120FBE700005C
:1006800001694A1C02610878704700B58FB0CDE956
:1006900001310021059105497944CDE90310114646
:1006A0006846FFF737FE0FB000BD0000E5FFFFFF13
:1006B0000A6802F8010B0A60704710B5436913B16C
:1006C000AFF3008001E0FFF7BFFD012010BD1278FD
:1006D00000F124010A7000224A700122EDE711683E
:1006E0004FF0FF32E9E70000004870475412002045
:1006F00070477546FFF7F8FFAE460500694653465A
:1007000020F00700854618B020B5FFF775FDBDE85D
:1007100020404FF000064FF000074FF000084FF068
:10072000000B21F00701AC46ACE8C009ACE8C009F9
:10073000ACE8C009ACE8C0098D46704710B5044666
:10074000AFF300802046BDE81040FFF740BD000039
:1007500001491820ABBEFEE72600020021B18268E5
:1007600042F00102826003E0826822F001028260AE
:100770007047000010B504461248844208D1012198
:10078000401500F0C5F90021601500F0C1F917E02F
:100790000D48844208D10121001500F0B9F900216B
:1007A000201500F0B5F90BE00848844208D101217A
:1007B000C80300F0ADF900214FF4004000F0A8F9A3
:1007C00010BD00000024014000280140003C014011
:1007D000014600208A6802F004020AB1012000E00C
:1007E00000207047014600208A6802F008020AB122
:1007F000012000E00020704730B5024600200023B1
:1008000050680F4C20400D790C6844EA05242043C1
:10081000506090680B4C2040D1E902542C434D7934
:1008200044EA450420439060D06A20F470000C7CB8
:10083000641EE4B2234340EA0350D06230BD00009E
:10084000FFFEF0FFFDF7F1FF816841F008018160D4
:100850007047816841F004018160704700B587B03E
:1008600001214FF4017000F043F94FF4004000F013
:1008700013F90120ADF8040000208DF8070001A94C
:10088000174800F034F81748FFF774FF0020029073
:100890008DF80C008DF80D004FF4602004900020BE
:1008A000059001208DF8180002A90E48FFF7A4FF5B
:1008B00001210C48FFF752FF0A48FFF7C5FF00BFB0
:1008C0000848FFF78FFF0028FAD10648FFF7C1FF5D
:1008D00000BF0448FFF77CFF0028FAD107B000BD35
:1008E000000801400024014000BFFEE770472DE9E9
:1008F000F0410246002500260020002300240027A6
:1009000091F803C00CF00F0591F803C00CF0100C27
:10091000BCF1000F03D091F802C04CEA050591F834
:1009200000C0BCF1000F31D0146800202BE04FF064
:10093000010C0CFA00F3B1F800C00CEA03069E4269
:1009400020D183004FF00F0C0CFA03F7BC4305FADB
:1009500003FC4CEA040491F803C0BCF1280F06D153
:100960004FF0010C0CFA00FCC2F814C00AE091F838
:1009700003C0BCF1480F05D14FF0010C0CFA00FC8C
:10098000C2F810C0401C0828D1D31460B1F800C0D0
:10099000BCF1FF0F34DD546800202EE000F1080C9C
:1009A0004FF0010808FA0CF3B1F800C00CEA030696
:1009B0009E4221D183004FF00F0C0CFA03F7BC4389
:1009C00005FA03FC4CEA040491F803C0BCF1280FBB
:1009D00005D100F1080C08FA0CF8C2F8148091F85F
:1009E00003C0BCF1480F07D100F1080C4FF001081B
:1009F00008FA0CF8C2F81080401C0828CED35460C6
:100A0000BDE8F08100BFFEE700BFFEE770470000D1
:100A100070B5002100230F22C47804B3154C24685C
:100A200004F4E064C4F5E064210AC1F10403CA409F
:100A3000447804FA03F184781440214309010E4CF0
:100A40000678A155047804F01F050124AC40057810
:100A50006D11AD0005F1E025C5F8004109E004780D
:100A600004F01F050124AC40044D0678761145F8CA
:100A7000264070BD0CED00E000E400E080E100E005
:100A800002490143024A1160704700000000FA0564
:100A90000CED00E07047000001460020034A50685A
:100AA00020F44040084350607047000000100240AE
:100AB00029B1064AD2690243044BDA6104E0034AD1
:100AC000D2698243014BDA61704700000010024096
:100AD00029B1064A12690243044B1A6104E0034A31
:100AE00012698243014B1A617047000000100240F6
:100AF00029B1064A92690243044B9A6104E0034A11
:100B000092698243014B9A617047000000100240D5
:100B100029B1064AD2680243044BDA6004E0034A72
:100B2000D2688243014BDA60704700000010024037
:100B300030B500210022002400232D4D6D6805F002
:100B40000C0121B1042905D0082923D105E0294D44
:100B5000056022E0284D05601FE0254D6D6805F415
:100B60007012234D6D6805F48034022505EB924226
:100B70001CB9224D554305600BE01D4D6D6805F411
:100B800000351DB11E4D5543056002E01A4D554319
:100B9000056002E0174D056000BF00BF144D6D6891
:100BA00005F0F0010909174D6B5C0568DD404560F3
:100BB0000F4D6D6805F4E061090A124D6B5C4568E4
:100BC000DD4085600A4D6D6805F46051C90A0D4D20
:100BD0006B5C4568DD40C560054D6D6805F44041BE
:100BE000890B094D6B5CC568B5FBF3F5056130BD3C
:100BF0000010024000127A00001BB70000093D00FF
:100C0000808D5B002800002038000020704710B560
:100C100000F002F810BD00000CB50020019000901B
:100C20003348006840F480303149086000BF3048E4
:100C3000006800F4003000900198401C019000987A
:100C400018B90198B0F5A06FF1D12948006800F4F7
:100C5000003010B10120009001E0002000900098C9
:100C6000012843D12348006840F010002149086062
:100C70000846006820F0030008600846006840F05D
:100C8000020008601A4840681949486008464068F0
:100C900048600846406840F4806048600846406804
:100CA00020F47C1048600846406840F48810486092
:100CB0000846006840F08070086000BF0C4800687B
:100CC00000F000700028F9D00948406820F00300C7
:100CD000074948600846406840F00200486000BF8D
:100CE0000348406800F00C000828F9D10CBD000052
:100CF00000100240002002407047000010B5134869
:100D0000006840F001001149086008464068104939
:100D100008400E494860084600680E4908400B49E3
:100D200008600846006820F4802008600846406893
:100D300020F4FE0048604FF41F008860FFF767FF53
:100D40004FF000600449086010BD00000010024030
:100D50000000FFF8FFFFF6FE08ED00E010B50024EC
:100D60000121880700F026F9012818D10121800708
:100D700000F01DF80A48006820B109480068401ECC
:100D800007490860002408E0064850F82400401C89
:100D9000044941F82400601C84B2102CF4DB10BD1F
:100DA00000000020100A0020CA4302827047CA4394
:100DB0000282704721B1028842F00102028004E001
:100DC00002884FF6FE731A400280704710B5044641
:100DD0006848844208D10121C014FFF799FE002120
:100DE000E014FFF795FEC4E0B4F1804F08D1012173
:100DF0000846FFF76DFE00210120FFF769FEB8E00D
:100E00005D48844208D101210220FFF761FE0021E4
:100E10000220FFF75DFEACE05848844208D1012172
:100E20000420FFF755FE00210420FFF751FEA0E04B
:100E30005348844208D101210820FFF749FE0021D0
:100E40000820FFF745FE94E04E48844208D1012176
:100E50001020FFF73DFE00211020FFF739FE88E04B
:100E60004948844208D101212020FFF731FE0021AA
:100E70002020FFF72DFE7CE04448844208D1012168
:100E80004014FFF745FE00216014FFF741FE70E0BB
:100E90003F48844209D10121C804FFF739FE0021EF
:100EA0004FF40020FFF734FE63E03A48844209D152
:100EB00001210805FFF72CFE00214FF48010FFF7F9
:100EC00027FE56E03448844209D101214805FFF746
:100ED0001FFE00214FF40010FFF71AFE49E02F48D3
:100EE000844208D101214020FFF7F2FD002140207B
:100EF000FFF7EEFD3DE02A48844208D10121802021
:100F0000FFF7E6FD00218020FFF7E2FD31E02548F4
:100F1000844208D101218015FFF7DAFD0021A015D8
:100F2000FFF7D6FD25E02048844209D101210804BD
:100F3000FFF7EEFD00214FF48030FFF7E9FD18E0E8
:100F40001A48844209D101214804FFF7E1FD00213C
:100F50004FF40030FFF7DCFD0BE01548844208D168
:100F600001218804FFF7D4FD00214FF48020FFF712
:100F7000CFFD10BD002C01400004004000080040DF
:100F8000000C0040001000400014004000340140FC
:100F9000004C014000500140005401400018004046
:100FA000001C00400020004000400140004401407F
:100FB0000048014030B50246002000230024158A75
:100FC00005EA0103958905EA010413B10CB101207A
:100FD00000E0002030BD1AB183890B43838102E019
:100FE00083898B4383817047818470470022028804
:100FF0001D4B98420ED01D4B98420BD0B0F1804F44
:1010000008D01B4B984205D01A4B984202D01A4B7D
:10101000984204D14FF68F731A404B881A43174BEE
:10102000984207D0164B984204D04FF6FF431A401F
:10103000CB881A4302808B8883850B8803850A4BF3
:1010400098420BD0094B984208D00E4B984205D0DD
:101050000D4B984202D00D4B984201D10B7A03867A
:101060000123838270470000002C014000340140BE
:101070000004004000080040000C00400010004048
:10108000001400400040014000440140004801407D
:1010900010B5002440F225511C4800F0EDF800B3D3
:1010A00040F22551194800F0BFF8184800F02AFA1C
:1010B000C4B200210B2000F085FD154800680088AF
:1010C000B0F5007F0EDA1248006801881048006809
:1010D0000088401C0E4A126810800D480068801C71
:1010E000445405E040F2022109480068FFF722FA63
:1010F00040F22771054800F0BFF828B1002240F205
:101100002771024800F0E2F810BD000000380140ED
:101110000800002010B5002440F225511D4800F0C1
:10112000ABF818B340F225511A4800F07DF80021C1
:101130000C2000F047FD18480078B8B9154800F0B9
:10114000E1F9C4B2154800680088B0F5007F0EDAF6
:10115000124800680188114800680088401C0F4A46
:10116000126810800D480068801C445405E040F26D
:1011700002210A480068FFF7DDF940F227710548AF
:1011800000F07AF828B1002240F22771014800F0FF
:101190009DF810BD004400401B0000200C00002002
:1011A00010B5002440F225511B4800F065F828B323
:1011B00040F22551184800F037F800210D2000F0CA
:1011C00001FD154800F09EF9C4B214480088B0F53E
:1011D000007F0BDA114801880088401C0F4A1080FC
:1011E0000F48445401200F49087007E04FF4007184
:1011F0000B48FFF79FF900200849088040F227714B
:10120000054800F039F828B1002240F22771024861
:1012100000F05CF810BD00000048004018000020FD
:10122000521000201C00002010B50022002340F6C0
:101230006A14A14200D100BF0A1201249440A3B253
:10124000DC43048010BD21B1828942F400528281C6
:1012500004E082894DF6FF731A408281704702468E
:101260000020B1F5007F00D100BF13880B400BB107
:10127000012000E00020704770B5024600240023E2
:101280000025002040F66A16B14200D100BFC1F32C
:10129000421501F01F03012606FA03F3012D02D1C6
:1012A0009689334006E0022D02D1168A334001E0D0
:1012B000968A33400C12012606FA04F4168834404C
:1012C00013B10CB1012000E0002070BDF0B5034661
:1012D000002400260025002040F66A17B94200D1FC
:1012E00000BF1846C1F3421401F01F06012707FA98
:1012F00006F5012C01D10C3004E0022C01D1103094
:1013000000E014301AB107682F43076002E0076855
:10131000AF430760F0BD00002DE9F04786B00546F9
:101320000E460024A24600BFA1460027B08900B1A6
:1013300000BF2F462C8A4CF6FF700440F08804430F
:101340002C82AC894EF6F3100440B08831890843F2
:10135000718908430443AC81AC8A4FF6FF400440D6
:10136000B0890443AC8201A8FFF7E2FB1F48874223
:1013700002D1DDF810A001E0DDF80CA0A88900F48E
:10138000004040B10AEBCA0000EB0A103168490086
:10139000B0FBF1F807E00AEBCA0000EB0A10316875
:1013A0008900B0FBF1F86420B8FBF0F004012009DB
:1013B000642101FB1089A88900F4004040B132206B
:1013C00000EBC900B0FBF1F000F00700044308E0B7
:1013D000322000EB09106421B0FBF1F000F00F00A7
:1013E00004432C8106B0BDE8F087000000380140BE
:1013F0000FB470B58AB0064610A80190402130465F
:10140000FFF72DFF73E00F9800785C281CD10F9830
:10141000401C0F9000786E2809D072280FD10D2142
:10142000304600F074F80F98401C0F900BE00A2132
:10143000304600F06CF80F98401C0F9003E00F98B6
:10144000401C0F9000BF4BE00F980078252840D13A
:101450000F98401C0F900078642818D0732833D15F
:10146000019810C801900BE02178304600F04FF849
:1014700000BF40213046FFF7F2FE0028F9D0641C7F
:1014800020780028F0D10F98401C0F9020E00198A0
:1014900020C801902A461AA102A8FEF7BFFE02AC9E
:1014A0000BE02178304600F032F800BF4021304692
:1014B000FFF7D5FE0028F9D0641C20780028F0D171
:1014C0000F98401C0F9003E00F98401C0F9000BF36
:1014D00006E00F9810F8011B0F90304600F017F847
:1014E00000BF40213046FFF7BAFE0028F9D00F9820
:1014F0000078002887D10AB070BC5DF814FB0000AA
:101500002564000001468888C0F308007047C1F3D5
:1015100008028280704700BFFEE730380A2801D2F7
:10152000012070470020704710B500F069F800F006
:1015300018F800F08BF80123002208214FF4E13065
:1015400000F052FB4FF4E13000F096FB4FF41650E0
:1015500000F0B2FB2921C82000F002FBFFF77EF962
:1015600010BD08B54FF4E060FFF78AFA1C208DF833
:10157000000000208DF8010002208DF802000120FB
:101580008DF803006846FFF743FA1D208DF8000030
:1015900000208DF8010003208DF8020001208DF855
:1015A00003006846FFF734FA25208DF8000001207B
:1015B0008DF801008DF802008DF803006846FFF7F2
:1015C00027FA26208DF8000001208DF80100022066
:1015D0008DF8020001208DF803006846FFF718FA25
:1015E00027208DF8000001208DF8010003208DF8E0
:1015F000020001208DF803006846FFF709FA08BDD4
:1016000010B501210846FFF753FA01214804FFF7FE
:101610004FFA01218804FFF74BFA01210220FFF75E
:1016200047FA01210420FFF763FA01210820FFF7A0
:101630005FFA01211020FFF75BFA01212020FFF75C
:1016400057FA01218803FFF753FA10BD08B54FF48C
:101650000070ADF8000018208DF8030003208DF80D
:10166000020069464F48FFF742F94FF48060ADF839
:10167000000004208DF8030003208DF80200694665
:101680004848FFF734F90420ADF8000018208DF821
:10169000030003208DF8020069464248FFF727F94E
:1016A0000820ADF8000004208DF8030003208DF819
:1016B000020069463B48FFF71AF94FF48060ADF825
:1016C000000018208DF8030003208DF80200694601
:1016D0003548FFF70CF94FF40060ADF80000042026
:1016E0008DF8030003208DF8020069462E48FFF7AD
:1016F000FEF80120ADF8000003208DF80200102054
:101700008DF8030069462848FFF7F1F80220ADF88C
:10171000000003208DF8020014208DF803006946B4
:101720002148FFF7E4F84020ADF8000048208DF88C
:10173000030069461D48FFF7DAF83020ADF80000D5
:1017400003208DF8020048208DF8030069461548F3
:10175000FFF7CDF80320ADF800008DF8020010204F
:101760008DF8030069461148FFF7C1F80820ADF86D
:10177000000003208DF8020010208DF80300694658
:101780000A48FFF7B4F81020ADF8000003208DF8E8
:10179000020010208DF8030069460448FFF7A7F8FF
:1017A00008BD000000080140000C0140001001408D
:1017B00070B504460D46002629462046FEF731FE48
:1017C0000646304670BD000010B5ECE07748007862
:1017D000052876D005DC75D2DFE800F00C13335312
:1017E000780006286FD007286ED008286DD0FF2813
:1017F00068D1D0E001206D49087000206C49087064
:10180000CBE042F210734FF448726AA16AA000F074
:1018100005F9044644B165480078401C63490870E6
:101820000020634908700BE061480078401C604963
:10183000087008460078052802DD00205B49087022
:10184000ABE042F210734FF448725AA15CA000F072
:10185000E5F8044644B155480078401C53490870E7
:101860000020534908700BE051480078401C504953
:10187000087008460078052802DD00204B490870F2
:101880008BE042F210734FF448724AA14FA000F06F
:10189000C5F8044644B145480078401C43490870E7
:1018A0000020434908700BE041480078401C404943
:1018B000087008460078052802DD00203B490870C2
:1018C0006BE01EE068E03CE041E060E042F2107353
:1018D0004FF4487237A140A000F0A0F8044644B18C
:1018E00032480078401C31490870002030490870A7
:1018F00006E02F480078052802DD00202B490870FB
:101900004BE042F210734FF448722AA135A000F068
:1019100085F8044644B125480078401C23490870E6
:101920000020234908700BE021480078401C204922
:10193000087008460078052802DD00201B49087061
:101940002BE01A480078401C1849087025E042F244
:1019500010734FF47A7217A125A000F05FF80446C7
:1019600044B112480078401C10490870002010490A
:1019700008700BE00E480078401C0D4908700846BE
:101980000078052802DD00200849087005E0FF20E6
:101990000649087001E000E000BF00BF034800787E
:1019A000FF2800D100E011E700BF10BD210000209A
:1019B000200000204F4B000041540D0A00000000A1
:1019C00041542B47534E0D0A0000000041542B4355
:1019D00050494E3F0D0A000041542B4353510D0A0C
:1019E0000000000041542B435245473F0D0A0000C0
:1019F00041542B43495053544152543D2254435077
:101A0000222C223130332E34362E3132382E3437D8
:101A1000222C31383232330D0A0000002DE9F0411A
:101A2000ADF5007D04460F4615461E464FF00108F1
:101A300000210F2000F0C6F842E040F202212348C6
:101A40000068FEF777FD00202149087021462148F3
:101A5000FFF7CEFC284600F0ABF801201C490870C7
:101A60001A480168891C1C48FFF7C2FC3946174810
:101A70000068801CFFF79CFEB8B14FF00008002002
:101A8000134908704FF4007210480168891C6846B9
:101A9000FEF7D9FC40F202210C480068FEF74AFD2F
:101AA00068460DF5007DBDE8F08131460F2000F05D
:101AB00089F828B94FF00008002005490870F0E7C0
:101AC000B8F1000FB9D100BFEBE700000C00002017
:101AD0001B000020004400400038014008B500BF52
:101AE00000BF00BF1A200090FFF71EFD0EA1124894
:101AF000FFF77EFC17E0FFF767FE4FF47A7364226E
:101B00000EA10FA0FFF78AFF044654B16A4610A148
:101B10001248FEF783FBC8231A4600210F48FFF73F
:101B20007DFF00F087F8E6E7756172743120697314
:101B3000206F6B0D0A000000003801403E000000DD
:101B400041542B43495053454E440D0A00000000B8
:101B5000616161616125730D0A0000009805002034
:101B6000FEB504460D464FF47A76F006FFF72EF9DF
:101B70000020ADF80200ADF80600ADF80440ADF865
:101B800000506946F006FFF731FA01218807FFF798
:101B90000BF90021F006FFF727FA01221146900702
:101BA000FFF719FA01218807FFF704F9FEBD0000CD
:101BB0000349086000BF024909680029FBD170474A
:101BC0000000002010B502460023064850F822000D
:101BD000884204D30020034C44F8220000E0012393
:101BE000D8B210BD100A00202DE9FF4107460C466F
:101BF00015461E460097ADF80440ADF80660ADF8F6
:101C000008500020ADF80C000C20ADF80A00694621
:101C10000748FFF781FB012240F225510448FFF7F6
:101C200055FB01210248FFF70EFBBDE8FF810000D4
:101C30000038014010B514210B20FFF7C3FF98B9FD
:101C400040F202220948016809480068FEF7FBFBE0
:101C500007480168891C0748FFF7CAFB40F20221C8
:101C600002480068FEF766FC10BD00000800002076
:101C700004000020003801401FB5044600940020F5
:101C8000ADF80400ADF80600ADF80800ADF80C00A2
:101C90000C20ADF80A0069460648FFF73DFB01221B
:101CA00040F225510348FFF711FB01210148FFF7DE
:101CB000CAFA1FBD004400401FB50446009400202E
:101CC000ADF80400ADF80600ADF80800ADF80C0062
:101CD0000C20ADF80A0069460648FFF71DFB0122FB
:101CE00040F225510348FFF7F1FA01210148FFF7BF
:101CF000AAFA1FBD00480040181D0008000000207F
:101D00003C0000006C010008541D00083C0000204D
:101D10007C1800008801000800000000500A002024
:101D2000500A0020500A0020500A00200000000045
:101D300000000000000000000000000000000001A2
:101D40000000000001020304010203040607080961
:041D5000020406087B
:0400000508000131BD
:00000001FF
